Component: ARM Compiler 5.06 update 3 (build 300) Tool: armlink [4d35c9]

==============================================================================

Section Cross References

    system_stm32f4xx.o(i.SystemCoreClockUpdate) refers to system_stm32f4xx.o(.data) for .data
    system_stm32f4xx.o(i.SystemInit) refers to system_stm32f4xx.o(i.SetSysClock) for SetSysClock
    key.o(i.KEY_Init) refers to stm32f4xx_rcc.o(i.RCC_AHB1PeriphClockCmd) for RCC_AHB1PeriphClockCmd
    key.o(i.KEY_Init) refers to stm32f4xx_gpio.o(i.GPIO_Init) for GPIO_Init
    key.o(i.KEY_Scan) refers to delay.o(i.delay_ms) for delay_ms
    key.o(i.KEY_Scan) refers to key.o(.data) for .data
    led.o(i.LED_Init) refers to stm32f4xx_rcc.o(i.RCC_AHB1PeriphClockCmd) for RCC_AHB1PeriphClockCmd
    led.o(i.LED_Init) refers to stm32f4xx_gpio.o(i.GPIO_Init) for GPIO_Init
    led.o(i.LED_Init) refers to stm32f4xx_gpio.o(i.GPIO_SetBits) for GPIO_SetBits
    lcd.o(i.LCD_Clear) refers to lcd.o(i.LCD_SetCursor) for LCD_SetCursor
    lcd.o(i.LCD_Clear) refers to lcd.o(i.LCD_WriteRAM_Prepare) for LCD_WriteRAM_Prepare
    lcd.o(i.LCD_Clear) refers to lcd.o(.bss) for .bss
    lcd.o(i.LCD_Color_Fill) refers to lcd.o(i.LCD_SetCursor) for LCD_SetCursor
    lcd.o(i.LCD_Color_Fill) refers to lcd.o(i.LCD_WriteRAM_Prepare) for LCD_WriteRAM_Prepare
    lcd.o(i.LCD_DisplayOff) refers to lcd.o(i.LCD_WR_REG) for LCD_WR_REG
    lcd.o(i.LCD_DisplayOff) refers to lcd.o(.bss) for .bss
    lcd.o(i.LCD_DisplayOn) refers to lcd.o(i.LCD_WR_REG) for LCD_WR_REG
    lcd.o(i.LCD_DisplayOn) refers to lcd.o(.bss) for .bss
==============================================================================

Removing Unused input sections from the image.

    Removing stm32f4xx_it.o(.rev16_text), (4 bytes).
    Removing stm32f4xx_it.o(.revsh_text), (4 bytes).
    Removing system_stm32f4xx.o(.rev16_text), (4 bytes).
    Removing system_stm32f4xx.o(.revsh_text), (4 bytes).
    Removing key.o(.rev16_text), (4 bytes).
    Removing key.o(.revsh_text), (4 bytes).
    Removing key.o(i.KEY_Init), (60 bytes).
    Removing key.o(i.KEY_Scan), (152 bytes).
    Removing key.o(.data), (1 bytes).
    Removing led.o(.rev16_text), (4 bytes).
    Removing led.o(.revsh_text), (4 bytes).
    Removing led.o(i.LED_Init), (64 bytes).
    Removing lcd.o(.rev16_text), (4 bytes).
    Removing lcd.o(.revsh_text), (4 bytes).
    Removing lcd.o(i.LCD_BGR2RGB), (18 bytes).
    Removing lcd.o(i.LCD_Color_Fill), (84 bytes).
    Removing lcd.o(i.LCD_DisplayOff), (32 bytes).
    Removing lcd.o(i.LCD_DisplayOn), (32 bytes).
==============================================================================

Adding Veneers to the image

    Adding TT veneer (10 bytes, Long) for call to 'tcp_init' from net.o(i.net_init).
    Adding TT veneer (10 bytes, Long) for call to 'tcp_abort' from tcp_state.o(i.tcp_close_wait_in).
    Adding TT veneer (10 bytes, Long) for call to 'tcp_rcv_window' from tcp_in.o(i.tcp_data_in).
    Adding TT veneer (10 bytes, Long) for call to 'tcp_find' from tcp_in.o(i.tcp_in).
    Adding TT veneer (10 bytes, Long) for call to 'tcp_keepalive_restart' from tcp_in.o(i.tcp_in).
    Adding TT veneer (10 bytes, Long) for call to 'tcp_backlog_count' from tcp_state.o(i.tcp_listen_in).
    Adding TT veneer (10 bytes, Long) for call to 'tcp_create_child' from tcp_state.o(i.tcp_listen_in).
    Adding TT veneer (10 bytes, Long) for call to 'tcp_keepalive_start' from tcp_state.o(i.tcp_syn_recvd_in).
    Adding TT veneer (10 bytes, Long) for call to 'tcp_kill_all_timers' from tcp_state.o(i.tcp_time_wait).
    Adding TT veneer (10 bytes, Long) for call to 'tcp_free' from tcp_state.o(i.tcp_time_wait_in).
    Adding TT veneer (10 bytes, Long) for call to 'net_timer_add' from tcp.o(i.keepalive_start_timer).
    Adding TT veneer (10 bytes, Long) for call to 'dbg_print' from tcp.o(i.keepalive_start_timer).
    Adding TT veneer (10 bytes, Long) for call to 'tcp_set_state' from tcp.o(i.tcp_abort).
    Adding TT veneer (10 bytes, Long) for call to 'sock_wakeup' from tcp.o(i.tcp_abort).
    Adding TT veneer (10 bytes, Long) for call to '__aeabi_memclr' from tcp.o(i.tcp_accept).
    Adding TT veneer (10 bytes, Long) for call to 'ipaddr_to_buf' from tcp.o(i.tcp_accept).
    Adding TT veneer (10 bytes, Long) for call to '__aeabi_memclr4' from tcp.o(i.tcp_alloc).
    Adding TT veneer (10 bytes, Long) for call to 'sock_init' from tcp.o(i.tcp_alloc).
    Adding TT veneer (10 bytes, Long) for call to 'mblock_free' from tcp.o(i.tcp_alloc).
    Adding TT veneer (10 bytes, Long) for call to 'sock_wait_init' from tcp.o(i.tcp_alloc).
    Adding TT veneer (10 bytes, Long) for call to 'ipaddr_from_buf' from tcp.o(i.tcp_bind).
    Adding TT veneer (10 bytes, Long) for call to 'ipaddr_is_any' from tcp.o(i.tcp_bind).
    Adding TT veneer (10 bytes, Long) for call to 'rt_find' from tcp.o(i.tcp_bind).
    Adding TT veneer (10 bytes, Long) for call to 'ipaddr_is_equal' from tcp.o(i.tcp_bind).
    Adding TT veneer (10 bytes, Long) for call to 'ipaddr_copy' from tcp.o(i.tcp_bind).
    Adding TT veneer (10 bytes, Long) for call to 'tcp_state_name' from tcp.o(i.tcp_close).
    Adding TT veneer (10 bytes, Long) for call to 'tcp_send_fin' from tcp.o(i.tcp_close).
    Adding TT veneer (10 bytes, Long) for call to 'tcp_send_syn' from tcp.o(i.tcp_connect).
    Adding TT veneer (10 bytes, Long) for call to 'tcp_read_options' from tcp.o(i.tcp_create_child).
    Adding TT veneer (10 bytes, Long) for call to 'sock_wait_destroy' from tcp.o(i.tcp_free).
    Adding TT veneer (10 bytes, Long) for call to 'nlist_remove' from tcp.o(i.tcp_free).
    Adding TT veneer (10 bytes, Long) for call to 'mblock_alloc' from tcp.o(i.tcp_get_free).
    Adding TT veneer (10 bytes, Long) for call to 'mblock_init' from tcp.o(i.tcp_init).
    Adding TT veneer (10 bytes, Long) for call to 'nlist_init' from tcp.o(i.tcp_init).
    Adding TT veneer (10 bytes, Long) for call to 'tcp_buf_init' from tcp.o(i.tcp_init_connect).
    Adding TT veneer (10 bytes, Long) for call to 'nlist_insert_last' from tcp.o(i.tcp_insert).
    Adding TT veneer (10 bytes, Long) for call to 'net_timer_remove' from tcp.o(i.tcp_keepalive_restart).
    Adding TT veneer (10 bytes, Long) for call to 'tcp_send_keepalive' from tcp.o(i.tcp_keepalive_tmo).
    Adding TT veneer (10 bytes, Long) for call to 'tcp_send_reset_for_tcp' from tcp.o(i.tcp_keepalive_tmo).
    Adding TT veneer (10 bytes, Long) for call to 'tcp_buf_read_rcv' from tcp.o(i.tcp_recv).
    Adding TT veneer (10 bytes, Long) for call to 'tcp_send_win_update' from tcp.o(i.tcp_recv).
    Adding TT veneer (10 bytes, Long) for call to 'tcp_write_sndbuf' from tcp.o(i.tcp_send).
    Adding TT veneer (10 bytes, Long) for call to 'tcp_out_event' from tcp.o(i.tcp_send).
    Adding TT veneer (10 bytes, Long) for call to 'sock_setopt' from tcp.o(i.tcp_setopt).

44 Veneer(s) (total 440 bytes) added to the image.

==============================================================================

Image Symbol Table

    Local Symbols

    Symbol Name                              Value     Ov Type        Size  Object(Section)

    ../clib/angel/boardlib.s                 0x00000000   Number         0  boardinit2.o ABSOLUTE
    ../clib/angel/boardlib.s                 0x00000000   Number         0  boardinit3.o ABSOLUTE
    ../clib/angel/boardlib.s                 0x00000000   Number         0  boardshut.o ABSOLUTE
    ../clib/angel/boardlib.s                 0x00000000   Number         0  boardinit1.o ABSOLUTE
    ../clib/angel/dczerorl2.s                0x00000000   Number         0  __dczerorl2.o ABSOLUTE
    ../clib/angel/handlers.s                 0x00000000   Number         0  __scatter_copy.o ABSOLUTE
    ../clib/angel/handlers.s                 0x00000000   Number         0  __scatter_zi.o ABSOLUTE
    ../clib/angel/kernel.s                   0x00000000   Number         0  rtexit2.o ABSOLUTE
    ../clib/angel/kernel.s                   0x00000000   Number         0  rtexit.o ABSOLUTE
    ../clib/angel/kernel.s                   0x00000000   Number         0  __rtentry.o ABSOLUTE
    ../clib/angel/kernel.s                   0x00000000   Number         0  __rtentry4.o ABSOLUTE
    ../clib/angel/kernel.s                   0x00000000   Number         0  __rtentry2.o ABSOLUTE
    ../clib/angel/rt.s                       0x00000000   Number         0  rt_raise.o ABSOLUTE
    ../clib/angel/rt.s                       0x00000000   Number         0  rt_div0.o ABSOLUTE
    ../clib/angel/rt.s                       0x00000000   Number         0  rt_ctype_table.o ABSOLUTE
    ../clib/angel/rt.s                       0x00000000   Number         0  aeabi_ldiv0.o ABSOLUTE
    ../clib/angel/rt.s                       0x00000000   Number         0  rt_errno_addr_intlibspace.o ABSOLUTE
    ../clib/angel/rt.s                       0x00000000   Number         0  rt_locale_intlibspace.o ABSOLUTE
    ../clib/angel/rt.s                       0x00000000   Number         0  aeabi_ldiv0_sigfpe.o ABSOLUTE
    ../clib/angel/rt.s                       0x00000000   Number         0  rt_locale.o ABSOLUTE
    ../clib/angel/rt.s                       0x00000000   Number         0  rt_errno_addr.o ABSOLUTE
    ../clib/angel/rt.s                       0x00000000   Number         0  rt_heap_descriptor_intlibspace.o ABSOLUTE
    ../clib/angel/rt.s                       0x00000000   Number         0  rt_heap_descriptor.o ABSOLUTE
    ../clib/angel/scatter.s                  0x00000000   Number         0  __scatter.o ABSOLUTE
    ../clib/angel/startup.s                  0x00000000   Number         0  __main.o ABSOLUTE
    ../clib/angel/sys.s                      0x00000000   Number         0  sys_stackheap_outer.o ABSOLUTE
    ../clib/angel/sys.s                      0x00000000   Number         0  indicate_semi.o ABSOLUTE
    ../clib/angel/sys.s                      0x00000000   Number         0  use_no_semi.o ABSOLUTE
    ../clib/angel/sys.s                      0x00000000   Number         0  libspace.o ABSOLUTE
    ../clib/angel/sysapp.c                   0x00000000   Number         0  sys_command.o ABSOLUTE
    ../clib/armsys.c                         0x00000000   Number         0  _get_argv_nomalloc.o ABSOLUTE
    ../clib/armsys.c                         0x00000000   Number         0  argv_veneer.o ABSOLUTE
    ../clib/armsys.c                         0x00000000   Number         0  _get_argv.o ABSOLUTE
    ../clib/armsys.c                         0x00000000   Number         0  argv_veneer.o ABSOLUTE
    ../clib/armsys.c                         0x00000000   Number         0  no_argv.o ABSOLUTE
    ../clib/assert.c                         0x00000000   Number         0  assert_stdio.o ABSOLUTE
    ../clib/bigflt.c                         0x00000000   Number         0  bigflt0.o ABSOLUTE
    ../clib/btod.s                           0x00000000   Number         0  btod.o ABSOLUTE
    ../clib/ctype.c                          0x00000000   Number         0  isspace.o ABSOLUTE
    ../clib/ctype.c                          0x00000000   Number         0  isprint.o ABSOLUTE
    ../clib/ctype.c                          0x00000000   Number         0  tolower.o ABSOLUTE
    ../clib/fenv.c                           0x00000000   Number         0  _rserrno.o ABSOLUTE
    ../clib/heap1.c                          0x00000000   Number         0  h1_free.o ABSOLUTE
    ../clib/heap1.c                          0x00000000   Number         0  h1_final.o ABSOLUTE
    ../clib/heap1.c                          0x00000000   Number         0  h1_final_mt.o ABSOLUTE
    ../clib/heap1.c                          0x00000000   Number         0  h1_free_mt.o ABSOLUTE
    ../clib/heap1.c                          0x00000000   Number         0  h1_alloc_mt.o ABSOLUTE
    ../clib/heap1.c                          0x00000000   Number         0  h1_extend_mt.o ABSOLUTE
    ../clib/heap1.c                          0x00000000   Number         0  h1_extend.o ABSOLUTE
    ../clib/heap1.c                          0x00000000   Number         0  h1_init.o ABSOLUTE
    ../clib/heap1.c                          0x00000000   Number         0  h1_init_mt.o ABSOLUTE
    ../clib/heap1.c                          0x00000000   Number         0  h1_alloc.o ABSOLUTE
    ../clib/heap2.c                          0x00000000   Number         0  heap2.o ABSOLUTE
    ../clib/heap2.c                          0x00000000   Number         0  fdtree.o ABSOLUTE
    ../clib/heap2.c                          0x00000000   Number         0  heap2mt.o ABSOLUTE
    ../clib/heapalloc.c                      0x00000000   Number         0  maybetermalloc1.o ABSOLUTE
    ../clib/heapalloc.c                      0x00000000   Number         0  maybetermalloc1.o ABSOLUTE
    ../clib/heapalloc.c                      0x00000000   Number         0  hrguard.o ABSOLUTE
    ../clib/heapalloc.c                      0x00000000   Number         0  free.o ABSOLUTE
    ../clib/heapalloc.c                      0x00000000   Number         0  hguard.o ABSOLUTE
    ../clib/heapalloc.c                      0x00000000   Number         0  heapstubs.o ABSOLUTE
    ../clib/heapalloc.c                      0x00000000   Number         0  init_alloc.o ABSOLUTE
    ../clib/heapalloc.c                      0x00000000   Number         0  term_alloc.o ABSOLUTE
    ../clib/heapalloc.c                      0x00000000   Number         0  malloc.o ABSOLUTE
    ../clib/heapalloc.c                      0x00000000   Number         0  maybetermalloc2.o ABSOLUTE
    ../clib/heapalloc.c                      0x00000000   Number         0  maybetermalloc2.o ABSOLUTE
    ../clib/heapaux.c                        0x00000000   Number         0  heapauxa.o ABSOLUTE
    ../clib/heapaux.c                        0x00000000   Number         0  heapauxi.o ABSOLUTE
    ../clib/libinit.s                        0x00000000   Number         0  libshutdown2.o ABSOLUTE
    ../clib/libinit.s                        0x00000000   Number         0  libinit.o ABSOLUTE
    ../clib/libinit.s                        0x00000000   Number         0  libshutdown.o ABSOLUTE
    ../clib/libinit.s                        0x00000000   Number         0  libinit2.o ABSOLUTE
    ../clib/locale.c                         0x00000000   Number         0  _wcrtomb.o ABSOLUTE
    ../clib/locale.c                         0x00000000   Number         0  _mbrtowc.o ABSOLUTE
    ../clib/locale.s                         0x00000000   Number         0  lc_numeric_c.o ABSOLUTE
    ../clib/locale.s                         0x00000000   Number         0  lc_ctype_c.o ABSOLUTE
    ../clib/longlong.s                       0x00000000   Number         0  llshl.o ABSOLUTE
    ../clib/longlong.s                       0x00000000   Number         0  lludivv7m.o ABSOLUTE
    ../clib/longlong.s                       0x00000000   Number         0  llsdiv.o ABSOLUTE
    ../clib/longlong.s                       0x00000000   Number         0  lludiv10.o ABSOLUTE
    ../clib/memcpset.s                       0x00000000   Number         0  rt_memclr.o ABSOLUTE
    ../clib/memcpset.s                       0x00000000   Number         0  strcmpv7m.o ABSOLUTE
    ../clib/memcpset.s                       0x00000000   Number         0  strncpy.o ABSOLUTE
    ../clib/memcpset.s                       0x00000000   Number         0  rt_memclr_w.o ABSOLUTE
    ../clib/memcpset.s                       0x00000000   Number         0  rt_memcpy_w.o ABSOLUTE
    ../clib/memcpset.s                       0x00000000   Number         0  aeabi_memset.o ABSOLUTE
    ../clib/memcpset.s                       0x00000000   Number         0  rt_memcpy_v6.o ABSOLUTE
    ../clib/misc.s                           0x00000000   Number         0  printf_stubs.o ABSOLUTE
    ../clib/printf.c                         0x00000000   Number         0  _printf_oct_int.o ABSOLUTE
    ../clib/printf.c                         0x00000000   Number         0  noretval__2printf.o ABSOLUTE
    ../clib/printf.c                         0x00000000   Number         0  _printf_fp_hex.o ABSOLUTE
    ../clib/printf.c                         0x00000000   Number         0  _printf_fp_dec.o ABSOLUTE
    ../clib/printf.c                         0x00000000   Number         0  _printf_oct_int_ll.o ABSOLUTE
    ../clib/printf.c                         0x00000000   Number         0  noretval__2sprintf.o ABSOLUTE
    ../clib/printf.c                         0x00000000   Number         0  noretval__2snprintf.o ABSOLUTE
    ../clib/printf.c                         0x00000000   Number         0  __printf.o ABSOLUTE
    ../clib/printf.c                         0x00000000   Number         0  _printf_pad.o ABSOLUTE
    ../clib/printf.c                         0x00000000   Number         0  _printf_str.o ABSOLUTE
    ../clib/printf.c                         0x00000000   Number         0  _printf_fp_infnan.o ABSOLUTE
    ../clib/printf.c                         0x00000000   Number         0  _printf_hex_ll.o ABSOLUTE
    ../clib/printf.c                         0x00000000   Number         0  _printf_hex_int.o ABSOLUTE
    ../clib/printf.c                         0x00000000   Number         0  _printf_hex_int_ll.o ABSOLUTE
    ../clib/printf.c                         0x00000000   Number         0  _printf_hex_ptr.o ABSOLUTE
    ../clib/printf.c                         0x00000000   Number         0  _printf_hex_int_ptr.o ABSOLUTE
    ../clib/printf.c                         0x00000000   Number         0  _printf_hex_ll_ptr.o ABSOLUTE
    ../clib/printf.c                         0x00000000   Number         0  _printf_hex_int_ll_ptr.o ABSOLUTE
    ../clib/printf.c                         0x00000000   Number         0  __printf_flags.o ABSOLUTE
    ../clib/printf.c                         0x00000000   Number         0  __printf_ss.o ABSOLUTE
    ../clib/printf.c                         0x00000000   Number         0  __printf_flags_ss.o ABSOLUTE
    ../clib/printf.c                         0x00000000   Number         0  __printf_wp.o ABSOLUTE
    ../clib/printf.c                         0x00000000   Number         0  __printf_flags_wp.o ABSOLUTE
    ../clib/printf.c                         0x00000000   Number         0  __printf_ss_wp.o ABSOLUTE
    ../clib/printf.c                         0x00000000   Number         0  __printf_flags_ss_wp.o ABSOLUTE
    ../clib/printf.c                         0x00000000   Number         0  _printf_char_common.o ABSOLUTE
    ../clib/printf.c                         0x00000000   Number         0  _printf_charcount.o ABSOLUTE
    ../clib/printf.c                         0x00000000   Number         0  _printf_intcommon.o ABSOLUTE
    ../clib/printf.c                         0x00000000   Number         0  _printf_truncate.o ABSOLUTE
    ../clib/printf.c                         0x00000000   Number         0  _sputc.o ABSOLUTE
    ../clib/printf.c                         0x00000000   Number         0  _snputc.o ABSOLUTE
    ../clib/printf.c                         0x00000000   Number         0  _printf_char.o ABSOLUTE
    ../clib/printf.c                         0x00000000   Number         0  _printf_char_file.o ABSOLUTE
    ../clib/printf.c                         0x00000000   Number         0  _printf_wctomb.o ABSOLUTE
    ../clib/printf.c                         0x00000000   Number         0  _printf_dec.o ABSOLUTE
    ../clib/printf.c                         0x00000000   Number         0  _printf_longlong_dec.o ABSOLUTE
    ../clib/printf.c                         0x00000000   Number         0  _printf_oct_ll.o ABSOLUTE
    ../clib/printf.c                         0x00000000   Number         0  vsprintf.o ABSOLUTE
    ../clib/printf.c                         0x00000000   Number         0  __2printf.o ABSOLUTE
    ../clib/printf.c                         0x00000000   Number         0  __2sprintf.o ABSOLUTE
    ../clib/printf.c                         0x00000000   Number         0  __2snprintf.o ABSOLUTE
    ../clib/printf.c                         0x00000000   Number         0  _printf_wchar.o ABSOLUTE
    ../clib/printf.c                         0x00000000   Number         0  __printf_nopercent.o ABSOLUTE
    ../clib/printf.c                         0x00000000   Number         0  _printf_char_file_locked.o ABSOLUTE
    ../clib/printf_percent.s                 0x00000000   Number         0  _printf_s.o ABSOLUTE
    ../clib/printf_percent.s                 0x00000000   Number         0  _printf_l.o ABSOLUTE
    ../clib/printf_percent.s                 0x00000000   Number         0  _printf_ll.o ABSOLUTE
    ../clib/printf_percent.s                 0x00000000   Number         0  _printf_p.o ABSOLUTE
    ../clib/printf_percent.s                 0x00000000   Number         0  _printf_llu.o ABSOLUTE
    ../clib/printf_percent.s                 0x00000000   Number         0  _printf_a.o ABSOLUTE
    ../clib/printf_percent.s                 0x00000000   Number         0  _printf_x.o ABSOLUTE
    ../clib/printf_percent.s                 0x00000000   Number         0  _printf_f.o ABSOLUTE
    ../clib/printf_percent.s                 0x00000000   Number         0  _printf_percent.o ABSOLUTE
    ../clib/printf_percent.s                 0x00000000   Number         0  _printf_lld.o ABSOLUTE
    ../clib/printf_percent.s                 0x00000000   Number         0  _printf_e.o ABSOLUTE
    ../clib/printf_percent.s                 0x00000000   Number         0  _printf_lli.o ABSOLUTE
    ../clib/printf_percent.s                 0x00000000   Number         0  _printf_n.o ABSOLUTE
    ../clib/printf_percent.s                 0x00000000   Number         0  _printf_u.o ABSOLUTE
    ../clib/printf_percent.s                 0x00000000   Number         0  _printf_llx.o ABSOLUTE
    ../clib/printf_percent.s                 0x00000000   Number         0  _printf_o.o ABSOLUTE
    ../clib/printf_percent.s                 0x00000000   Number         0  _printf_d.o ABSOLUTE
    ../clib/printf_percent.s                 0x00000000   Number         0  _printf_llo.o ABSOLUTE
    ../clib/printf_percent.s                 0x00000000   Number         0  _printf_ls.o ABSOLUTE
    ../clib/printf_percent.s                 0x00000000   Number         0  _printf_g.o ABSOLUTE
    ../clib/printf_percent.s                 0x00000000   Number         0  _printf_lc.o ABSOLUTE
    ../clib/printf_percent.s                 0x00000000   Number         0  _printf_c.o ABSOLUTE
    ../clib/printf_percent.s                 0x00000000   Number         0  _printf_percent_end.o ABSOLUTE
    ../clib/printf_percent.s                 0x00000000   Number         0  _printf_i.o ABSOLUTE
    ../clib/scanf.c                          0x00000000   Number         0  scanf_char_file.o ABSOLUTE
    ../clib/scanf.c                          0x00000000   Number         0  strtol.o ABSOLUTE
    ../clib/scanf.c                          0x00000000   Number         0  _scanf_wstr.o ABSOLUTE
    ../clib/scanf.c                          0x00000000   Number         0  _chval.o ABSOLUTE
    ../clib/scanf.c                          0x00000000   Number         0  scanf_infnan.o ABSOLUTE
    ../clib/scanf.c                          0x00000000   Number         0  scanf_hexfp.o ABSOLUTE
    ../clib/scanf.c                          0x00000000   Number         0  _scanf_wctomb.o ABSOLUTE
    ../clib/scanf.c                          0x00000000   Number         0  sscanf.o ABSOLUTE
    ../clib/scanf.c                          0x00000000   Number         0  __0scanf.o ABSOLUTE
    ../clib/scanf.c                          0x00000000   Number         0  _scanf_str.o ABSOLUTE
    ../clib/scanf.c                          0x00000000   Number         0  _scanf.o ABSOLUTE
    ../clib/scanf.c                          0x00000000   Number         0  scanf_fp.o ABSOLUTE
    ../clib/scanf.c                          0x00000000   Number         0  _strtoul.o ABSOLUTE
    ../clib/scanf.c                          0x00000000   Number         0  _scanf_wcharmap.o ABSOLUTE
    ../clib/scanf.c                          0x00000000   Number         0  _scanf_int.o ABSOLUTE
    ../clib/scanf.c                          0x00000000   Number         0  scanf_char.o ABSOLUTE
    ../clib/scanf.c                          0x00000000   Number         0  atoi.o ABSOLUTE
    ../clib/scanf.c                          0x00000000   Number         0  _scanf_longlong.o ABSOLUTE
    ../clib/scanf.c                          0x00000000   Number         0  _scanf_mbtowc.o ABSOLUTE
    ../clib/scanf.c                          0x00000000   Number         0  scanf_char_file_locked.o ABSOLUTE
    ../clib/scanf.c                          0x00000000   Number         0  _sgetc.o ABSOLUTE
    ../clib/signal.c                         0x00000000   Number         0  defsig_segv_inner.o ABSOLUTE
    ../clib/signal.c                         0x00000000   Number         0  defsig_cppl_inner.o ABSOLUTE
    ../clib/signal.c                         0x00000000   Number         0  defsig_pvfn_inner.o ABSOLUTE
    ../clib/signal.c                         0x00000000   Number         0  defsig_abrt_inner.o ABSOLUTE
    ../clib/signal.c                         0x00000000   Number         0  defsig_fpe_inner.o ABSOLUTE
    ../clib/signal.c                         0x00000000   Number         0  defsig_stak_inner.o ABSOLUTE
    ../clib/signal.c                         0x00000000   Number         0  defsig_rtmem_outer.o ABSOLUTE
    ../clib/signal.c                         0x00000000   Number         0  defsig_rtred_outer.o ABSOLUTE
    ../clib/signal.c                         0x00000000   Number         0  defsig_fpe_outer.o ABSOLUTE
    ../clib/signal.c                         0x00000000   Number         0  defsig_rtmem_inner.o ABSOLUTE
    ../clib/signal.c                         0x00000000   Number         0  defsig_rtred_inner.o ABSOLUTE
    ../clib/signal.c                         0x00000000   Number         0  defsig_exit.o ABSOLUTE
    ../clib/signal.c                         0x00000000   Number         0  defsig_general.o ABSOLUTE
    ../clib/signal.c                         0x00000000   Number         0  __raise.o ABSOLUTE
    ../clib/signal.c                         0x00000000   Number         0  defsig_rtred_formal.o ABSOLUTE
    ../clib/signal.c                         0x00000000   Number         0  defsig_rtmem_formal.o ABSOLUTE
    ../clib/signal.c                         0x00000000   Number         0  defsig_other.o ABSOLUTE
    ../clib/signal.c                         0x00000000   Number         0  defsig_fpe_formal.o ABSOLUTE
    ../clib/signal.s                         0x00000000   Number         0  defsig.o ABSOLUTE
    ../clib/stdio.c                          0x00000000   Number         0  fclose.o ABSOLUTE
    ../clib/stdio.c                          0x00000000   Number         0  ftell_locked.o ABSOLUTE
    ../clib/stdio.c                          0x00000000   Number         0  fclose_locked.o ABSOLUTE
    ../clib/stdio.c                          0x00000000   Number         0  fseek_locked.o ABSOLUTE
    ../clib/stdio.c                          0x00000000   Number         0  feof_locked.o ABSOLUTE
    ../clib/stdio.c                          0x00000000   Number         0  fflush_locked.o ABSOLUTE
    ../clib/stdio.c                          0x00000000   Number         0  fopen_locked.o ABSOLUTE
    ../clib/stdio.c                          0x00000000   Number         0  setvbuf_locked.o ABSOLUTE
    ../clib/stdio.c                          0x00000000   Number         0  backspace_locked.o ABSOLUTE
    ../clib/stdio.c                          0x00000000   Number         0  setvbuf.o ABSOLUTE
    ../clib/stdio.c                          0x00000000   Number         0  flsbuf.o ABSOLUTE
    ../clib/stdio.c                          0x00000000   Number         0  fputs_locked.o ABSOLUTE
    ../clib/stdio.c                          0x00000000   Number         0  fputs.o ABSOLUTE
    ../clib/stdio.c                          0x00000000   Number         0  filbuf.o ABSOLUTE
    ../clib/stdio.c                          0x00000000   Number         0  backspace.o ABSOLUTE
    ../clib/stdio.c                          0x00000000   Number         0  ferror_locked.o ABSOLUTE
    ../clib/stdio.c                          0x00000000   Number         0  initio_locked.o ABSOLUTE
    ../clib/stdio.c                          0x00000000   Number         0  fputc_locked.o ABSOLUTE
    ../clib/stdio.c                          0x00000000   Number         0  initio.o ABSOLUTE
    ../clib/stdio.c                          0x00000000   Number         0  streamlock.o ABSOLUTE
    ../clib/stdio.c                          0x00000000   Number         0  stdio.o ABSOLUTE
    ../clib/stdio.c                          0x00000000   Number         0  fputc.o ABSOLUTE
    ../clib/stdio.c                          0x00000000   Number         0  fgetc.o ABSOLUTE
    ../clib/stdio.c                          0x00000000   Number         0  ferror.o ABSOLUTE
    ../clib/stdio.c                          0x00000000   Number         0  fgetc_locked.o ABSOLUTE
    ../clib/stdio.c                          0x00000000   Number         0  feof.o ABSOLUTE
    ../clib/stdio.c                          0x00000000   Number         0  fflush.o ABSOLUTE
    ../clib/stdio.c                          0x00000000   Number         0  fgets.o ABSOLUTE
    ../clib/stdio.c                          0x00000000   Number         0  fread.o ABSOLUTE
    ../clib/stdio.c                          0x00000000   Number         0  fseek.o ABSOLUTE
    ../clib/stdio.c                          0x00000000   Number         0  flushlinebuffered_locked.o ABSOLUTE
    ../clib/stdio.c                          0x00000000   Number         0  fwritefast_locked.o ABSOLUTE
    ../clib/stdio.c                          0x00000000   Number         0  fread_bytes_avail_locked.o ABSOLUTE
    ../clib/stdio.c                          0x00000000   Number         0  freadfast_locked.o ABSOLUTE
    ../clib/stdio.c                          0x00000000   Number         0  puts_locked.o ABSOLUTE
    ../clib/stdio.c                          0x00000000   Number         0  fgets_locked.o ABSOLUTE
    ../clib/stdio.c                          0x00000000   Number         0  flushlinebuffered.o ABSOLUTE
    ../clib/stdio.c                          0x00000000   Number         0  fwritefast.o ABSOLUTE
    ../clib/stdio.c                          0x00000000   Number         0  fread_bytes_avail.o ABSOLUTE
    ../clib/stdio.c                          0x00000000   Number         0  freadfast.o ABSOLUTE
    ../clib/stdio.c                          0x00000000   Number         0  ungetc.o ABSOLUTE
    ../clib/stdio.c                          0x00000000   Number         0  ftell.o ABSOLUTE
    ../clib/stdio.c                          0x00000000   Number         0  fwrite.o ABSOLUTE
    ../clib/stdio.c                          0x00000000   Number         0  puts.o ABSOLUTE
    ../clib/stdio.c                          0x00000000   Number         0  fopen.o ABSOLUTE
    ../clib/stdio.c                          0x00000000   Number         0  stdio_streams.o ABSOLUTE
    ../clib/stdlib.c                         0x00000000   Number         0  exit.o ABSOLUTE
    ../clib/string.c                         0x00000000   Number         0  strlen.o ABSOLUTE
    ../clib/string.c                         0x00000000   Number         0  strtok.o ABSOLUTE
    ../clib/string.c                         0x00000000   Number         0  strtok_int.o ABSOLUTE
    ../clib/string.c                         0x00000000   Number         0  strcspn.o ABSOLUTE
    ../clib/string.c                         0x00000000   Number         0  strchr.o ABSOLUTE
    ../clib/string.c                         0x00000000   Number         0  strstr.o ABSOLUTE
    ../clib/string.c                         0x00000000   Number         0  strspn.o ABSOLUTE
    ../clib/string.c                         0x00000000   Number         0  memcmp.o ABSOLUTE
    ../clib/string.c                         0x00000000   Number         0  strcpy.o ABSOLUTE
    ../clib/string.c                         0x00000000   Number         0  strncasecmp.o ABSOLUTE
    ../clib/time.c                           0x00000000   Number         0  localtime.o ABSOLUTE
    ../clib/time.c                           0x00000000   Number         0  _monlen.o ABSOLUTE
    ../clib/time.c                           0x00000000   Number         0  localtime_internal.o ABSOLUTE
    ../clib/wchar.c                          0x00000000   Number         0  filbuf_fwide.o ABSOLUTE
    ../clib/wchar.c                          0x00000000   Number         0  flsbuf_fwide.o ABSOLUTE
    ../fplib/d2f.s                           0x00000000   Number         0  d2f.o ABSOLUTE
    ../fplib/daddsub.s                       0x00000000   Number         0  daddsub_clz.o ABSOLUTE
    ../fplib/dcheck1.s                       0x00000000   Number         0  dcheck1.o ABSOLUTE
    ../fplib/dcmpi.s                         0x00000000   Number         0  dcmpi.o ABSOLUTE
    ../fplib/ddiv.s                          0x00000000   Number         0  ddiv.o ABSOLUTE
    ../fplib/deqf.s                          0x00000000   Number         0  deqf.o ABSOLUTE
    ../fplib/dfix.s                          0x00000000   Number         0  dfix.o ABSOLUTE
    ../fplib/dfixu.s                         0x00000000   Number         0  dfixu.o ABSOLUTE
    ../fplib/dflt.s                          0x00000000   Number         0  dflt_clz.o ABSOLUTE
    ../fplib/dleqf.s                         0x00000000   Number         0  dleqf.o ABSOLUTE
    ../fplib/dmul.s                          0x00000000   Number         0  dmul.o ABSOLUTE
    ../fplib/dnaninf.s                       0x00000000   Number         0  dnaninf.o ABSOLUTE
    ../fplib/dretinf.s                       0x00000000   Number         0  dretinf.o ABSOLUTE
    ../fplib/drleqf.s                        0x00000000   Number         0  drleqf.o ABSOLUTE
    ../fplib/f2d.s                           0x00000000   Number         0  f2d.o ABSOLUTE
    ../fplib/fflt.s                          0x00000000   Number         0  fflt_clz.o ABSOLUTE
    ../fplib/fnaninf.s                       0x00000000   Number         0  fnaninf.o ABSOLUTE
    ../fplib/fpconst.s                       0x00000000   Number         0  fpconst.o ABSOLUTE
    ../fplib/fpinit.s                        0x00000000   Number         0  fpinit.o ABSOLUTE
    ../fplib/fretinf.s                       0x00000000   Number         0  fretinf.o ABSOLUTE
    ../fplib/istatus.s                       0x00000000   Number         0  istatus.o ABSOLUTE
    ../fplib/printf1.s                       0x00000000   Number         0  printf1.o ABSOLUTE
    ../fplib/printf2.s                       0x00000000   Number         0  printf2.o ABSOLUTE
    ../fplib/printf2a.s                      0x00000000   Number         0  printf2a.o ABSOLUTE
    ../fplib/printf2b.s                      0x00000000   Number         0  printf2b.o ABSOLUTE
    ../fplib/retnan.s                        0x00000000   Number         0  retnan.o ABSOLUTE
    ../fplib/scalbn.s                        0x00000000   Number         0  scalbn.o ABSOLUTE
    ../fplib/scanf1.s                        0x00000000   Number         0  scanf1.o ABSOLUTE
    ../fplib/scanf2.s                        0x00000000   Number         0  scanf2.o ABSOLUTE
    ../fplib/scanf2a.s                       0x00000000   Number         0  scanf2a.o ABSOLUTE
    ../fplib/scanf2b.s                       0x00000000   Number         0  scanf2b.o ABSOLUTE
    ../fplib/trapv.s                         0x00000000   Number         0  trapv.o ABSOLUTE
    ../fplib/usenofp.s                       0x00000000   Number         0  usenofp.o ABSOLUTE
    ../mathlib/dunder.c                      0x00000000   Number         0  dunder.o ABSOLUTE
    ../mathlib/fpclassify.c                  0x00000000   Number         0  fpclassify.o ABSOLUTE
    ../mathlib/frexp.c                       0x00000000   Number         0  frexp.o ABSOLUTE
    ../mathlib/ldexp.c                       0x00000000   Number         0  ldexp_x.o ABSOLUTE
    ../mathlib/ldexp.c                       0x00000000   Number         0  ldexp.o ABSOLUTE
    ../mathlib/narrow.c                      0x00000000   Number         0  narrow.o ABSOLUTE
    ../mathlib/qnan.c                        0x00000000   Number         0  qnan.o ABSOLUTE
    ..\CORE\startup_stm32f40_41xxx.s         0x00000000   Number         0  startup_stm32f40_41xxx.o ABSOLUTE
    ..\FATFS\src\diskio.c                    0x00000000   Number         0  diskio.o ABSOLUTE
    ..\FATFS\src\ff.c                        0x00000000   Number         0  ff.o ABSOLUTE
    ..\FATFS\src\ff_system.c                 0x00000000   Number         0  ff_system.o ABSOLUTE
    ..\FATFS\src\option\cc936.c              0x00000000   Number         0  cc936.o ABSOLUTE
    ..\FWLIB\STM32F4x7_ETH_Driver\src\stm32f4x7_eth.c 0x00000000   Number         0  stm32f4x7_eth.o ABSOLUTE
    ..\FWLIB\STM32F4xx_StdPeriph_Driver\src\misc.c 0x00000000   Number         0  misc.o ABSOLUTE
    ..\FWLIB\STM32F4xx_StdPeriph_Driver\src\stm32f4xx_adc.c 0x00000000   Number         0  stm32f4xx_adc.o ABSOLUTE
    ..\FWLIB\STM32F4xx_StdPeriph_Driver\src\stm32f4xx_can.c 0x00000000   Number         0  stm32f4xx_can.o ABSOLUTE
    ..\FWLIB\STM32F4xx_StdPeriph_Driver\src\stm32f4xx_crc.c 0x00000000   Number         0  stm32f4xx_crc.o ABSOLUTE
    ..\FWLIB\STM32F4xx_StdPeriph_Driver\src\stm32f4xx_cryp.c 0x00000000   Number         0  stm32f4xx_cryp.o ABSOLUTE
    ..\FWLIB\STM32F4xx_StdPeriph_Driver\src\stm32f4xx_cryp_aes.c 0x00000000   Number         0  stm32f4xx_cryp_aes.o ABSOLUTE
    ..\FWLIB\STM32F4xx_StdPeriph_Driver\src\stm32f4xx_cryp_des.c 0x00000000   Number         0  stm32f4xx_cryp_des.o ABSOLUTE
    ..\FWLIB\STM32F4xx_StdPeriph_Driver\src\stm32f4xx_cryp_tdes.c 0x00000000   Number         0  stm32f4xx_cryp_tdes.o ABSOLUTE
    ..\FWLIB\STM32F4xx_StdPeriph_Driver\src\stm32f4xx_dac.c 0x00000000   Number         0  stm32f4xx_dac.o ABSOLUTE
    ..\FWLIB\STM32F4xx_StdPeriph_Driver\src\stm32f4xx_dbgmcu.c 0x00000000   Number         0  stm32f4xx_dbgmcu.o ABSOLUTE
    ..\FWLIB\STM32F4xx_StdPeriph_Driver\src\stm32f4xx_dcmi.c 0x00000000   Number         0  stm32f4xx_dcmi.o ABSOLUTE
    ..\FWLIB\STM32F4xx_StdPeriph_Driver\src\stm32f4xx_dma.c 0x00000000   Number         0  stm32f4xx_dma.o ABSOLUTE
    ..\FWLIB\STM32F4xx_StdPeriph_Driver\src\stm32f4xx_dma2d.c 0x00000000   Number         0  stm32f4xx_dma2d.o ABSOLUTE
    ..\FWLIB\STM32F4xx_StdPeriph_Driver\src\stm32f4xx_exti.c 0x00000000   Number         0  stm32f4xx_exti.o ABSOLUTE
    ..\FWLIB\STM32F4xx_StdPeriph_Driver\src\stm32f4xx_flash.c 0x00000000   Number         0  stm32f4xx_flash.o ABSOLUTE
    ..\FWLIB\STM32F4xx_StdPeriph_Driver\src\stm32f4xx_flash_ramfunc.c 0x00000000   Number         0  stm32f4xx_flash_ramfunc.o ABSOLUTE
    ..\FWLIB\STM32F4xx_StdPeriph_Driver\src\stm32f4xx_fsmc.c 0x00000000   Number         0  stm32f4xx_fsmc.o ABSOLUTE
    ..\FWLIB\STM32F4xx_StdPeriph_Driver\src\stm32f4xx_gpio.c 0x00000000   Number         0  stm32f4xx_gpio.o ABSOLUTE
    ..\FWLIB\STM32F4xx_StdPeriph_Driver\src\stm32f4xx_hash.c 0x00000000   Number         0  stm32f4xx_hash.o ABSOLUTE
    ..\FWLIB\STM32F4xx_StdPeriph_Driver\src\stm32f4xx_hash_md5.c 0x00000000   Number         0  stm32f4xx_hash_md5.o ABSOLUTE
    ..\FWLIB\STM32F4xx_StdPeriph_Driver\src\stm32f4xx_hash_sha1.c 0x00000000   Number         0  stm32f4xx_hash_sha1.o ABSOLUTE
    ..\FWLIB\STM32F4xx_StdPeriph_Driver\src\stm32f4xx_i2c.c 0x00000000   Number         0  stm32f4xx_i2c.o ABSOLUTE
    ..\FWLIB\STM32F4xx_StdPeriph_Driver\src\stm32f4xx_iwdg.c 0x00000000   Number         0  stm32f4xx_iwdg.o ABSOLUTE
    ..\FWLIB\STM32F4xx_StdPeriph_Driver\src\stm32f4xx_ltdc.c 0x00000000   Number         0  stm32f4xx_ltdc.o ABSOLUTE
    ..\FWLIB\STM32F4xx_StdPeriph_Driver\src\stm32f4xx_pwr.c 0x00000000   Number         0  stm32f4xx_pwr.o ABSOLUTE
    ..\FWLIB\STM32F4xx_StdPeriph_Driver\src\stm32f4xx_rcc.c 0x00000000   Number         0  stm32f4xx_rcc.o ABSOLUTE
    ..\FWLIB\STM32F4xx_StdPeriph_Driver\src\stm32f4xx_rng.c 0x00000000   Number         0  stm32f4xx_rng.o ABSOLUTE
    ..\FWLIB\STM32F4xx_StdPeriph_Driver\src\stm32f4xx_rtc.c 0x00000000   Number         0  stm32f4xx_rtc.o ABSOLUTE
    ..\FWLIB\STM32F4xx_StdPeriph_Driver\src\stm32f4xx_sai.c 0x00000000   Number         0  stm32f4xx_sai.o ABSOLUTE
    ..\FWLIB\STM32F4xx_StdPeriph_Driver\src\stm32f4xx_sdio.c 0x00000000   Number         0  stm32f4xx_sdio.o ABSOLUTE
    ..\FWLIB\STM32F4xx_StdPeriph_Driver\src\stm32f4xx_spi.c 0x00000000   Number         0  stm32f4xx_spi.o ABSOLUTE
    ..\FWLIB\STM32F4xx_StdPeriph_Driver\src\stm32f4xx_syscfg.c 0x00000000   Number         0  stm32f4xx_syscfg.o ABSOLUTE
    ..\FWLIB\STM32F4xx_StdPeriph_Driver\src\stm32f4xx_tim.c 0x00000000   Number         0  stm32f4xx_tim.o ABSOLUTE
    ..\FWLIB\STM32F4xx_StdPeriph_Driver\src\stm32f4xx_usart.c 0x00000000   Number         0  stm32f4xx_usart.o ABSOLUTE
    ..\FWLIB\STM32F4xx_StdPeriph_Driver\src\stm32f4xx_wwdg.c 0x00000000   Number         0  stm32f4xx_wwdg.o ABSOLUTE
    ..\HARDWARE\ADC\adc.c                    0x00000000   Number         0  adc.o ABSOLUTE
    ..\HARDWARE\BEEP\beep.c                  0x00000000   Number         0  beep.o ABSOLUTE
    ..\HARDWARE\ETHERNET\LAN8720.c           0x00000000   Number         0  lan8720.o ABSOLUTE
    ..\HARDWARE\InterTemperate\temperature.c 0x00000000   Number         0  temperature.o ABSOLUTE
    ..\HARDWARE\KEY\key.c                    0x00000000   Number         0  key.o ABSOLUTE
    ..\HARDWARE\LCD\lcd.c                    0x00000000   Number         0  lcd.o ABSOLUTE
    ..\HARDWARE\LED\led.c                    0x00000000   Number         0  led.o ABSOLUTE
    ..\HARDWARE\RTC\rtc.c                    0x00000000   Number         0  rtc.o ABSOLUTE
    ..\HARDWARE\SDIO\sdio_sdcard.c           0x00000000   Number         0  sdio_sdcard.o ABSOLUTE
    ..\HARDWARE\SRAM\sram.c                  0x00000000   Number         0  sram.o ABSOLUTE
    ..\SYSTEM\delay\delay.c                  0x00000000   Number         0  delay.o ABSOLUTE
    ..\SYSTEM\sys\sys.c                      0x00000000   Number         0  sys.o ABSOLUTE
    ..\SYSTEM\usart\usart.c                  0x00000000   Number         0  usart.o ABSOLUTE
    ..\\FATFS\\src\\diskio.c                 0x00000000   Number         0  diskio.o ABSOLUTE
    ..\\FWLIB\\STM32F4x7_ETH_Driver\\src\\stm32f4x7_eth.c 0x00000000   Number         0  stm32f4x7_eth.o ABSOLUTE
    ..\\FWLIB\\STM32F4xx_StdPeriph_Driver\\src\\misc.c 0x00000000   Number         0  misc.o ABSOLUTE
    ..\\FWLIB\\STM32F4xx_StdPeriph_Driver\\src\\stm32f4xx_adc.c 0x00000000   Number         0  stm32f4xx_adc.o ABSOLUTE
    ..\\FWLIB\\STM32F4xx_StdPeriph_Driver\\src\\stm32f4xx_can.c 0x00000000   Number         0  stm32f4xx_can.o ABSOLUTE
    ..\\FWLIB\\STM32F4xx_StdPeriph_Driver\\src\\stm32f4xx_crc.c 0x00000000   Number         0  stm32f4xx_crc.o ABSOLUTE
    ..\\FWLIB\\STM32F4xx_StdPeriph_Driver\\src\\stm32f4xx_cryp.c 0x00000000   Number         0  stm32f4xx_cryp.o ABSOLUTE
    ..\\FWLIB\\STM32F4xx_StdPeriph_Driver\\src\\stm32f4xx_cryp_aes.c 0x00000000   Number         0  stm32f4xx_cryp_aes.o ABSOLUTE
    ..\\FWLIB\\STM32F4xx_StdPeriph_Driver\\src\\stm32f4xx_cryp_des.c 0x00000000   Number         0  stm32f4xx_cryp_des.o ABSOLUTE
    ..\\FWLIB\\STM32F4xx_StdPeriph_Driver\\src\\stm32f4xx_cryp_tdes.c 0x00000000   Number         0  stm32f4xx_cryp_tdes.o ABSOLUTE
    ..\\FWLIB\\STM32F4xx_StdPeriph_Driver\\src\\stm32f4xx_dac.c 0x00000000   Number         0  stm32f4xx_dac.o ABSOLUTE
    ..\\FWLIB\\STM32F4xx_StdPeriph_Driver\\src\\stm32f4xx_dbgmcu.c 0x00000000   Number         0  stm32f4xx_dbgmcu.o ABSOLUTE
    ..\\FWLIB\\STM32F4xx_StdPeriph_Driver\\src\\stm32f4xx_dcmi.c 0x00000000   Number         0  stm32f4xx_dcmi.o ABSOLUTE
    ..\\FWLIB\\STM32F4xx_StdPeriph_Driver\\src\\stm32f4xx_dma.c 0x00000000   Number         0  stm32f4xx_dma.o ABSOLUTE
    ..\\FWLIB\\STM32F4xx_StdPeriph_Driver\\src\\stm32f4xx_dma2d.c 0x00000000   Number         0  stm32f4xx_dma2d.o ABSOLUTE
    ..\\FWLIB\\STM32F4xx_StdPeriph_Driver\\src\\stm32f4xx_exti.c 0x00000000   Number         0  stm32f4xx_exti.o ABSOLUTE
    ..\\FWLIB\\STM32F4xx_StdPeriph_Driver\\src\\stm32f4xx_flash.c 0x00000000   Number         0  stm32f4xx_flash.o ABSOLUTE
    ..\\FWLIB\\STM32F4xx_StdPeriph_Driver\\src\\stm32f4xx_flash_ramfunc.c 0x00000000   Number         0  stm32f4xx_flash_ramfunc.o ABSOLUTE
    ..\\FWLIB\\STM32F4xx_StdPeriph_Driver\\src\\stm32f4xx_fsmc.c 0x00000000   Number         0  stm32f4xx_fsmc.o ABSOLUTE
    ..\\FWLIB\\STM32F4xx_StdPeriph_Driver\\src\\stm32f4xx_gpio.c 0x00000000   Number         0  stm32f4xx_gpio.o ABSOLUTE
    ..\\FWLIB\\STM32F4xx_StdPeriph_Driver\\src\\stm32f4xx_hash.c 0x00000000   Number         0  stm32f4xx_hash.o ABSOLUTE
    ..\\FWLIB\\STM32F4xx_StdPeriph_Driver\\src\\stm32f4xx_hash_md5.c 0x00000000   Number         0  stm32f4xx_hash_md5.o ABSOLUTE
    ..\\FWLIB\\STM32F4xx_StdPeriph_Driver\\src\\stm32f4xx_hash_sha1.c 0x00000000   Number         0  stm32f4xx_hash_sha1.o ABSOLUTE
    ..\\FWLIB\\STM32F4xx_StdPeriph_Driver\\src\\stm32f4xx_i2c.c 0x00000000   Number         0  stm32f4xx_i2c.o ABSOLUTE
    ..\\FWLIB\\STM32F4xx_StdPeriph_Driver\\src\\stm32f4xx_iwdg.c 0x00000000   Number         0  stm32f4xx_iwdg.o ABSOLUTE
    ..\\FWLIB\\STM32F4xx_StdPeriph_Driver\\src\\stm32f4xx_ltdc.c 0x00000000   Number         0  stm32f4xx_ltdc.o ABSOLUTE
    ..\\FWLIB\\STM32F4xx_StdPeriph_Driver\\src\\stm32f4xx_pwr.c 0x00000000   Number         0  stm32f4xx_pwr.o ABSOLUTE
    ..\\FWLIB\\STM32F4xx_StdPeriph_Driver\\src\\stm32f4xx_rcc.c 0x00000000   Number         0  stm32f4xx_rcc.o ABSOLUTE
    ..\\FWLIB\\STM32F4xx_StdPeriph_Driver\\src\\stm32f4xx_rng.c 0x00000000   Number         0  stm32f4xx_rng.o ABSOLUTE
    ..\\FWLIB\\STM32F4xx_StdPeriph_Driver\\src\\stm32f4xx_rtc.c 0x00000000   Number         0  stm32f4xx_rtc.o ABSOLUTE
    ..\\FWLIB\\STM32F4xx_StdPeriph_Driver\\src\\stm32f4xx_sai.c 0x00000000   Number         0  stm32f4xx_sai.o ABSOLUTE
    ..\\FWLIB\\STM32F4xx_StdPeriph_Driver\\src\\stm32f4xx_sdio.c 0x00000000   Number         0  stm32f4xx_sdio.o ABSOLUTE
    ..\\FWLIB\\STM32F4xx_StdPeriph_Driver\\src\\stm32f4xx_spi.c 0x00000000   Number         0  stm32f4xx_spi.o ABSOLUTE
    ..\\FWLIB\\STM32F4xx_StdPeriph_Driver\\src\\stm32f4xx_syscfg.c 0x00000000   Number         0  stm32f4xx_syscfg.o ABSOLUTE
    ..\\FWLIB\\STM32F4xx_StdPeriph_Driver\\src\\stm32f4xx_tim.c 0x00000000   Number         0  stm32f4xx_tim.o ABSOLUTE
    ..\\FWLIB\\STM32F4xx_StdPeriph_Driver\\src\\stm32f4xx_usart.c 0x00000000   Number         0  stm32f4xx_usart.o ABSOLUTE
    ..\\FWLIB\\STM32F4xx_StdPeriph_Driver\\src\\stm32f4xx_wwdg.c 0x00000000   Number         0  stm32f4xx_wwdg.o ABSOLUTE
    ..\\HARDWARE\\ADC\\adc.c                 0x00000000   Number         0  adc.o ABSOLUTE
    ..\\HARDWARE\\BEEP\\beep.c               0x00000000   Number         0  beep.o ABSOLUTE
    ..\\HARDWARE\\ETHERNET\\LAN8720.c        0x00000000   Number         0  lan8720.o ABSOLUTE
    ..\\HARDWARE\\InterTemperate\\temperature.c 0x00000000   Number         0  temperature.o ABSOLUTE
    ..\\HARDWARE\\KEY\\key.c                 0x00000000   Number         0  key.o ABSOLUTE
    ..\\HARDWARE\\LCD\\lcd.c                 0x00000000   Number         0  lcd.o ABSOLUTE
    ..\\HARDWARE\\LED\\led.c                 0x00000000   Number         0  led.o ABSOLUTE
    ..\\HARDWARE\\RTC\\rtc.c                 0x00000000   Number         0  rtc.o ABSOLUTE
    ..\\HARDWARE\\SDIO\\sdio_sdcard.c        0x00000000   Number         0  sdio_sdcard.o ABSOLUTE
    ..\\HARDWARE\\SRAM\\sram.c               0x00000000   Number         0  sram.o ABSOLUTE
    ..\\SYSTEM\\delay\\delay.c               0x00000000   Number         0  delay.o ABSOLUTE
    ..\\SYSTEM\\sys\\sys.c                   0x00000000   Number         0  sys.o ABSOLUTE
    ..\\SYSTEM\\usart\\usart.c               0x00000000   Number         0  usart.o ABSOLUTE
    ..\\app\\http\\httpd.c                   0x00000000   Number         0  httpd.o ABSOLUTE
    ..\\app\\test\\test_net.c                0x00000000   Number         0  test_net.o ABSOLUTE
    ..\\net\\src\\exmsg.c                    0x00000000   Number         0  exmsg.o ABSOLUTE
    ..\\net\\src\\fixq.c                     0x00000000   Number         0  fixq.o ABSOLUTE
    ..\\os\\os_plat.c                        0x00000000   Number         0  os_plat.o ABSOLUTE
    ..\\plat\\netif_disc.c                   0x00000000   Number         0  netif_disc.o ABSOLUTE
    ..\app\echo\tcp_echo_server.c            0x00000000   Number         0  tcp_echo_server.o ABSOLUTE
    ..\app\echo\udp_echo_server.c            0x00000000   Number         0  udp_echo_server.o ABSOLUTE
    ..\app\http\httpd.c                      0x00000000   Number         0  httpd.o ABSOLUTE
    ..\app\ntp\ntp.c                         0x00000000   Number         0  ntp.o ABSOLUTE
    ..\app\ping\ping.c                       0x00000000   Number         0  ping.o ABSOLUTE
    ..\app\test\app.c                        0x00000000   Number         0  app.o ABSOLUTE
    ..\app\test\test_eflags_0.c              0x00000000   Number         0  test_eflags_0.o ABSOLUTE
    ..\app\test\test_eflags_1.c              0x00000000   Number         0  test_eflags_1.o ABSOLUTE
    ..\app\test\test_eflags_2.c              0x00000000   Number         0  test_eflags_2.o ABSOLUTE
    ..\app\test\test_eflags_3.c              0x00000000   Number         0  test_eflags_3.o ABSOLUTE
    ..\app\test\test_eflags_4.c              0x00000000   Number         0  test_eflags_4.o ABSOLUTE
    ..\app\test\test_eflags_5.c              0x00000000   Number         0  test_eflags_5.o ABSOLUTE
    ..\app\test\test_eflags_6.c              0x00000000   Number         0  test_eflags_6.o ABSOLUTE
    ..\app\test\test_list_0.c                0x00000000   Number         0  test_list_0.o ABSOLUTE
    ..\app\test\test_mblock_0.c              0x00000000   Number         0  test_mblock_0.o ABSOLUTE
    ..\app\test\test_mblock_1.c              0x00000000   Number         0  test_mblock_1.o ABSOLUTE
    ..\app\test\test_mutex_0.c               0x00000000   Number         0  test_mutex_0.o ABSOLUTE
    ..\app\test\test_mutex_1.c               0x00000000   Number         0  test_mutex_1.o ABSOLUTE
    ..\app\test\test_net.c                   0x00000000   Number         0  test_net.o ABSOLUTE
    ..\app\test\test_queue_0.c               0x00000000   Number         0  test_queue_0.o ABSOLUTE
    ..\app\test\test_queue_1.c               0x00000000   Number         0  test_queue_1.o ABSOLUTE
    ..\app\test\test_queue_2.c               0x00000000   Number         0  test_queue_2.o ABSOLUTE
    ..\app\test\test_queue_3.c               0x00000000   Number         0  test_queue_3.o ABSOLUTE
    ..\app\test\test_queue_4.c               0x00000000   Number         0  test_queue_4.o ABSOLUTE
    ..\app\test\test_sem_0.c                 0x00000000   Number         0  test_sem_0.o ABSOLUTE
    ..\app\test\test_sem_1.c                 0x00000000   Number         0  test_sem_1.o ABSOLUTE
    ..\app\test\test_sem_2.c                 0x00000000   Number         0  test_sem_2.o ABSOLUTE
    ..\app\test\test_sem_3.c                 0x00000000   Number         0  test_sem_3.o ABSOLUTE
    ..\app\test\test_sem_4.c                 0x00000000   Number         0  test_sem_4.o ABSOLUTE
    ..\app\test\test_sem_5.c                 0x00000000   Number         0  test_sem_5.o ABSOLUTE
    ..\app\test\test_task_0.c                0x00000000   Number         0  test_task_0.o ABSOLUTE
    ..\app\test\test_task_1.c                0x00000000   Number         0  test_task_1.o ABSOLUTE
    ..\app\test\test_task_2.c                0x00000000   Number         0  test_task_2.o ABSOLUTE
    ..\app\test\test_task_3.c                0x00000000   Number         0  test_task_3.o ABSOLUTE
    ..\app\tftp\tftp.c                       0x00000000   Number         0  tftp.o ABSOLUTE
    ..\app\tftp\tftp_client.c                0x00000000   Number         0  tftp_client.o ABSOLUTE
    ..\app\tftp\tftp_server.c                0x00000000   Number         0  tftp_server.o ABSOLUTE
    ..\net\src\arp.c                         0x00000000   Number         0  arp.o ABSOLUTE
    ..\net\src\dbg.c                         0x00000000   Number         0  dbg.o ABSOLUTE
    ..\net\src\dns.c                         0x00000000   Number         0  dns.o ABSOLUTE
    ..\net\src\ether.c                       0x00000000   Number         0  ether.o ABSOLUTE
    ..\net\src\exmsg.c                       0x00000000   Number         0  exmsg.o ABSOLUTE
    ..\net\src\fixq.c                        0x00000000   Number         0  fixq.o ABSOLUTE
    ..\net\src\icmpv4.c                      0x00000000   Number         0  icmpv4.o ABSOLUTE
    ..\net\src\ipaddr.c                      0x00000000   Number         0  ipaddr.o ABSOLUTE
    ..\net\src\ipv4.c                        0x00000000   Number         0  ipv4.o ABSOLUTE
    ..\net\src\loop.c                        0x00000000   Number         0  loop.o ABSOLUTE
    ..\net\src\mblock.c                      0x00000000   Number         0  mblock.o ABSOLUTE
    ..\net\src\net.c                         0x00000000   Number         0  net.o ABSOLUTE
    ..\net\src\netapi.c                      0x00000000   Number         0  netapi.o ABSOLUTE
    ..\net\src\netif.c                       0x00000000   Number         0  netif.o ABSOLUTE
    ..\net\src\nlist.c                       0x00000000   Number         0  nlist.o ABSOLUTE
    ..\net\src\nlocker.c                     0x00000000   Number         0  nlocker.o ABSOLUTE
    ..\net\src\pktbuf.c                      0x00000000   Number         0  pktbuf.o ABSOLUTE
    ..\net\src\raw.c                         0x00000000   Number         0  raw.o ABSOLUTE
    ..\net\src\sock.c                        0x00000000   Number         0  sock.o ABSOLUTE
    ..\net\src\socket.c                      0x00000000   Number         0  socket.o ABSOLUTE
    ..\net\src\tcp.c                         0x00000000   Number         0  tcp.o ABSOLUTE
    ..\net\src\tcp_buf.c                     0x00000000   Number         0  tcp_buf.o ABSOLUTE
    ..\net\src\tcp_in.c                      0x00000000   Number         0  tcp_in.o ABSOLUTE
    ..\net\src\tcp_out.c                     0x00000000   Number         0  tcp_out.o ABSOLUTE
    ..\net\src\tcp_state.c                   0x00000000   Number         0  tcp_state.o ABSOLUTE
    ..\net\src\timer.c                       0x00000000   Number         0  timer.o ABSOLUTE
    ..\net\src\tools.c                       0x00000000   Number         0  tools.o ABSOLUTE
    ..\net\src\udp.c                         0x00000000   Number         0  udp.o ABSOLUTE
    ..\os\os_core.c                          0x00000000   Number         0  os_core.o ABSOLUTE
    ..\os\os_eflags.c                        0x00000000   Number         0  os_eflags.o ABSOLUTE
    ..\os\os_event.c                         0x00000000   Number         0  os_event.o ABSOLUTE
    ..\os\os_list.c                          0x00000000   Number         0  os_list.o ABSOLUTE
    ..\os\os_mblock.c                        0x00000000   Number         0  os_mblock.o ABSOLUTE
    ..\os\os_mem.c                           0x00000000   Number         0  os_mem.o ABSOLUTE
    ..\os\os_mutex.c                         0x00000000   Number         0  os_mutex.o ABSOLUTE
    ..\os\os_plat.c                          0x00000000   Number         0  os_plat.o ABSOLUTE
    ..\os\os_plat_s.s                        0x00000000   Number         0  os_plat_s.o ABSOLUTE
    ..\os\os_queue.c                         0x00000000   Number         0  os_queue.o ABSOLUTE
    ..\os\os_sem.c                           0x00000000   Number         0  os_sem.o ABSOLUTE
    ..\os\os_task.c                          0x00000000   Number         0  os_task.o ABSOLUTE
    ..\os\os_timer.c                         0x00000000   Number         0  os_timer.o ABSOLUTE
    ..\plat\net_plat.c                       0x00000000   Number         0  net_plat.o ABSOLUTE
    ..\plat\netif_disc.c                     0x00000000   Number         0  netif_disc.o ABSOLUTE
    ..\plat\netif_pcap.c                     0x00000000   Number         0  netif_pcap.o ABSOLUTE
    ..\plat\sys_plat.c                       0x00000000   Number         0  sys_plat.o ABSOLUTE
    C:/Keil_v5/ARM/PACK/Keil/ARM_Compiler/1.7.2/Source/EventRecorder.c 0x00000000   Number         0  eventrecorder.o ABSOLUTE
    C:\Keil_v5\ARM\PACK\Keil\ARM_Compiler\1.7.2\Source\EventRecorder.c 0x00000000   Number         0  eventrecorder.o ABSOLUTE
    dc.s                                     0x00000000   Number         0  dc.o ABSOLUTE
    stm32f4xx_it.c                           0x00000000   Number         0  stm32f4xx_it.o ABSOLUTE
    stm32f4xx_it.c                           0x00000000   Number         0  stm32f4xx_it.o ABSOLUTE
    system_stm32f4xx.c                       0x00000000   Number         0  system_stm32f4xx.o ABSOLUTE
    system_stm32f4xx.c                       0x00000000   Number         0  system_stm32f4xx.o ABSOLUTE
    RESET                                    0x08000000   Section      392  startup_stm32f40_41xxx.o(RESET)
    !!!main                                  0x08000188   Section        8  __main.o(!!!main)
    !!!scatter                               0x08000190   Section       52  __scatter.o(!!!scatter)
    !!dczerorl2                              0x080001c4   Section       90  __dczerorl2.o(!!dczerorl2)
    !!handler_copy                           0x08000220   Section       26  __scatter_copy.o(!!handler_copy)
    !!handler_zi                             0x0800023c   Section       28  __scatter_zi.o(!!handler_zi)
    .ARM.Collect$$_printf_percent$$00000000  0x08000258   Section        0  _printf_percent.o(.ARM.Collect$$_printf_percent$$00000000)
    .ARM.Collect$$_printf_percent$$00000001  0x08000258   Section        6  _printf_n.o(.ARM.Collect$$_printf_percent$$00000001)
    .ARM.Collect$$_printf_percent$$00000002  0x0800025e   Section        6  _printf_p.o(.ARM.Collect$$_printf_percent$$00000002)
    .ARM.Collect$$_printf_percent$$00000003  0x08000264   Section        6  _printf_f.o(.ARM.Collect$$_printf_percent$$00000003)
    .ARM.Collect$$_printf_percent$$00000004  0x0800026a   Section        6  _printf_e.o(.ARM.Collect$$_printf_percent$$00000004)
    .ARM.Collect$$_printf_percent$$00000005  0x08000270   Section        6  _printf_g.o(.ARM.Collect$$_printf_percent$$00000005)
    .ARM.Collect$$_printf_percent$$00000006  0x08000276   Section        6  _printf_a.o(.ARM.Collect$$_printf_percent$$00000006)
    .ARM.Collect$$_printf_percent$$00000007  0x0800027c   Section       10  _printf_ll.o(.ARM.Collect$$_printf_percent$$00000007)
    .ARM.Collect$$_printf_percent$$00000008  0x08000286   Section        6  _printf_i.o(.ARM.Collect$$_printf_percent$$00000008)
    .ARM.Collect$$_printf_percent$$00000009  0x0800028c   Section        6  _printf_d.o(.ARM.Collect$$_printf_percent$$00000009)
    .ARM.Collect$$_printf_percent$$0000000A  0x08000292   Section        6  _printf_u.o(.ARM.Collect$$_printf_percent$$0000000A)
    .ARM.Collect$$_printf_percent$$0000000B  0x08000298   Section        6  _printf_o.o(.ARM.Collect$$_printf_percent$$0000000B)
    .ARM.Collect$$_printf_percent$$0000000C  0x0800029e   Section        6  _printf_x.o(.ARM.Collect$$_printf_percent$$0000000C)
    .ARM.Collect$$_printf_percent$$0000000D  0x080002a4   Section        6  _printf_lli.o(.ARM.Collect$$_printf_percent$$0000000D)
    .ARM.Collect$$_printf_percent$$0000000E  0x080002aa   Section        6  _printf_lld.o(.ARM.Collect$$_printf_percent$$0000000E)
    .ARM.Collect$$_printf_percent$$0000000F  0x080002b0   Section        6  _printf_llu.o(.ARM.Collect$$_printf_percent$$0000000F)
    .ARM.Collect$$_printf_percent$$00000010  0x080002b6   Section        6  _printf_llo.o(.ARM.Collect$$_printf_percent$$00000010)
    .ARM.Collect$$_printf_percent$$00000011  0x080002bc   Section        6  _printf_llx.o(.ARM.Collect$$_printf_percent$$00000011)
    .ARM.Collect$$_printf_percent$$00000012  0x080002c2   Section       10  _printf_l.o(.ARM.Collect$$_printf_percent$$00000012)
    .ARM.Collect$$_printf_percent$$00000013  0x080002cc   Section        6  _printf_c.o(.ARM.Collect$$_printf_percent$$00000013)
    .ARM.Collect$$_printf_percent$$00000014  0x080002d2   Section        6  _printf_s.o(.ARM.Collect$$_printf_percent$$00000014)
    .ARM.Collect$$_printf_percent$$00000015  0x080002d8   Section        6  _printf_lc.o(.ARM.Collect$$_printf_percent$$00000015)
    .ARM.Collect$$_printf_percent$$00000016  0x080002de   Section        6  _printf_ls.o(.ARM.Collect$$_printf_percent$$00000016)
    .ARM.Collect$$_printf_percent$$00000017  0x080002e4   Section        4  _printf_percent_end.o(.ARM.Collect$$_printf_percent$$00000017)
    .ARM.Collect$$libinit$$00000000          0x080002e8   Section        2  libinit.o(.ARM.Collect$$libinit$$00000000)
    .ARM.Collect$$libinit$$00000002          0x080002ea   Section        0  libinit2.o(.ARM.Collect$$libinit$$00000002)
    .ARM.Collect$$libinit$$00000004          0x080002ea   Section        0  libinit2.o(.ARM.Collect$$libinit$$00000004)
    .ARM.Collect$$libinit$$00000005          0x080002ea   Section        8  libinit2.o(.ARM.Collect$$libinit$$00000005)
    .ARM.Collect$$libinit$$0000000A          0x080002f2   Section        0  libinit2.o(.ARM.Collect$$libinit$$0000000A)
    .ARM.Collect$$libinit$$0000000C          0x080002f2   Section        0  libinit2.o(.ARM.Collect$$libinit$$0000000C)
    .ARM.Collect$$libinit$$0000000E          0x080002f2   Section        0  libinit2.o(.ARM.Collect$$libinit$$0000000E)
    .ARM.Collect$$libinit$$0000000F          0x080002f2   Section        6  libinit2.o(.ARM.Collect$$libinit$$0000000F)
    .ARM.Collect$$libinit$$00000011          0x080002f8   Section        0  libinit2.o(.ARM.Collect$$libinit$$00000011)
    .ARM.Collect$$libinit$$00000012          0x080002f8   Section       12  libinit2.o(.ARM.Collect$$libinit$$00000012)
    .ARM.Collect$$libinit$$00000013          0x08000304   Section        0  libinit2.o(.ARM.Collect$$libinit$$00000013)
    .ARM.Collect$$libinit$$00000015          0x08000304   Section        0  libinit2.o(.ARM.Collect$$libinit$$00000015)
    .ARM.Collect$$libinit$$00000016          0x08000304   Section       10  libinit2.o(.ARM.Collect$$libinit$$00000016)
    .ARM.Collect$$libinit$$00000017          0x0800030e   Section        0  libinit2.o(.ARM.Collect$$libinit$$00000017)
    .ARM.Collect$$libinit$$00000019          0x0800030e   Section        0  libinit2.o(.ARM.Collect$$libinit$$00000019)
    .ARM.Collect$$libinit$$0000001B          0x0800030e   Section        0  libinit2.o(.ARM.Collect$$libinit$$0000001B)
    .ARM.Collect$$libinit$$0000001D          0x0800030e   Section        0  libinit2.o(.ARM.Collect$$libinit$$0000001D)
    .ARM.Collect$$libinit$$0000001F          0x0800030e   Section        0  libinit2.o(.ARM.Collect$$libinit$$0000001F)
    .ARM.Collect$$libinit$$00000021          0x0800030e   Section        0  libinit2.o(.ARM.Collect$$libinit$$00000021)
    .ARM.Collect$$libinit$$00000023          0x0800030e   Section        0  libinit2.o(.ARM.Collect$$libinit$$00000023)
    .ARM.Collect$$libinit$$00000024          0x0800030e   Section        4  libinit2.o(.ARM.Collect$$libinit$$00000024)
    .ARM.Collect$$libinit$$00000025          0x08000312   Section        0  libinit2.o(.ARM.Collect$$libinit$$00000025)
    .ARM.Collect$$libinit$$0000002C          0x08000312   Section        0  libinit2.o(.ARM.Collect$$libinit$$0000002C)
    .ARM.Collect$$libinit$$0000002E          0x08000312   Section        0  libinit2.o(.ARM.Collect$$libinit$$0000002E)
    .ARM.Collect$$libinit$$00000030          0x08000312   Section        0  libinit2.o(.ARM.Collect$$libinit$$00000030)
    .ARM.Collect$$libinit$$00000032          0x08000312   Section        0  libinit2.o(.ARM.Collect$$libinit$$00000032)
    .ARM.Collect$$libinit$$00000033          0x08000312   Section        2  libinit2.o(.ARM.Collect$$libinit$$00000033)
    .ARM.Collect$$libshutdown$$00000000      0x08000314   Section        2  libshutdown.o(.ARM.Collect$$libshutdown$$00000000)
    .ARM.Collect$$libshutdown$$00000002      0x08000316   Section        0  libshutdown2.o(.ARM.Collect$$libshutdown$$00000002)
    .ARM.Collect$$libshutdown$$00000003      0x08000316   Section        4  libshutdown2.o(.ARM.Collect$$libshutdown$$00000003)
    .ARM.Collect$$libshutdown$$00000004      0x0800031a   Section        0  libshutdown2.o(.ARM.Collect$$libshutdown$$00000004)
    .ARM.Collect$$libshutdown$$00000007      0x0800031a   Section        0  libshutdown2.o(.ARM.Collect$$libshutdown$$00000007)
    .ARM.Collect$$libshutdown$$0000000A      0x0800031a   Section        0  libshutdown2.o(.ARM.Collect$$libshutdown$$0000000A)
    .ARM.Collect$$libshutdown$$0000000C      0x0800031a   Section        0  libshutdown2.o(.ARM.Collect$$libshutdown$$0000000C)
    .ARM.Collect$$libshutdown$$0000000D      0x0800031a   Section        4  libshutdown2.o(.ARM.Collect$$libshutdown$$0000000D)
    .ARM.Collect$$libshutdown$$0000000F      0x0800031e   Section        0  libshutdown2.o(.ARM.Collect$$libshutdown$$0000000F)
    .ARM.Collect$$libshutdown$$00000010      0x0800031e   Section        2  libshutdown2.o(.ARM.Collect$$libshutdown$$00000010)
    .ARM.Collect$$rtentry$$00000000          0x08000320   Section        0  __rtentry.o(.ARM.Collect$$rtentry$$00000000)
    .ARM.Collect$$rtentry$$00000002          0x08000320   Section        0  __rtentry2.o(.ARM.Collect$$rtentry$$00000002)
    .ARM.Collect$$rtentry$$00000004          0x08000320   Section        6  __rtentry4.o(.ARM.Collect$$rtentry$$00000004)
    .ARM.Collect$$rtentry$$00000009          0x08000326   Section        0  __rtentry2.o(.ARM.Collect$$rtentry$$00000009)
    .ARM.Collect$$rtentry$$0000000A          0x08000326   Section        4  __rtentry2.o(.ARM.Collect$$rtentry$$0000000A)
    .ARM.Collect$$rtentry$$0000000C          0x0800032a   Section        0  __rtentry2.o(.ARM.Collect$$rtentry$$0000000C)
    .ARM.Collect$$rtentry$$0000000D          0x0800032a   Section        8  __rtentry2.o(.ARM.Collect$$rtentry$$0000000D)
    .ARM.Collect$$rtexit$$00000000           0x08000332   Section        2  rtexit.o(.ARM.Collect$$rtexit$$00000000)
    .ARM.Collect$$rtexit$$00000002           0x08000334   Section        0  rtexit2.o(.ARM.Collect$$rtexit$$00000002)
    .ARM.Collect$$rtexit$$00000003           0x08000334   Section        4  rtexit2.o(.ARM.Collect$$rtexit$$00000003)
    .ARM.Collect$$rtexit$$00000004           0x08000338   Section        6  rtexit2.o(.ARM.Collect$$rtexit$$00000004)
    .emb_text                                0x08000340   Section       16  sys.o(.emb_text)
    .emb_text                                0x08000350   Section        0  maybetermalloc2.o(.emb_text)
    .text                                    0x08000350   Section       64  startup_stm32f40_41xxx.o(.text)
    .text                                    0x08000390   Section        0  h1_alloc_mt.o(.text)
    Heap1_SizeAdjust                         0x08000391   Thumb Code     8  h1_alloc_mt.o(.text)
    .text                                    0x0800042e   Section        0  h1_free_mt.o(.text)
    .text                                    0x080004a4   Section       72  llsdiv.o(.text)
    .text                                    0x080004ec   Section        0  isprint.o(.text)
    .text                                    0x08000500   Section        0  vsprintf.o(.text)
    .text                                    0x08000524   Section        0  __2printf.o(.text)
    .text                                    0x0800053c   Section        0  __2sprintf.o(.text)
    .text                                    0x08000568   Section        0  __2snprintf.o(.text)
    .text                                    0x080005a0   Section        0  _printf_pad.o(.text)
    .text                                    0x080005ee   Section        0  _printf_str.o(.text)
    .text                                    0x08000640   Section        0  _printf_dec.o(.text)
    .text                                    0x080006b8   Section        0  _printf_hex_int_ll_ptr.o(.text)
    _printf_hex_common                       0x080006b9   Thumb Code     0  _printf_hex_int_ll_ptr.o(.text)
    .text                                    0x0800074c   Section        0  __printf_flags_ss_wp.o(.text)
    .text                                    0x080008d4   Section        0  sscanf.o(.text)
    .text                                    0x08000910   Section        0  __0scanf.o(.text)
    .text                                    0x08000930   Section        0  _scanf_str.o(.text)
    .text                                    0x08000a10   Section        0  atoi.o(.text)
    .text                                    0x08000a2c   Section        0  fseek.o(.text)
    .text                                    0x08000b24   Section        0  ftell.o(.text)
    .text                                    0x08000b66   Section        0  fclose.o(.text)
    .text                                    0x08000bb2   Section        0  ftell_locked.o(.text)
    .text                                    0x08000bd4   Section        0  fclose_locked.o(.text)
    .text                                    0x08000c08   Section        0  fseek_locked.o(.text)
    .text                                    0x08000c34   Section        0  feof_locked.o(.text)
    .text                                    0x08000c54   Section        0  fflush_locked.o(.text)
    .text                                    0x08000ce4   Section        0  fopen_locked.o(.text)
    _freopen_locked                          0x08000ce5   Thumb Code   174  fopen_locked.o(.text)
    .text                                    0x08000e28   Section        0  strtok.o(.text)
    .text                                    0x08000e34   Section        0  strchr.o(.text)
    .text                                    0x08000e48   Section        0  strstr.o(.text)
    .text                                    0x08000e6c   Section        0  memcmp.o(.text)
    .text                                    0x08000ec4   Section        0  strcpy.o(.text)
    .text                                    0x08000f0c   Section        0  strncasecmp.o(.text)
    .text                                    0x08000f3e   Section        0  strlen.o(.text)
    .text                                    0x08000f7c   Section      138  rt_memcpy_v6.o(.text)
    .text                                    0x08001006   Section       16  aeabi_memset.o(.text)
    .text                                    0x08001016   Section       68  rt_memclr.o(.text)
    .text                                    0x0800105a   Section       78  rt_memclr_w.o(.text)
    .text                                    0x080010a8   Section       86  strncpy.o(.text)
    .text                                    0x08001100   Section      128  strcmpv7m.o(.text)
    .text                                    0x08001180   Section        0  localtime.o(.text)
    .text                                    0x0800118c   Section        0  heapauxi.o(.text)
    .text                                    0x08001194   Section       16  rt_ctype_table.o(.text)
    .text                                    0x080011a4   Section        8  rt_heap_descriptor_intlibspace.o(.text)
    .text                                    0x080011ac   Section        8  rt_errno_addr_intlibspace.o(.text)
    .text                                    0x080011b4   Section        0  hguard.o(.text)
    .text                                    0x080011b8   Section        0  init_alloc.o(.text)
    .text                                    0x08001242   Section        0  h1_init_mt.o(.text)
    .text                                    0x08001254   Section      238  lludivv7m.o(.text)
    .text                                    0x08001342   Section        0  tolower.o(.text)
    .text                                    0x0800135c   Section        0  _printf_truncate.o(.text)
    .text                                    0x08001380   Section        0  _printf_intcommon.o(.text)
    .text                                    0x08001432   Section        0  _printf_charcount.o(.text)
    .text                                    0x0800145c   Section        0  _printf_char_common.o(.text)
    _printf_input_char                       0x0800145d   Thumb Code    10  _printf_char_common.o(.text)
    .text                                    0x0800148c   Section        0  _sputc.o(.text)
    .text                                    0x08001496   Section        0  _snputc.o(.text)
    .text                                    0x080014a6   Section        0  _printf_char.o(.text)
    .text                                    0x080014d4   Section        0  _printf_wctomb.o(.text)
    .text                                    0x08001590   Section        0  _printf_longlong_dec.o(.text)
    .text                                    0x0800160c   Section        0  _printf_oct_int_ll.o(.text)
    _printf_longlong_oct_internal            0x0800160d   Thumb Code     0  _printf_oct_int_ll.o(.text)
    .text                                    0x0800167c   Section        0  _scanf_longlong.o(.text)
    .text                                    0x080017d2   Section        0  _scanf_int.o(.text)
    .text                                    0x08001920   Section        0  scanf_char.o(.text)
    _scanf_char_input                        0x08001921   Thumb Code    12  scanf_char.o(.text)
    .text                                    0x0800194c   Section        0  _sgetc.o(.text)
    .text                                    0x0800198c   Section        0  strtol.o(.text)
    .text                                    0x080019fc   Section        0  _scanf_mbtowc.o(.text)
    .text                                    0x08001b10   Section        0  _scanf_wctomb.o(.text)
    .text                                    0x08001bf8   Section        0  _scanf_wstr.o(.text)
    .text                                    0x08001cc8   Section        0  stdio.o(.text)
    .text                                    0x08001db8   Section        0  initio_locked.o(.text)
    .text                                    0x08001f80   Section        0  strtok_int.o(.text)
    .text                                    0x08001fc4   Section      100  rt_memcpy_w.o(.text)
    .text                                    0x08002028   Section        0  localtime_internal.o(.text)
    .text                                    0x080020e0   Section        8  libspace.o(.text)
    .text                                    0x080020e8   Section        8  rt_locale_intlibspace.o(.text)
    .text                                    0x080020f0   Section        0  h1_extend_mt.o(.text)
    .text                                    0x0800212e   Section      138  lludiv10.o(.text)
    .text                                    0x080021b8   Section        0  isspace.o(.text)
    .text                                    0x080021ca   Section        0  _printf_fp_dec.o(.text)
    _fp_digits                               0x080021cd   Thumb Code   428  _printf_fp_dec.o(.text)
    .text                                    0x080025e4   Section        0  _printf_fp_hex.o(.text)
    .text                                    0x080028e0   Section        0  _printf_wchar.o(.text)
    .text                                    0x0800290c   Section        0  _chval.o(.text)
    .text                                    0x08002928   Section        0  _scanf.o(.text)
    .text                                    0x08002c9c   Section        0  scanf_fp.o(.text)
    _fp_value                                0x08002c9d   Thumb Code   508  scanf_fp.o(.text)
    .text                                    0x08003140   Section        0  _strtoul.o(.text)
    .text                                    0x080031de   Section        0  _scanf_wcharmap.o(.text)
    .text                                    0x080031fc   Section        0  backspace.o(.text)
    .text                                    0x08003244   Section        0  filbuf.o(.text)
    .text                                    0x0800347e   Section        0  flsbuf.o(.text)
    .text                                    0x08003654   Section        0  setvbuf_locked.o(.text)
    .text                                    0x080036bc   Section        0  _mbrtowc.o(.text)
    .text                                    0x080036f8   Section        0  _wcrtomb.o(.text)
    .text                                    0x08003738   Section        0  defsig_rtred_outer.o(.text)
    .text                                    0x08003746   Section        0  defsig_rtmem_outer.o(.text)
    .text                                    0x08003754   Section        0  strcspn.o(.text)
    .text                                    0x08003774   Section        0  strspn.o(.text)
    .text                                    0x08003790   Section       74  sys_stackheap_outer.o(.text)
    .text                                    0x080037da   Section        0  term_alloc.o(.text)
    .text                                    0x080037ec   Section        0  _printf_fp_infnan.o(.text)
    .text                                    0x0800386c   Section        0  _printf_char_file_locked.o(.text)
    .text                                    0x080038ac   Section        0  scanf_char_file_locked.o(.text)
    .text                                    0x080038ec   Section        0  bigflt0.o(.text)
    .text                                    0x080039c8   Section        0  ungetc.o(.text)
    .text                                    0x08003a10   Section        0  fgets_locked.o(.text)
    .text                                    0x08003a68   Section        0  puts_locked.o(.text)
    .text                                    0x08003aa8   Section        0  freadfast_locked.o(.text)
    .text                                    0x08003bda   Section        0  fwritefast_locked.o(.text)
    .text                                    0x08003cac   Section        0  flushlinebuffered_locked.o(.text)
    .text                                    0x08003d08   Section        0  exit.o(.text)
    .text                                    0x08003d1a   Section        0  defsig_exit.o(.text)
    .text                                    0x08003d24   Section        0  defsig_rtred_inner.o(.text)
    .text                                    0x08003d58   Section        0  defsig_rtmem_inner.o(.text)
    .text                                    0x08003da8   Section        0  h1_final_mt.o(.text)
    .text                                    0x08003db2   Section        0  _rserrno.o(.text)
    .text                                    0x08003dc8   Section        0  scanf_hexfp.o(.text)
    .text                                    0x080040e8   Section        0  scanf_infnan.o(.text)
    .text                                    0x0800421c   Section        0  defsig_general.o(.text)
    .text                                    0x0800424e   Section       38  llshl.o(.text)
    CL$$btod_d2e                             0x08004274   Section       62  btod.o(CL$$btod_d2e)
    CL$$btod_d2e_denorm_low                  0x080042b2   Section       70  btod.o(CL$$btod_d2e_denorm_low)
    CL$$btod_d2e_norm_op1                    0x080042f8   Section       96  btod.o(CL$$btod_d2e_norm_op1)
    CL$$btod_div_common                      0x08004358   Section      824  btod.o(CL$$btod_div_common)
    CL$$btod_e2d                             0x08004690   Section       84  btod.o(CL$$btod_e2d)
    CL$$btod_e2e                             0x080046e4   Section      198  btod.o(CL$$btod_e2e)
    CL$$btod_ediv                            0x080047aa   Section       40  btod.o(CL$$btod_ediv)
    CL$$btod_edivd                           0x080047d2   Section       40  btod.o(CL$$btod_edivd)
    CL$$btod_emul                            0x080047fa   Section       40  btod.o(CL$$btod_emul)
    CL$$btod_emuld                           0x08004822   Section       40  btod.o(CL$$btod_emuld)
    CL$$btod_mult_common                     0x0800484a   Section      580  btod.o(CL$$btod_mult_common)
    SWITCH                                   0x08004a90   Section       32  os_plat_s.o(SWITCH)
    i.BusFault_Handler                       0x08004b14   Section        0  stm32f4xx_it.o(i.BusFault_Handler)
    i.CmdError                               0x08004b16   Section        0  sdio_sdcard.o(i.CmdError)
    i.CmdResp1Error                          0x08004b40   Section        0  sdio_sdcard.o(i.CmdResp1Error)
    i.CmdResp2Error                          0x08004b98   Section        0  sdio_sdcard.o(i.CmdResp2Error)
    i.CmdResp3Error                          0x08004be4   Section        0  sdio_sdcard.o(i.CmdResp3Error)
    i.CmdResp6Error                          0x08004c14   Section        0  sdio_sdcard.o(i.CmdResp6Error)
    i.CmdResp7Error                          0x08004c94   Section        0  sdio_sdcard.o(i.CmdResp7Error)
    i.DMA_Cmd                                0x08004cd4   Section        0  stm32f4xx_dma.o(i.DMA_Cmd)
    i.DMA_DeInit                             0x08004cec   Section        0  stm32f4xx_dma.o(i.DMA_DeInit)
    i.DMA_FlowControllerConfig               0x08004e18   Section        0  stm32f4xx_dma.o(i.DMA_FlowControllerConfig)
    i.DMA_GetCmdStatus                       0x08004e30   Section        0  stm32f4xx_dma.o(i.DMA_GetCmdStatus)
    i.DMA_Init                               0x08004e40   Section        0  stm32f4xx_dma.o(i.DMA_Init)
    i.DebugMon_Handler                       0x08004e94   Section        0  stm32f4xx_it.o(i.DebugMon_Handler)
    i.ETHERNET_NVICConfiguration             0x08004e96   Section        0  lan8720.o(i.ETHERNET_NVICConfiguration)
    ETHERNET_NVICConfiguration               0x08004e97   Thumb Code    32  lan8720.o(i.ETHERNET_NVICConfiguration)
    i.ETH_DMAClearITPendingBit               0x08004eb8   Section        0  stm32f4x7_eth.o(i.ETH_DMAClearITPendingBit)
    i.ETH_DMAITConfig                        0x08004ec4   Section        0  stm32f4x7_eth.o(i.ETH_DMAITConfig)
    i.ETH_DMAReceptionCmd                    0x08004ee0   Section        0  stm32f4x7_eth.o(i.ETH_DMAReceptionCmd)
    i.ETH_DMARxDescChainInit                 0x08004f00   Section        0  stm32f4x7_eth.o(i.ETH_DMARxDescChainInit)
    i.ETH_DMATransmissionCmd                 0x08004f5c   Section        0  stm32f4x7_eth.o(i.ETH_DMATransmissionCmd)
    i.ETH_DMATxDescChainInit                 0x08004f7c   Section        0  stm32f4x7_eth.o(i.ETH_DMATxDescChainInit)
    i.ETH_DeInit                             0x08004fc4   Section        0  stm32f4x7_eth.o(i.ETH_DeInit)
    i.ETH_Delay                              0x08004fdc   Section        0  stm32f4x7_eth.o(i.ETH_Delay)
    ETH_Delay                                0x08004fdd   Thumb Code    24  stm32f4x7_eth.o(i.ETH_Delay)
    i.ETH_FlushTransmitFIFO                  0x08004ff4   Section        0  stm32f4x7_eth.o(i.ETH_FlushTransmitFIFO)
    i.ETH_GetCurrentTxBuffer                 0x08005004   Section        0  lan8720.o(i.ETH_GetCurrentTxBuffer)
    i.ETH_GetDMAFlagStatus                   0x08005010   Section        0  stm32f4x7_eth.o(i.ETH_GetDMAFlagStatus)
    i.ETH_GetDMARxDescFrameLength            0x08005024   Section        0  stm32f4x7_eth.o(i.ETH_GetDMARxDescFrameLength)
    i.ETH_GetRxPktSize                       0x0800502c   Section        0  stm32f4x7_eth.o(i.ETH_GetRxPktSize)
    i.ETH_GetSoftwareResetStatus             0x0800504c   Section        0  stm32f4x7_eth.o(i.ETH_GetSoftwareResetStatus)
    i.ETH_GetTransmitProcessState            0x08005060   Section        0  stm32f4x7_eth.o(i.ETH_GetTransmitProcessState)
    i.ETH_Get_Received_Frame_interrupt       0x08005070   Section        0  stm32f4x7_eth.o(i.ETH_Get_Received_Frame_interrupt)
    i.ETH_IRQHandler                         0x08005110   Section        0  netif_disc.o(i.ETH_IRQHandler)
    i.ETH_Init                               0x08005234   Section        0  stm32f4x7_eth.o(i.ETH_Init)
    i.ETH_MACAddressConfig                   0x08005488   Section        0  stm32f4x7_eth.o(i.ETH_MACAddressConfig)
    i.ETH_MACDMA_Config                      0x080054b4   Section        0  lan8720.o(i.ETH_MACDMA_Config)
    i.ETH_MACReceptionCmd                    0x08005538   Section        0  stm32f4x7_eth.o(i.ETH_MACReceptionCmd)
    i.ETH_MACTransmissionCmd                 0x08005558   Section        0  stm32f4x7_eth.o(i.ETH_MACTransmissionCmd)
    i.ETH_Mem_Malloc                         0x08005578   Section        0  lan8720.o(i.ETH_Mem_Malloc)
    i.ETH_ReadPHYRegister                    0x0800559c   Section        0  stm32f4x7_eth.o(i.ETH_ReadPHYRegister)
    i.ETH_SoftwareReset                      0x080055f4   Section        0  stm32f4x7_eth.o(i.ETH_SoftwareReset)
    i.ETH_Start                              0x08005604   Section        0  stm32f4x7_eth.o(i.ETH_Start)
    i.ETH_StructInit                         0x08005626   Section        0  stm32f4x7_eth.o(i.ETH_StructInit)
    i.ETH_Tx_Packet                          0x080056c0   Section        0  lan8720.o(i.ETH_Tx_Packet)
    i.ETH_WritePHYRegister                   0x08005704   Section        0  stm32f4x7_eth.o(i.ETH_WritePHYRegister)
    i.EXTI_ClearITPendingBit                 0x0800575c   Section        0  stm32f4xx_exti.o(i.EXTI_ClearITPendingBit)
    i.FSMC_NORSRAMCmd                        0x08005768   Section        0  stm32f4xx_fsmc.o(i.FSMC_NORSRAMCmd)
    i.FSMC_NORSRAMInit                       0x0800578c   Section        0  stm32f4xx_fsmc.o(i.FSMC_NORSRAMInit)
    i.FindSCR                                0x08005858   Section        0  sdio_sdcard.o(i.FindSCR)
    i.GPIO_Init                              0x080059dc   Section        0  stm32f4xx_gpio.o(i.GPIO_Init)
    i.GPIO_PinAFConfig                       0x08005a58   Section        0  stm32f4xx_gpio.o(i.GPIO_PinAFConfig)
    i.HardFault_Handler                      0x08005a78   Section        0  stm32f4xx_it.o(i.HardFault_Handler)
    i.IsCardProgramming                      0x08005a7c   Section        0  sdio_sdcard.o(i.IsCardProgramming)
    i.LAN8720_Init                           0x08005b14   Section        0  lan8720.o(i.LAN8720_Init)
    i.LCD_Clear                              0x08005c18   Section        0  lcd.o(i.LCD_Clear)
    i.LCD_Display_Dir                        0x08005c48   Section        0  lcd.o(i.LCD_Display_Dir)
    i.LCD_Init                               0x08005d14   Section        0  lcd.o(i.LCD_Init)
    i.LCD_RD_DATA                            0x08008474   Section        0  lcd.o(i.LCD_RD_DATA)
    i.LCD_SSD_BackLightSet                   0x08008488   Section        0  lcd.o(i.LCD_SSD_BackLightSet)
    i.LCD_Scan_Dir                           0x080084d4   Section        0  lcd.o(i.LCD_Scan_Dir)
    i.LCD_SetCursor                          0x08008684   Section        0  lcd.o(i.LCD_SetCursor)
    i.LCD_WR_DATA                            0x08008788   Section        0  lcd.o(i.LCD_WR_DATA)
    i.LCD_WR_REG                             0x080087a0   Section        0  lcd.o(i.LCD_WR_REG)
    i.LCD_WriteRAM_Prepare                   0x080087b8   Section        0  lcd.o(i.LCD_WriteRAM_Prepare)
    i.LCD_WriteReg                           0x080087cc   Section        0  lcd.o(i.LCD_WriteReg)
    i.MemManage_Handler                      0x080087d8   Section        0  stm32f4xx_it.o(i.MemManage_Handler)
    i.NMI_Handler                            0x080087da   Section        0  stm32f4xx_it.o(i.NMI_Handler)
    i.NVIC_Init                              0x080087dc   Section        0  misc.o(i.NVIC_Init)
    i.NVIC_PriorityGroupConfig               0x08008844   Section        0  misc.o(i.NVIC_PriorityGroupConfig)
    i.RCC_AHB1PeriphClockCmd                 0x08008858   Section        0  stm32f4xx_rcc.o(i.RCC_AHB1PeriphClockCmd)
    i.RCC_AHB1PeriphResetCmd                 0x08008874   Section        0  stm32f4xx_rcc.o(i.RCC_AHB1PeriphResetCmd)
    i.RCC_AHB3PeriphClockCmd                 0x08008890   Section        0  stm32f4xx_rcc.o(i.RCC_AHB3PeriphClockCmd)
    i.RCC_APB2PeriphClockCmd                 0x080088ac   Section        0  stm32f4xx_rcc.o(i.RCC_APB2PeriphClockCmd)
    i.RCC_APB2PeriphResetCmd                 0x080088c8   Section        0  stm32f4xx_rcc.o(i.RCC_APB2PeriphResetCmd)
    i.RCC_GetClocksFreq                      0x080088e4   Section        0  stm32f4xx_rcc.o(i.RCC_GetClocksFreq)
    i.RTC_Alarm_IRQHandler                   0x08008984   Section        0  rtc.o(i.RTC_Alarm_IRQHandler)
    i.RTC_ClearFlag                          0x080089b8   Section        0  stm32f4xx_rtc.o(i.RTC_ClearFlag)
    i.RTC_GetFlagStatus                      0x080089d4   Section        0  stm32f4xx_rtc.o(i.RTC_GetFlagStatus)
    i.RTC_WKUP_IRQHandler                    0x080089f0   Section        0  rtc.o(i.RTC_WKUP_IRQHandler)
    i.SDEnWideBus                            0x08008a28   Section        0  sdio_sdcard.o(i.SDEnWideBus)
    i.SDIO_ClearFlag                         0x08008ab4   Section        0  stm32f4xx_sdio.o(i.SDIO_ClearFlag)
    i.SDIO_Clock_Set                         0x08008ac0   Section        0  sdio_sdcard.o(i.SDIO_Clock_Set)
    i.SDIO_DataConfig                        0x08008ad4   Section        0  stm32f4xx_sdio.o(i.SDIO_DataConfig)
    i.SDIO_GetFlagStatus                     0x08008b04   Section        0  stm32f4xx_sdio.o(i.SDIO_GetFlagStatus)
    i.SDIO_GetPowerState                     0x08008b18   Section        0  stm32f4xx_sdio.o(i.SDIO_GetPowerState)
    i.SDIO_IRQHandler                        0x08008b28   Section        0  sdio_sdcard.o(i.SDIO_IRQHandler)
    i.SDIO_Init                              0x08008b2c   Section        0  stm32f4xx_sdio.o(i.SDIO_Init)
    i.SDIO_Register_Deinit                   0x08008b58   Section        0  sdio_sdcard.o(i.SDIO_Register_Deinit)
    i.SDIO_SendCommand                       0x08008b90   Section        0  stm32f4xx_sdio.o(i.SDIO_SendCommand)
    i.SDIO_SetPowerState                     0x08008bb8   Section        0  stm32f4xx_sdio.o(i.SDIO_SetPowerState)
    i.SD_DMA_Config                          0x08008bc4   Section        0  sdio_sdcard.o(i.SD_DMA_Config)
    i.SD_EnableWideBusOperation              0x08008c3c   Section        0  sdio_sdcard.o(i.SD_EnableWideBusOperation)
    i.SD_GetCardInfo                         0x08008c8c   Section        0  sdio_sdcard.o(i.SD_GetCardInfo)
    i.SD_Init                                0x08008eac   Section        0  sdio_sdcard.o(i.SD_Init)
    i.SD_InitializeCards                     0x08008fc8   Section        0  sdio_sdcard.o(i.SD_InitializeCards)
    i.SD_PowerON                             0x080090f4   Section        0  sdio_sdcard.o(i.SD_PowerON)
    i.SD_ProcessIRQSrc                       0x08009298   Section        0  sdio_sdcard.o(i.SD_ProcessIRQSrc)
    i.SD_ReadBlock                           0x0800938c   Section        0  sdio_sdcard.o(i.SD_ReadBlock)
    i.SD_ReadDisk                            0x080095dc   Section        0  sdio_sdcard.o(i.SD_ReadDisk)
    i.SD_ReadMultiBlocks                     0x08009658   Section        0  sdio_sdcard.o(i.SD_ReadMultiBlocks)
    i.SD_SelectDeselect                      0x08009908   Section        0  sdio_sdcard.o(i.SD_SelectDeselect)
    i.SD_SetDeviceMode                       0x08009934   Section        0  sdio_sdcard.o(i.SD_SetDeviceMode)
    i.SD_WriteBlock                          0x0800994c   Section        0  sdio_sdcard.o(i.SD_WriteBlock)
    i.SD_WriteDisk                           0x08009c5c   Section        0  sdio_sdcard.o(i.SD_WriteDisk)
    i.SD_WriteMultiBlocks                    0x08009cd0   Section        0  sdio_sdcard.o(i.SD_WriteMultiBlocks)
    i.SVC_Handler                            0x08009ff4   Section        0  stm32f4xx_it.o(i.SVC_Handler)
    i.SYSCFG_ETH_MediaInterfaceConfig        0x08009ff8   Section        0  stm32f4xx_syscfg.o(i.SYSCFG_ETH_MediaInterfaceConfig)
    i.SetSysClock                            0x0800a004   Section        0  system_stm32f4xx.o(i.SetSysClock)
    SetSysClock                              0x0800a005   Thumb Code   168  system_stm32f4xx.o(i.SetSysClock)
    i.SysTick_CLKSourceConfig                0x0800a0bc   Section        0  misc.o(i.SysTick_CLKSourceConfig)
    i.SysTick_Handler                        0x0800a0d8   Section        0  os_plat.o(i.SysTick_Handler)
    i.SystemCoreClockUpdate                  0x0800a0e8   Section        0  system_stm32f4xx.o(i.SystemCoreClockUpdate)
    i.SystemInit                             0x0800a16c   Section        0  system_stm32f4xx.o(i.SystemInit)
    i.USART1_IRQHandler                      0x0800a1bc   Section        0  usart.o(i.USART1_IRQHandler)
    i.USART_Cmd                              0x0800a1f0   Section        0  stm32f4xx_usart.o(i.USART_Cmd)
    i.USART_GetITStatus                      0x0800a208   Section        0  stm32f4xx_usart.o(i.USART_GetITStatus)
    i.USART_ITConfig                         0x0800a248   Section        0  stm32f4xx_usart.o(i.USART_ITConfig)
    i.USART_Init                             0x0800a280   Section        0  stm32f4xx_usart.o(i.USART_Init)
    i.USART_ReceiveData                      0x0800a33c   Section        0  stm32f4xx_usart.o(i.USART_ReceiveData)
    i.UsageFault_Handler                     0x0800a344   Section        0  stm32f4xx_it.o(i.UsageFault_Handler)
    i.__ARM_fpclassify                       0x0800a346   Section        0  fpclassify.o(i.__ARM_fpclassify)
    i.__mathlib_dbl_overflow                 0x0800a36e   Section        0  dunder.o(i.__mathlib_dbl_overflow)
    i.__mathlib_dbl_underflow                0x0800a37c   Section        0  dunder.o(i.__mathlib_dbl_underflow)
    i.__mathlib_narrow                       0x0800a38c   Section        0  narrow.o(i.__mathlib_narrow)
    i.__mathlib_tofloat                      0x0800a39c   Section        0  narrow.o(i.__mathlib_tofloat)
    i.__support_ldexp                        0x0800a424   Section        0  ldexp.o(i.__support_ldexp)
    i._is_digit                              0x0800a43a   Section        0  __printf_wp.o(i._is_digit)
    i._mutex_acquire                         0x0800a448   Section        0  os_plat.o(i._mutex_acquire)
    __tagsym$$used                           0x0800a449   Number         0  os_plat.o(i._mutex_acquire)
    i._mutex_free                            0x0800a450   Section        0  os_plat.o(i._mutex_free)
    __tagsym$$used                           0x0800a451   Number         0  os_plat.o(i._mutex_free)
    i._mutex_initialize                      0x0800a454   Section        0  os_plat.o(i._mutex_initialize)
    __tagsym$$used                           0x0800a455   Number         0  os_plat.o(i._mutex_initialize)
    i._mutex_release                         0x0800a480   Section        0  os_plat.o(i._mutex_release)
    __tagsym$$used                           0x0800a481   Number         0  os_plat.o(i._mutex_release)
    i._sys_close                             0x0800a486   Section        0  os_plat.o(i._sys_close)
    i._sys_exit                              0x0800a4aa   Section        0  os_plat.o(i._sys_exit)
    i._sys_flen                              0x0800a4ac   Section        0  os_plat.o(i._sys_flen)
    i._sys_istty                             0x0800a4ba   Section        0  os_plat.o(i._sys_istty)
    i._sys_open                              0x0800a4c8   Section        0  os_plat.o(i._sys_open)
    i._sys_read                              0x0800a550   Section        0  os_plat.o(i._sys_read)
    i._sys_seek                              0x0800a5d6   Section        0  os_plat.o(i._sys_seek)
    i._sys_write                             0x0800a5ec   Section        0  os_plat.o(i._sys_write)
    i._ttywrch                               0x0800a630   Section        0  os_plat.o(i._ttywrch)
    i.add_query_field                        0x0800a634   Section        0  dns.o(i.add_query_field)
    add_query_field                          0x0800a635   Thumb Code   118  dns.o(i.add_query_field)
    i.alloc_client                           0x0800a6e4   Section        0  httpd.o(i.alloc_client)
    alloc_client                             0x0800a6e5   Thumb Code    66  httpd.o(i.alloc_client)
    i.alloc_port                             0x0800a730   Section        0  udp.o(i.alloc_port)
    alloc_port                               0x0800a731   Thumb Code    52  udp.o(i.alloc_port)
    i.arp_cache_tmo                          0x0800a768   Section        0  arp.o(i.arp_cache_tmo)
    arp_cache_tmo                            0x0800a769   Thumb Code   248  arp.o(i.arp_cache_tmo)
    i.arp_clear                              0x0800a8f0   Section        0  arp.o(i.arp_clear)
    i.arp_find                               0x0800a934   Section        0  arp.o(i.arp_find)
    i.arp_in                                 0x0800a970   Section        0  arp.o(i.arp_in)
    i.arp_init                               0x0800aaec   Section        0  arp.o(i.arp_init)
    i.arp_make_gratuitous                    0x0800abb0   Section        0  arp.o(i.arp_make_gratuitous)
    i.arp_make_reply                         0x0800ac0c   Section        0  arp.o(i.arp_make_reply)
    i.arp_make_request                       0x0800ac60   Section        0  arp.o(i.arp_make_request)
    i.arp_resolve                            0x0800ad00   Section        0  arp.o(i.arp_resolve)
    i.arp_update_from_ipbuf                  0x0800ae9c   Section        0  arp.o(i.arp_update_from_ipbuf)
    i.cache_alloc                            0x0800afb4   Section        0  arp.o(i.cache_alloc)
    cache_alloc                              0x0800afb5   Thumb Code   120  arp.o(i.cache_alloc)
    i.cache_clear_all                        0x0800b08c   Section        0  arp.o(i.cache_clear_all)
    cache_clear_all                          0x0800b08d   Thumb Code    56  arp.o(i.cache_clear_all)
    i.cache_entry_set                        0x0800b0f0   Section        0  arp.o(i.cache_entry_set)
    cache_entry_set                          0x0800b0f1   Thumb Code    46  arp.o(i.cache_entry_set)
    i.cache_find                             0x0800b120   Section        0  arp.o(i.cache_find)
    cache_find                               0x0800b121   Thumb Code    62  arp.o(i.cache_find)
    i.cache_free                             0x0800b164   Section        0  arp.o(i.cache_free)
    cache_free                               0x0800b165   Thumb Code    34  arp.o(i.cache_free)
    i.cache_init                             0x0800b18c   Section        0  arp.o(i.cache_init)
    cache_init                               0x0800b18d   Thumb Code    46  arp.o(i.cache_init)
    i.cache_insert                           0x0800b1c0   Section        0  arp.o(i.cache_insert)
    cache_insert                             0x0800b1c1   Thumb Code   158  arp.o(i.cache_insert)
    i.cache_send_all                         0x0800b2a4   Section        0  arp.o(i.cache_send_all)
    cache_send_all                           0x0800b2a5   Thumb Code    92  arp.o(i.cache_send_all)
    i.check_fs                               0x0800b328   Section        0  ff.o(i.check_fs)
    check_fs                                 0x0800b329   Thumb Code   120  ff.o(i.check_fs)
    i.checksum                               0x0800b3a4   Section        0  ping.o(i.checksum)
    checksum                                 0x0800b3a5   Thumb Code    40  ping.o(i.checksum)
    i.checksum16                             0x0800b3cc   Section        0  tools.o(i.checksum16)
    i.checksum_peso                          0x0800b40c   Section        0  tools.o(i.checksum_peso)
    i.chk_chr                                0x0800b476   Section        0  ff.o(i.chk_chr)
    chk_chr                                  0x0800b477   Thumb Code    16  ff.o(i.chk_chr)
    i.client_thread                          0x0800b488   Section        0  httpd.o(i.client_thread)
    client_thread                            0x0800b489   Thumb Code   164  httpd.o(i.client_thread)
    i.clmt_clust                             0x0800b59c   Section        0  ff.o(i.clmt_clust)
    clmt_clust                               0x0800b59d   Thumb Code    38  ff.o(i.clmt_clust)
    i.clust2sect                             0x0800b5c2   Section        0  ff.o(i.clust2sect)
    i.cmp_lfn                                0x0800b5dc   Section        0  ff.o(i.cmp_lfn)
    cmp_lfn                                  0x0800b5dd   Thumb Code   124  ff.o(i.cmp_lfn)
    i.convert_from_bytes_to_power_of_two     0x0800b65c   Section        0  sdio_sdcard.o(i.convert_from_bytes_to_power_of_two)
    i.copy_data_to_rcvbuf                    0x0800b670   Section        0  tcp_in.o(i.copy_data_to_rcvbuf)
    copy_data_to_rcvbuf                      0x0800b671   Thumb Code   332  tcp_in.o(i.copy_data_to_rcvbuf)
    i.copy_send_data                         0x0800b83c   Section        0  tcp_out.o(i.copy_send_data)
    copy_send_data                           0x0800b83d   Thumb Code   108  tcp_out.o(i.copy_send_data)
    i.create_chain                           0x0800b8d8   Section        0  ff.o(i.create_chain)
    create_chain                             0x0800b8d9   Thumb Code   168  ff.o(i.create_chain)
    i.create_name                            0x0800b980   Section        0  ff.o(i.create_name)
    create_name                              0x0800b981   Thumb Code   538  ff.o(i.create_name)
    i.curr_blk_remain                        0x0800bbb0   Section        0  pktbuf.o(i.curr_blk_remain)
    curr_blk_remain                          0x0800bbb1   Thumb Code    22  pktbuf.o(i.curr_blk_remain)
    i.dbg_print                              0x0800bbc8   Section        0  dbg.o(i.dbg_print)
    i.delay_init                             0x0800bc40   Section        0  delay.o(i.delay_init)
    i.delay_ms                               0x0800bc6c   Section        0  delay.o(i.delay_ms)
    i.delay_us                               0x0800bca0   Section        0  delay.o(i.delay_us)
    i.delay_xms                              0x0800bcd4   Section        0  delay.o(i.delay_xms)
    i.dir_alloc                              0x0800bd08   Section        0  ff.o(i.dir_alloc)
    dir_alloc                                0x0800bd09   Thumb Code    68  ff.o(i.dir_alloc)
    i.dir_find                               0x0800bd4c   Section        0  ff.o(i.dir_find)
    dir_find                                 0x0800bd4d   Thumb Code   198  ff.o(i.dir_find)
    i.dir_next                               0x0800be12   Section        0  ff.o(i.dir_next)
    dir_next                                 0x0800be13   Thumb Code   258  ff.o(i.dir_next)
    i.dir_register                           0x0800bf14   Section        0  ff.o(i.dir_register)
    dir_register                             0x0800bf15   Thumb Code   260  ff.o(i.dir_register)
    i.dir_sdi                                0x0800c018   Section        0  ff.o(i.dir_sdi)
    i.disk_initialize                        0x0800c0a4   Section        0  diskio.o(i.disk_initialize)
    i.disk_ioctl                             0x0800c0bc   Section        0  diskio.o(i.disk_ioctl)
    i.disk_read                              0x0800c140   Section        0  diskio.o(i.disk_read)
    i.disk_status                            0x0800c17e   Section        0  diskio.o(i.disk_status)
    i.disk_write                             0x0800c182   Section        0  diskio.o(i.disk_write)
    i.dns_alloc_req                          0x0800c1c0   Section        0  dns.o(i.dns_alloc_req)
    i.dns_entry_find                         0x0800c1cc   Section        0  dns.o(i.dns_entry_find)
    i.dns_entry_free                         0x0800c264   Section        0  dns.o(i.dns_entry_free)
    dns_entry_free                           0x0800c265   Thumb Code     6  dns.o(i.dns_entry_free)
    i.dns_entry_init                         0x0800c26a   Section        0  dns.o(i.dns_entry_init)
    dns_entry_init                           0x0800c26b   Thumb Code    40  dns.o(i.dns_entry_init)
    i.dns_entry_insert                       0x0800c294   Section        0  dns.o(i.dns_entry_insert)
    dns_entry_insert                         0x0800c295   Thumb Code    96  dns.o(i.dns_entry_insert)
    i.dns_free_req                           0x0800c2f8   Section        0  dns.o(i.dns_free_req)
    i.dns_in                                 0x0800c304   Section        0  dns.o(i.dns_in)
    i.dns_init                               0x0800c84c   Section        0  dns.o(i.dns_init)
    i.dns_insert_server                      0x0800c95c   Section        0  dns.o(i.dns_insert_server)
    i.dns_is_arrive                          0x0800c9fc   Section        0  dns.o(i.dns_is_arrive)
    i.dns_req_add                            0x0800ca10   Section        0  dns.o(i.dns_req_add)
    dns_req_add                              0x0800ca11   Thumb Code    52  dns.o(i.dns_req_add)
    i.dns_req_fail                           0x0800ca4c   Section        0  dns.o(i.dns_req_fail)
    dns_req_fail                             0x0800ca4d   Thumb Code    66  dns.o(i.dns_req_fail)
    i.dns_req_in                             0x0800ca90   Section        0  dns.o(i.dns_req_in)
    i.dns_req_remove                         0x0800cbf4   Section        0  dns.o(i.dns_req_remove)
    dns_req_remove                           0x0800cbf5   Thumb Code    48  dns.o(i.dns_req_remove)
    i.dns_send_query                         0x0800cc28   Section        0  dns.o(i.dns_send_query)
    dns_send_query                           0x0800cc29   Thumb Code   232  dns.o(i.dns_send_query)
    i.dns_server_next                        0x0800cd6c   Section        0  dns.o(i.dns_server_next)
    i.dns_set_default_server                 0x0800cd90   Section        0  dns.o(i.dns_set_default_server)
    i.dns_update_tmo                         0x0800cea0   Section        0  dns.o(i.dns_update_tmo)
    dns_update_tmo                           0x0800cea1   Thumb Code   114  dns.o(i.dns_update_tmo)
    i.do_func                                0x0800cf1c   Section        0  exmsg.o(i.do_func)
    do_func                                  0x0800cf1d   Thumb Code    62  exmsg.o(i.do_func)
    i.do_netif_in                            0x0800cf9c   Section        0  exmsg.o(i.do_netif_in)
    do_netif_in                              0x0800cf9d   Thumb Code   134  exmsg.o(i.do_netif_in)
    i.do_recv_file                           0x0800d064   Section        0  tftp_server.o(i.do_recv_file)
    do_recv_file                             0x0800d065   Thumb Code   274  tftp_server.o(i.do_recv_file)
    i.do_send_file                           0x0800d274   Section        0  tftp_server.o(i.do_send_file)
    do_send_file                             0x0800d275   Thumb Code   336  tftp_server.o(i.do_send_file)
    i.do_tftp_get                            0x0800d4d4   Section        0  tftp_client.o(i.do_tftp_get)
    i.do_tftp_put                            0x0800d81c   Section        0  tftp_client.o(i.do_tftp_put)
    i.domain_name_cmp                        0x0800dae8   Section        0  dns.o(i.domain_name_cmp)
    domain_name_cmp                          0x0800dae9   Thumb Code    72  dns.o(i.domain_name_cmp)
    i.domain_name_skip                       0x0800db30   Section        0  dns.o(i.domain_name_skip)
    domain_name_skip                         0x0800db31   Thumb Code    40  dns.o(i.domain_name_skip)
    i.ether_broadcast_addr                   0x0800db58   Section        0  ether.o(i.ether_broadcast_addr)
    i.ether_close                            0x0800db60   Section        0  ether.o(i.ether_close)
    ether_close                              0x0800db61   Thumb Code     4  ether.o(i.ether_close)
    i.ether_in                               0x0800db64   Section        0  ether.o(i.ether_in)
    i.ether_init                             0x0800dd48   Section        0  ether.o(i.ether_init)
    i.ether_open                             0x0800ddd8   Section        0  ether.o(i.ether_open)
    ether_open                               0x0800ddd9   Thumb Code     4  ether.o(i.ether_open)
    i.ether_out                              0x0800dddc   Section        0  ether.o(i.ether_out)
    ether_out                                0x0800dddd   Thumb Code    84  ether.o(i.ether_out)
    i.ether_raw_out                          0x0800de30   Section        0  ether.o(i.ether_raw_out)
    i.exmsg_func_exec                        0x0800dfc0   Section        0  exmsg.o(i.exmsg_func_exec)
    i.exmsg_init                             0x0800e110   Section        0  exmsg.o(i.exmsg_init)
    i.exmsg_netif_in                         0x0800e1f4   Section        0  exmsg.o(i.exmsg_netif_in)
    i.exmsg_start                            0x0800e298   Section        0  exmsg.o(i.exmsg_start)
    i.f_close                                0x0800e2c4   Section        0  ff.o(i.f_close)
    i.f_lseek                                0x0800e2f2   Section        0  ff.o(i.f_lseek)
    i.f_mount                                0x0800e5c0   Section        0  ff.o(i.f_mount)
    i.f_open                                 0x0800e640   Section        0  ff.o(i.f_open)
    i.f_read                                 0x0800e7c4   Section        0  ff.o(i.f_read)
    i.f_sync                                 0x0800e990   Section        0  ff.o(i.f_sync)
    i.f_write                                0x0800ea3e   Section        0  ff.o(i.f_write)
    i.ff_convert                             0x0800ec48   Section        0  cc936.o(i.ff_convert)
    i.ff_cre_syncobj                         0x0800eca0   Section        0  ff_system.o(i.ff_cre_syncobj)
    i.ff_del_syncobj                         0x0800ecc0   Section        0  ff_system.o(i.ff_del_syncobj)
    i.ff_memalloc                            0x0800ecca   Section        0  diskio.o(i.ff_memalloc)
    i.ff_memfree                             0x0800ecce   Section        0  diskio.o(i.ff_memfree)
    i.ff_rel_grant                           0x0800ecd2   Section        0  ff_system.o(i.ff_rel_grant)
    i.ff_req_grant                           0x0800ecd6   Section        0  ff_system.o(i.ff_req_grant)
    i.ff_wtoupper                            0x0800ece8   Section        0  cc936.o(i.ff_wtoupper)
    i.fgetc                                  0x0800ed14   Section        0  fgetc.o(i.fgetc)
    i.find_volume                            0x0800ed2c   Section        0  ff.o(i.find_volume)
    find_volume                              0x0800ed2d   Thumb Code   784  ff.o(i.find_volume)
    i.first_task_entry                       0x0800f048   Section        0  app.o(i.first_task_entry)
    first_task_entry                         0x0800f049   Thumb Code    10  app.o(i.first_task_entry)
    i.fit_lfn                                0x0800f054   Section        0  ff.o(i.fit_lfn)
    fit_lfn                                  0x0800f055   Thumb Code   104  ff.o(i.fit_lfn)
    i.fixq_count                             0x0800f0c0   Section        0  fixq.o(i.fixq_count)
    i.fixq_destroy                           0x0800f0da   Section        0  fixq.o(i.fixq_destroy)
    i.fixq_init                              0x0800f0f8   Section        0  fixq.o(i.fixq_init)
    i.fixq_recv                              0x0800f1e4   Section        0  fixq.o(i.fixq_recv)
    i.fixq_send                              0x0800f24e   Section        0  fixq.o(i.fixq_send)
    i.follow_path                            0x0800f2c8   Section        0  ff.o(i.follow_path)
    follow_path                              0x0800f2c9   Thumb Code   106  ff.o(i.follow_path)
    i.fputc                                  0x0800f332   Section        0  fputc.o(i.fputc)
    i.frag_add                               0x0800f34c   Section        0  ipv4.o(i.frag_add)
    frag_add                                 0x0800f34d   Thumb Code    44  ipv4.o(i.frag_add)
    i.frag_alloc                             0x0800f37c   Section        0  ipv4.o(i.frag_alloc)
    frag_alloc                               0x0800f37d   Thumb Code    50  ipv4.o(i.frag_alloc)
    i.frag_find                              0x0800f3b4   Section        0  ipv4.o(i.frag_find)
    frag_find                                0x0800f3b5   Thumb Code    74  ipv4.o(i.frag_find)
    i.frag_free                              0x0800f404   Section        0  ipv4.o(i.frag_free)
    frag_free                                0x0800f405   Thumb Code    34  ipv4.o(i.frag_free)
    i.frag_free_buf_list                     0x0800f42c   Section        0  ipv4.o(i.frag_free_buf_list)
    frag_free_buf_list                       0x0800f42d   Thumb Code    32  ipv4.o(i.frag_free_buf_list)
    i.frag_init                              0x0800f44c   Section        0  ipv4.o(i.frag_init)
    frag_init                                0x0800f44d   Thumb Code    86  ipv4.o(i.frag_init)
    i.frag_insert                            0x0800f4f0   Section        0  ipv4.o(i.frag_insert)
    frag_insert                              0x0800f4f1   Thumb Code   158  ipv4.o(i.frag_insert)
    i.frag_is_all_arrived                    0x0800f5c8   Section        0  ipv4.o(i.frag_is_all_arrived)
    frag_is_all_arrived                      0x0800f5c9   Thumb Code    78  ipv4.o(i.frag_is_all_arrived)
    i.frag_join                              0x0800f618   Section        0  ipv4.o(i.frag_join)
    frag_join                                0x0800f619   Thumb Code   160  ipv4.o(i.frag_join)
    i.frag_tmo                               0x0800f714   Section        0  ipv4.o(i.frag_tmo)
    frag_tmo                                 0x0800f715   Thumb Code    40  ipv4.o(i.frag_tmo)
    i.free_client                            0x0800f740   Section        0  httpd.o(i.free_client)
    free_client                              0x0800f741   Thumb Code    34  httpd.o(i.free_client)
    i.frexp                                  0x0800f768   Section        0  frexp.o(i.frexp)
    i.gen_numname                            0x0800f7c0   Section        0  ff.o(i.gen_numname)
    gen_numname                              0x0800f7c1   Thumb Code   146  ff.o(i.gen_numname)
    i.get_fat                                0x0800f858   Section        0  ff.o(i.get_fat)
    i.get_fattime                            0x0800f924   Section        0  diskio.o(i.get_fattime)
    i.get_ldnumber                           0x0800f928   Section        0  ff.o(i.get_ldnumber)
    get_ldnumber                             0x0800f929   Thumb Code    66  ff.o(i.get_ldnumber)
    i.get_next_task                          0x0800f96c   Section        0  os_core.o(i.get_next_task)
    get_next_task                            0x0800f96d   Thumb Code    44  os_core.o(i.get_next_task)
    i.get_send_info                          0x0800f9a0   Section        0  tcp_out.o(i.get_send_info)
    get_send_info                            0x0800f9a1   Thumb Code   114  tcp_out.o(i.get_send_info)
    i.get_socket                             0x0800fa14   Section        0  sock.o(i.get_socket)
    get_socket                               0x0800fa15   Thumb Code    24  sock.o(i.get_socket)
    i.http_400_bad_request                   0x0800fa30   Section        0  httpd.o(i.http_400_bad_request)
    http_400_bad_request                     0x0800fa31   Thumb Code    12  httpd.o(i.http_400_bad_request)
    i.http_403_forbidden                     0x0800fa40   Section        0  httpd.o(i.http_403_forbidden)
    http_403_forbidden                       0x0800fa41   Thumb Code    12  httpd.o(i.http_403_forbidden)
    i.http_404_not_found                     0x0800fa50   Section        0  httpd.o(i.http_404_not_found)
    http_404_not_found                       0x0800fa51   Thumb Code    12  httpd.o(i.http_404_not_found)
    i.http_501_not_implemented               0x0800fa60   Section        0  httpd.o(i.http_501_not_implemented)
    http_501_not_implemented                 0x0800fa61   Thumb Code    12  httpd.o(i.http_501_not_implemented)
    i.httpd_server_thread                    0x0800fa70   Section        0  httpd.o(i.httpd_server_thread)
    httpd_server_thread                      0x0800fa71   Thumb Code   112  httpd.o(i.httpd_server_thread)
    i.httpd_start                            0x0800fb54   Section        0  httpd.o(i.httpd_start)
    i.icmpv4_echo_reply                      0x0800fd8c   Section        0  icmpv4.o(i.icmpv4_echo_reply)
    icmpv4_echo_reply                        0x0800fd8d   Thumb Code    34  icmpv4.o(i.icmpv4_echo_reply)
    i.icmpv4_in                              0x0800fdb0   Section        0  icmpv4.o(i.icmpv4_in)
    i.icmpv4_init                            0x0800ff44   Section        0  icmpv4.o(i.icmpv4_init)
    i.icmpv4_out                             0x0800ffa0   Section        0  icmpv4.o(i.icmpv4_out)
    icmpv4_out                               0x0800ffa1   Thumb Code    56  icmpv4.o(i.icmpv4_out)
    i.icmpv4_out_unreach                     0x0800ffd8   Section        0  icmpv4.o(i.icmpv4_out_unreach)
    i.idle_task_entry                        0x08010148   Section        0  os_core.o(i.idle_task_entry)
    idle_task_entry                          0x08010149   Thumb Code    54  os_core.o(i.idle_task_entry)
    i.insert_timer                           0x08010184   Section        0  timer.o(i.insert_timer)
    insert_timer                             0x08010185   Thumb Code   102  timer.o(i.insert_timer)
    i.ip_frag_in                             0x080101f0   Section        0  ipv4.o(i.ip_frag_in)
    ip_frag_in                               0x080101f1   Thumb Code   192  ipv4.o(i.ip_frag_in)
    i.ip_frag_out                            0x08010314   Section        0  ipv4.o(i.ip_frag_out)
    ip_frag_out                              0x08010315   Thumb Code   442  ipv4.o(i.ip_frag_out)
    i.ip_normal_in                           0x08010568   Section        0  ipv4.o(i.ip_normal_in)
    ip_normal_in                             0x08010569   Thumb Code   280  ipv4.o(i.ip_normal_in)
    i.ipaddr_1_cnt                           0x080106fc   Section        0  ipaddr.o(i.ipaddr_1_cnt)
    i.ipaddr_copy                            0x08010712   Section        0  ipaddr.o(i.ipaddr_copy)
    i.ipaddr_from_buf                        0x08010720   Section        0  ipaddr.o(i.ipaddr_from_buf)
    i.ipaddr_from_str                        0x08010732   Section        0  ipaddr.o(i.ipaddr_from_str)
    i.ipaddr_get_any                         0x0801077c   Section        0  ipaddr.o(i.ipaddr_get_any)
    i.ipaddr_get_host                        0x08010784   Section        0  ipaddr.o(i.ipaddr_get_host)
    i.ipaddr_get_net                         0x08010796   Section        0  ipaddr.o(i.ipaddr_get_net)
    i.ipaddr_is_any                          0x080107a8   Section        0  ipaddr.o(i.ipaddr_is_any)
    i.ipaddr_is_direct_broadcast             0x080107b6   Section        0  ipaddr.o(i.ipaddr_is_direct_broadcast)
    i.ipaddr_is_equal                        0x080107d6   Section        0  ipaddr.o(i.ipaddr_is_equal)
    i.ipaddr_is_local_broadcast              0x080107e6   Section        0  ipaddr.o(i.ipaddr_is_local_broadcast)
    i.ipaddr_is_match                        0x080107f4   Section        0  ipaddr.o(i.ipaddr_is_match)
    i.ipaddr_set_all_1                       0x08010840   Section        0  ipaddr.o(i.ipaddr_set_all_1)
    i.ipaddr_set_any                         0x08010848   Section        0  ipaddr.o(i.ipaddr_set_any)
    i.ipaddr_set_loop                        0x0801084e   Section        0  ipaddr.o(i.ipaddr_set_loop)
    i.ipaddr_to_buf                          0x0801085e   Section        0  ipaddr.o(i.ipaddr_to_buf)
    i.iphdr_htons                            0x08010870   Section        0  ipv4.o(i.iphdr_htons)
    iphdr_htons                              0x08010871   Thumb Code    30  ipv4.o(i.iphdr_htons)
    i.iphdr_ntohs                            0x0801088e   Section        0  ipv4.o(i.iphdr_ntohs)
    iphdr_ntohs                              0x0801088f   Thumb Code    30  ipv4.o(i.iphdr_ntohs)
    i.ipv4_in                                0x080108ac   Section        0  ipv4.o(i.ipv4_in)
    i.ipv4_init                              0x08010a2c   Section        0  ipv4.o(i.ipv4_init)
    i.ipv4_out                               0x08010ac8   Section        0  ipv4.o(i.ipv4_out)
    i.is_little_endian                       0x08010d28   Section        0  tools.o(i.is_little_endian)
    is_little_endian                         0x08010d29   Thumb Code    24  tools.o(i.is_little_endian)
    i.is_pkt_ok                              0x08010d40   Section        0  arp.o(i.is_pkt_ok)
    is_pkt_ok                                0x08010d41   Thumb Code   156  arp.o(i.is_pkt_ok)
    i.is_pkt_ok                              0x08010e38   Section        0  ether.o(i.is_pkt_ok)
    is_pkt_ok                                0x08010e39   Thumb Code    74  ether.o(i.is_pkt_ok)
    i.is_pkt_ok                              0x08010ed0   Section        0  icmpv4.o(i.is_pkt_ok)
    is_pkt_ok                                0x08010ed1   Thumb Code    86  icmpv4.o(i.is_pkt_ok)
    i.is_pkt_ok                              0x08010f74   Section        0  ipv4.o(i.is_pkt_ok)
    is_pkt_ok                                0x08010f75   Thumb Code   190  ipv4.o(i.is_pkt_ok)
    i.is_pkt_ok                              0x080110cc   Section        0  udp.o(i.is_pkt_ok)
    is_pkt_ok                                0x080110cd   Thumb Code    46  udp.o(i.is_pkt_ok)
    i.is_port_used                           0x08011134   Section        0  udp.o(i.is_port_used)
    is_port_used                             0x08011135   Thumb Code    36  udp.o(i.is_port_used)
    i.ld_clust                               0x0801115c   Section        0  ff.o(i.ld_clust)
    ld_clust                                 0x0801115d   Thumb Code    30  ff.o(i.ld_clust)
    i.ldexp                                  0x0801117a   Section        0  ldexp.o(i.ldexp)
    i.lock_fs                                0x080111ee   Section        0  ff.o(i.lock_fs)
    lock_fs                                  0x080111ef   Thumb Code     6  ff.o(i.lock_fs)
    i.loop_close                             0x080111f4   Section        0  loop.o(i.loop_close)
    loop_close                               0x080111f5   Thumb Code     2  loop.o(i.loop_close)
    i.loop_init                              0x080111f8   Section        0  loop.o(i.loop_init)
    i.loop_open                              0x080112d8   Section        0  loop.o(i.loop_open)
    loop_open                                0x080112d9   Thumb Code    10  loop.o(i.loop_open)
    i.loop_xmit                              0x080112e4   Section        0  loop.o(i.loop_xmit)
    loop_xmit                                0x080112e5   Thumb Code    70  loop.o(i.loop_xmit)
    i.main                                   0x08011350   Section        0  app.o(i.main)
    i.mblock_alloc                           0x08011398   Section        0  mblock.o(i.mblock_alloc)
    i.mblock_free                            0x080113ea   Section        0  mblock.o(i.mblock_free)
    i.mblock_init                            0x0801141c   Section        0  mblock.o(i.mblock_init)
    i.mem_cmp                                0x08011510   Section        0  ff.o(i.mem_cmp)
    mem_cmp                                  0x08011511   Thumb Code    26  ff.o(i.mem_cmp)
    i.mem_cpy                                0x0801152a   Section        0  ff.o(i.mem_cpy)
    mem_cpy                                  0x0801152b   Thumb Code    18  ff.o(i.mem_cpy)
    i.mem_set                                0x0801153c   Section        0  ff.o(i.mem_set)
    mem_set                                  0x0801153d   Thumb Code    16  ff.o(i.mem_set)
    i.method_get_in                          0x0801154c   Section        0  httpd.o(i.method_get_in)
    method_get_in                            0x0801154d   Thumb Code   246  httpd.o(i.method_get_in)
    i.mime_find                              0x080116f8   Section        0  httpd.o(i.mime_find)
    mime_find                                0x080116f9   Thumb Code    40  httpd.o(i.mime_find)
    i.move_forward                           0x08011724   Section        0  pktbuf.o(i.move_forward)
    move_forward                             0x08011725   Thumb Code    48  pktbuf.o(i.move_forward)
    i.move_window                            0x08011754   Section        0  ff.o(i.move_window)
    move_window                              0x08011755   Thumb Code    50  ff.o(i.move_window)
    i.mutex_init                             0x08011786   Section        0  os_mutex.o(i.mutex_init)
    i.net_init                               0x080117a8   Section        0  net.o(i.net_init)
    i.net_plat_init                          0x08011828   Section        0  net_plat.o(i.net_plat_init)
    i.net_start                              0x0801188c   Section        0  net.o(i.net_start)
    i.net_timer_add                          0x080118d4   Section        0  timer.o(i.net_timer_add)
    i.net_timer_check_tmo                    0x08011950   Section        0  timer.o(i.net_timer_check_tmo)
    i.net_timer_first_tmo                    0x08011a40   Section        0  timer.o(i.net_timer_first_tmo)
    i.net_timer_init                         0x08011a58   Section        0  timer.o(i.net_timer_init)
    i.net_timer_remove                       0x08011ac0   Section        0  timer.o(i.net_timer_remove)
    i.netdev_init                            0x08011b44   Section        0  test_net.o(i.netdev_init)
    i.netif_disc_close                       0x08011bf4   Section        0  netif_disc.o(i.netif_disc_close)
    i.netif_disc_open                        0x08011bf8   Section        0  netif_disc.o(i.netif_disc_open)
    i.netif_disc_xmit                        0x08011c78   Section        0  netif_disc.o(i.netif_disc_xmit)
    i.netif_get_in                           0x08011cc8   Section        0  netif.o(i.netif_get_in)
    i.netif_get_layer                        0x08011d2c   Section        0  netif.o(i.netif_get_layer)
    netif_get_layer                          0x08011d2d   Thumb Code    16  netif.o(i.netif_get_layer)
    i.netif_get_out                          0x08011d40   Section        0  netif.o(i.netif_get_out)
    i.netif_init                             0x08011da8   Section        0  netif.o(i.netif_init)
    i.netif_open                             0x08011e38   Section        0  netif.o(i.netif_open)
    i.netif_out                              0x08012074   Section        0  netif.o(i.netif_out)
    i.netif_put_in                           0x08012144   Section        0  netif.o(i.netif_put_in)
    i.netif_put_out                          0x080121dc   Section        0  netif.o(i.netif_put_out)
    i.netif_register_layer                   0x0801223c   Section        0  netif.o(i.netif_register_layer)
    i.netif_set_active                       0x080122d0   Section        0  netif.o(i.netif_set_active)
    i.netif_set_addr                         0x080123b8   Section        0  netif.o(i.netif_set_addr)
    i.netif_set_default                      0x08012400   Section        0  netif.o(i.netif_set_default)
    i.netif_set_hwaddr                       0x08012448   Section        0  netif.o(i.netif_set_hwaddr)
    i.nlist_init                             0x0801245e   Section        0  nlist.o(i.nlist_init)
    i.nlist_insert_after                     0x08012468   Section        0  nlist.o(i.nlist_insert_after)
    i.nlist_insert_first                     0x080124a2   Section        0  nlist.o(i.nlist_insert_first)
    i.nlist_insert_last                      0x080124cc   Section        0  nlist.o(i.nlist_insert_last)
    i.nlist_is_empty                         0x080124f6   Section        0  nlist.o(i.nlist_is_empty)
    nlist_is_empty                           0x080124f7   Thumb Code    14  nlist.o(i.nlist_is_empty)
    i.nlist_remove                           0x08012504   Section        0  nlist.o(i.nlist_remove)
    i.nlist_remove_first                     0x0801253a   Section        0  arp.o(i.nlist_remove_first)
    nlist_remove_first                       0x0801253b   Thumb Code    18  arp.o(i.nlist_remove_first)
    i.nlist_remove_first                     0x0801254c   Section        0  ipv4.o(i.nlist_remove_first)
    nlist_remove_first                       0x0801254d   Thumb Code    18  ipv4.o(i.nlist_remove_first)
    i.nlist_remove_first                     0x0801255e   Section        0  pktbuf.o(i.nlist_remove_first)
    nlist_remove_first                       0x0801255f   Thumb Code    18  pktbuf.o(i.nlist_remove_first)
    i.nlist_remove_first                     0x08012570   Section        0  raw.o(i.nlist_remove_first)
    nlist_remove_first                       0x08012571   Thumb Code    18  raw.o(i.nlist_remove_first)
    i.nlist_remove_first                     0x08012582   Section        0  udp.o(i.nlist_remove_first)
    nlist_remove_first                       0x08012583   Thumb Code    18  udp.o(i.nlist_remove_first)
    i.nlocker_destroy                        0x08012594   Section        0  nlocker.o(i.nlocker_destroy)
    i.nlocker_init                           0x080125a2   Section        0  nlocker.o(i.nlocker_init)
    i.nlocker_lock                           0x080125c0   Section        0  nlocker.o(i.nlocker_lock)
    i.nlocker_unlock                         0x080125dc   Section        0  nlocker.o(i.nlocker_unlock)
    i.ntp_time                               0x080125ec   Section        0  ntp.o(i.ntp_time)
    i.os_app_init                            0x0801267c   Section        0  test_net.o(i.os_app_init)
    i.os_app_loop                            0x080126a0   Section        0  test_net.o(i.os_app_loop)
    i.os_bitmap_check                        0x08012804   Section        0  os_core.o(i.os_bitmap_check)
    i.os_bitmap_init                         0x08012874   Section        0  os_core.o(i.os_bitmap_init)
    i.os_enter_protect                       0x08012892   Section        0  os_plat.o(i.os_enter_protect)
    i.os_event_add_wait                      0x0801289a   Section        0  os_event.o(i.os_event_add_wait)
    os_event_add_wait                        0x0801289b   Thumb Code    38  os_event.o(i.os_event_add_wait)
    i.os_event_clear                         0x080128c0   Section        0  os_event.o(i.os_event_clear)
    i.os_event_init                          0x08012906   Section        0  os_event.o(i.os_event_init)
    i.os_event_remove_first                  0x08012932   Section        0  os_event.o(i.os_event_remove_first)
    os_event_remove_first                    0x08012933   Thumb Code    38  os_event.o(i.os_event_remove_first)
    i.os_event_remove_wait                   0x08012958   Section        0  os_event.o(i.os_event_remove_wait)
    os_event_remove_wait                     0x08012959   Thumb Code    70  os_event.o(i.os_event_remove_wait)
    i.os_event_uninit                        0x0801299e   Section        0  os_event.o(i.os_event_uninit)
    i.os_event_wait                          0x080129b8   Section        0  os_event.o(i.os_event_wait)
    i.os_event_wait_cnt                      0x08012a1c   Section        0  os_event.o(i.os_event_wait_cnt)
    i.os_event_wakeup                        0x08012a3a   Section        0  os_event.o(i.os_event_wakeup)
    i.os_event_wakeup_task                   0x08012a68   Section        0  os_event.o(i.os_event_wakeup_task)
    i.os_init                                0x08012ab0   Section        0  os_core.o(i.os_init)
    i.os_leave_protect                       0x08012b40   Section        0  os_plat.o(i.os_leave_protect)
    i.os_list_add_head                       0x08012b46   Section        0  os_list.o(i.os_list_add_head)
    i.os_list_append                         0x08012b70   Section        0  os_list.o(i.os_list_append)
    i.os_list_first                          0x08012ba2   Section        0  os_list.o(i.os_list_first)
    i.os_list_init                           0x08012bba   Section        0  os_list.o(i.os_list_init)
    i.os_list_insert_after                   0x08012bd0   Section        0  os_list.o(i.os_list_insert_after)
    i.os_list_remove                         0x08012c10   Section        0  os_list.o(i.os_list_remove)
    i.os_list_remove_head                    0x08012c56   Section        0  os_list.o(i.os_list_remove_head)
    i.os_mem_alloc                           0x08012c88   Section        0  os_mem.o(i.os_mem_alloc)
    i.os_mem_free                            0x08012c8c   Section        0  os_mem.o(i.os_mem_free)
    i.os_mem_init                            0x08012c90   Section        0  os_mem.o(i.os_mem_init)
    i.os_mutex_create                        0x08012c92   Section        0  os_mutex.o(i.os_mutex_create)
    i.os_mutex_free                          0x08012cbc   Section        0  os_mutex.o(i.os_mutex_free)
    i.os_mutex_init                          0x08012cda   Section        0  os_mutex.o(i.os_mutex_init)
    i.os_mutex_lock                          0x08012cea   Section        0  os_mutex.o(i.os_mutex_lock)
    i.os_mutex_uninit                        0x08012d8e   Section        0  os_mutex.o(i.os_mutex_uninit)
    i.os_mutex_unlock                        0x08012dee   Section        0  os_mutex.o(i.os_mutex_unlock)
    i.os_plat_init                           0x08012e98   Section        0  os_plat.o(i.os_plat_init)
    i.os_queue_create                        0x08012eec   Section        0  os_queue.o(i.os_queue_create)
    i.os_queue_release                       0x08012f46   Section        0  os_queue.o(i.os_queue_release)
    i.os_queue_wait                          0x08012fd2   Section        0  os_queue.o(i.os_queue_wait)
    i.os_sched_run                           0x08013044   Section        0  os_core.o(i.os_sched_run)
    i.os_sched_set_ready                     0x080130ac   Section        0  os_core.o(i.os_sched_set_ready)
    i.os_sched_set_unready                   0x08013108   Section        0  os_core.o(i.os_sched_set_unready)
    i.os_sem_create                          0x08013174   Section        0  os_sem.o(i.os_sem_create)
    i.os_sem_free                            0x080131ae   Section        0  os_sem.o(i.os_sem_free)
    i.os_sem_release                         0x080131d4   Section        0  os_sem.o(i.os_sem_release)
    i.os_sem_uninit                          0x08013220   Section        0  os_sem.o(i.os_sem_uninit)
    i.os_sem_wait                            0x08013254   Section        0  os_sem.o(i.os_sem_wait)
    i.os_start                               0x0801329c   Section        0  os_core.o(i.os_start)
    i.os_switch_ctx                          0x080132b0   Section        0  os_core.o(i.os_switch_ctx)
    i.os_task_create                         0x080132e4   Section        0  os_task.o(i.os_task_create)
    i.os_task_ctx_init                       0x08013350   Section        0  os_plat.o(i.os_task_ctx_init)
    i.os_task_exit                           0x080133a0   Section        0  os_task.o(i.os_task_exit)
    i.os_task_init                           0x080133c4   Section        0  os_task.o(i.os_task_init)
    i.os_task_insert_delete                  0x08013418   Section        0  os_core.o(i.os_task_insert_delete)
    i.os_task_self                           0x08013424   Section        0  os_core.o(i.os_task_self)
    i.os_task_set_delay                      0x08013430   Section        0  os_core.o(i.os_task_set_delay)
    i.os_task_set_wakeup                     0x080134ac   Section        0  os_core.o(i.os_task_set_wakeup)
    i.os_task_sleep                          0x080134c8   Section        0  os_task.o(i.os_task_sleep)
    i.os_task_start                          0x08013500   Section        0  os_task.o(i.os_task_start)
    i.os_task_switch                         0x0801352c   Section        0  os_plat.o(i.os_task_switch)
    i.os_task_switch_to                      0x0801353c   Section        0  os_plat.o(i.os_task_switch_to)
    i.os_tick_count                          0x08013558   Section        0  os_core.o(i.os_tick_count)
    i.os_time_tick                           0x08013570   Section        0  os_core.o(i.os_time_tick)
    i.os_timer_core_init                     0x08013608   Section        0  os_timer.o(i.os_timer_core_init)
    i.ping_run                               0x0801360c   Section        0  ping.o(i.ping_run)
    i.pktblock_alloc                         0x080138e0   Section        0  pktbuf.o(i.pktblock_alloc)
    pktblock_alloc                           0x080138e1   Thumb Code    40  pktbuf.o(i.pktblock_alloc)
    i.pktblock_alloc_list                    0x08013910   Section        0  pktbuf.o(i.pktblock_alloc_list)
    pktblock_alloc_list                      0x08013911   Thumb Code   140  pktbuf.o(i.pktblock_alloc_list)
    i.pktblock_free                          0x080139d8   Section        0  pktbuf.o(i.pktblock_free)
    pktblock_free                            0x080139d9   Thumb Code    28  pktbuf.o(i.pktblock_free)
    i.pktblock_free_list                     0x080139fc   Section        0  pktbuf.o(i.pktblock_free_list)
    pktblock_free_list                       0x080139fd   Thumb Code    30  pktbuf.o(i.pktblock_free_list)
    i.pktbuf_add_header                      0x08013a20   Section        0  pktbuf.o(i.pktbuf_add_header)
    i.pktbuf_alloc                           0x08013b94   Section        0  pktbuf.o(i.pktbuf_alloc)
    i.pktbuf_blk_next                        0x08013c3c   Section        0  pktbuf.o(i.pktbuf_blk_next)
    pktbuf_blk_next                          0x08013c3d   Thumb Code     8  pktbuf.o(i.pktbuf_blk_next)
    i.pktbuf_checksum16                      0x08013c44   Section        0  pktbuf.o(i.pktbuf_checksum16)
    i.pktbuf_copy                            0x08013d78   Section        0  pktbuf.o(i.pktbuf_copy)
    i.pktbuf_data                            0x08013e80   Section        0  arp.o(i.pktbuf_data)
    pktbuf_data                              0x08013e81   Thumb Code    16  arp.o(i.pktbuf_data)
    i.pktbuf_data                            0x08013e90   Section        0  ether.o(i.pktbuf_data)
    pktbuf_data                              0x08013e91   Thumb Code    16  ether.o(i.pktbuf_data)
    i.pktbuf_data                            0x08013ea0   Section        0  icmpv4.o(i.pktbuf_data)
    pktbuf_data                              0x08013ea1   Thumb Code    16  icmpv4.o(i.pktbuf_data)
    i.pktbuf_data                            0x08013eb0   Section        0  ipv4.o(i.pktbuf_data)
    pktbuf_data                              0x08013eb1   Thumb Code    16  ipv4.o(i.pktbuf_data)
    i.pktbuf_data                            0x08013ec0   Section        0  raw.o(i.pktbuf_data)
    pktbuf_data                              0x08013ec1   Thumb Code    16  raw.o(i.pktbuf_data)
    i.pktbuf_data                            0x08013ed0   Section        0  tcp_in.o(i.pktbuf_data)
    pktbuf_data                              0x08013ed1   Thumb Code    16  tcp_in.o(i.pktbuf_data)
    i.pktbuf_data                            0x08013ee0   Section        0  tcp_out.o(i.pktbuf_data)
    pktbuf_data                              0x08013ee1   Thumb Code    16  tcp_out.o(i.pktbuf_data)
    i.pktbuf_data                            0x08013ef0   Section        0  udp.o(i.pktbuf_data)
    pktbuf_data                              0x08013ef1   Thumb Code    16  udp.o(i.pktbuf_data)
    i.pktbuf_fill                            0x08013f00   Section        0  pktbuf.o(i.pktbuf_fill)
    i.pktbuf_first_blk                       0x08013fe0   Section        0  pktbuf.o(i.pktbuf_first_blk)
    pktbuf_first_blk                         0x08013fe1   Thumb Code     8  pktbuf.o(i.pktbuf_first_blk)
    i.pktbuf_free                            0x08013fe8   Section        0  pktbuf.o(i.pktbuf_free)
    i.pktbuf_init                            0x08014020   Section        0  pktbuf.o(i.pktbuf_init)
    i.pktbuf_insert_blk_list                 0x080140c4   Section        0  pktbuf.o(i.pktbuf_insert_blk_list)
    pktbuf_insert_blk_list                   0x080140c5   Thumb Code   100  pktbuf.o(i.pktbuf_insert_blk_list)
    i.pktbuf_join                            0x08014128   Section        0  pktbuf.o(i.pktbuf_join)
    i.pktbuf_read                            0x0801421c   Section        0  pktbuf.o(i.pktbuf_read)
    i.pktbuf_remove_header                   0x08014300   Section        0  pktbuf.o(i.pktbuf_remove_header)
    i.pktbuf_reset_acc                       0x080143b4   Section        0  pktbuf.o(i.pktbuf_reset_acc)
    i.pktbuf_resize                          0x080143d4   Section        0  pktbuf.o(i.pktbuf_resize)
    i.pktbuf_seek                            0x08014560   Section        0  pktbuf.o(i.pktbuf_seek)
    i.pktbuf_set_cont                        0x0801461c   Section        0  pktbuf.o(i.pktbuf_set_cont)
    i.pktbuf_write                           0x0801479c   Section        0  pktbuf.o(i.pktbuf_write)
    i.process_request                        0x08014880   Section        0  httpd.o(i.process_request)
    process_request                          0x08014881   Thumb Code    38  httpd.o(i.process_request)
    i.put_fat                                0x080148ac   Section        0  ff.o(i.put_fat)
    i.queue_copy                             0x080149a2   Section        0  os_queue.o(i.queue_copy)
    queue_copy                               0x080149a3   Thumb Code    42  os_queue.o(i.queue_copy)
    i.queue_init                             0x080149cc   Section        0  os_queue.o(i.queue_init)
    queue_init                               0x080149cd   Thumb Code    76  os_queue.o(i.queue_init)
    i.queue_read_out                         0x08014a18   Section        0  os_queue.o(i.queue_read_out)
    queue_read_out                           0x08014a19   Thumb Code    76  os_queue.o(i.queue_read_out)
    i.queue_write_in                         0x08014a64   Section        0  os_queue.o(i.queue_write_in)
    queue_write_in                           0x08014a65   Thumb Code   136  os_queue.o(i.queue_write_in)
    i.raw_bind                               0x08014aec   Section        0  raw.o(i.raw_bind)
    i.raw_close                              0x08014af0   Section        0  raw.o(i.raw_close)
    i.raw_connect                            0x08014b34   Section        0  raw.o(i.raw_connect)
    i.raw_create                             0x08014b38   Section        0  raw.o(i.raw_create)
    i.raw_find                               0x08014c30   Section        0  raw.o(i.raw_find)
    raw_find                                 0x08014c31   Thumb Code    92  raw.o(i.raw_find)
    i.raw_in                                 0x08014c90   Section        0  raw.o(i.raw_in)
    i.raw_init                               0x08014d38   Section        0  raw.o(i.raw_init)
    i.raw_recvfrom                           0x08014db4   Section        0  raw.o(i.raw_recvfrom)
    raw_recvfrom                             0x08014db5   Thumb Code   158  raw.o(i.raw_recvfrom)
    i.raw_sendto                             0x08014eb4   Section        0  raw.o(i.raw_sendto)
    raw_sendto                               0x08014eb5   Thumb Code   210  raw.o(i.raw_sendto)
    i.remove_chain                           0x08014fdc   Section        0  ff.o(i.remove_chain)
    remove_chain                             0x08014fdd   Thumb Code   102  ff.o(i.remove_chain)
    i.request_parese                         0x08015044   Section        0  httpd.o(i.request_parese)
    request_parese                           0x08015045   Thumb Code   106  httpd.o(i.request_parese)
    i.request_time                           0x080150ec   Section        0  ntp.o(i.request_time)
    i.response_init                          0x08015238   Section        0  httpd.o(i.response_init)
    response_init                            0x08015239   Thumb Code     8  httpd.o(i.response_init)
    i.response_set_property                  0x08015240   Section        0  httpd.o(i.response_set_property)
    response_set_property                    0x08015241   Thumb Code    66  httpd.o(i.response_set_property)
    i.response_set_start                     0x08015282   Section        0  httpd.o(i.response_set_start)
    response_set_start                       0x08015283   Thumb Code    44  httpd.o(i.response_set_start)
    i.response_text                          0x080152b0   Section        0  httpd.o(i.response_text)
    response_text                            0x080152b1   Thumb Code   138  httpd.o(i.response_text)
    i.rt_add                                 0x0801535c   Section        0  ipv4.o(i.rt_add)
    i.rt_find                                0x0801541c   Section        0  ipv4.o(i.rt_find)
    i.rt_init                                0x08015468   Section        0  ipv4.o(i.rt_init)
    i.rt_remove                              0x0801548c   Section        0  ipv4.o(i.rt_remove)
    i.sem_init                               0x08015524   Section        0  os_sem.o(i.sem_init)
    sem_init                                 0x08015525   Thumb Code    40  os_sem.o(i.sem_init)
    i.send_out                               0x0801554c   Section        0  tcp_out.o(i.send_out)
    send_out                                 0x0801554d   Thumb Code   128  tcp_out.o(i.send_out)
    i.set_header_size                        0x080155fc   Section        0  ipv4.o(i.set_header_size)
    set_header_size                          0x080155fd   Thumb Code    18  ipv4.o(i.set_header_size)
    i.show_client_info                       0x08015610   Section        0  httpd.o(i.show_client_info)
    show_client_info                         0x08015611   Thumb Code    60  httpd.o(i.show_client_info)
    i.show_cmd_list                          0x08015670   Section        0  tftp_client.o(i.show_cmd_list)
    i.show_request                           0x0801574c   Section        0  httpd.o(i.show_request)
    show_request                             0x0801574d   Thumb Code    16  httpd.o(i.show_request)
    i.sock_accept_req_in                     0x08015780   Section        0  sock.o(i.sock_accept_req_in)
    i.sock_bind                              0x080158cc   Section        0  sock.o(i.sock_bind)
    i.sock_bind_req_in                       0x0801594c   Section        0  sock.o(i.sock_bind_req_in)
    i.sock_close_req_in                      0x080159bc   Section        0  sock.o(i.sock_close_req_in)
    i.sock_connect                           0x08015a44   Section        0  sock.o(i.sock_connect)
    i.sock_connect_req_in                    0x08015a64   Section        0  sock.o(i.sock_connect_req_in)
    i.sock_create_req_in                     0x08015aec   Section        0  sock.o(i.sock_create_req_in)
    i.sock_destroy_req_in                    0x08015bec   Section        0  sock.o(i.sock_destroy_req_in)
    i.sock_init                              0x08015c60   Section        0  sock.o(i.sock_init)
    i.sock_listen_req_in                     0x08015c90   Section        0  sock.o(i.sock_listen_req_in)
    i.sock_recv                              0x08015d44   Section        0  sock.o(i.sock_recv)
    i.sock_recv_req_in                       0x08015dd8   Section        0  sock.o(i.sock_recv_req_in)
    i.sock_recvfrom_req_in                   0x08015e64   Section        0  sock.o(i.sock_recvfrom_req_in)
    i.sock_send                              0x08015f3c   Section        0  sock.o(i.sock_send)
    i.sock_send_req_in                       0x08015fdc   Section        0  sock.o(i.sock_send_req_in)
    i.sock_sendto_req_in                     0x0801606c   Section        0  sock.o(i.sock_sendto_req_in)
    i.sock_setopt                            0x08016144   Section        0  sock.o(i.sock_setopt)
    i.sock_setsockopt_req_in                 0x08016208   Section        0  sock.o(i.sock_setsockopt_req_in)
    i.sock_uninit                            0x08016278   Section        0  sock.o(i.sock_uninit)
    i.sock_wait_add                          0x0801629e   Section        0  sock.o(i.sock_wait_add)
    i.sock_wait_destroy                      0x080162aa   Section        0  sock.o(i.sock_wait_destroy)
    i.sock_wait_enter                        0x080162b6   Section        0  sock.o(i.sock_wait_enter)
    i.sock_wait_init                         0x080162d0   Section        0  sock.o(i.sock_wait_init)
    i.sock_wait_leave                        0x080162ea   Section        0  sock.o(i.sock_wait_leave)
    i.sock_wakeup                            0x080162fe   Section        0  sock.o(i.sock_wakeup)
    i.socket_alloc                           0x08016334   Section        0  sock.o(i.socket_alloc)
    socket_alloc                             0x08016335   Thumb Code    32  sock.o(i.socket_alloc)
    i.socket_free                            0x08016358   Section        0  sock.o(i.socket_free)
    socket_free                              0x08016359   Thumb Code     8  sock.o(i.socket_free)
    i.socket_init                            0x08016360   Section        0  sock.o(i.socket_init)
    i.st_clust                               0x08016374   Section        0  ff.o(i.st_clust)
    st_clust                                 0x08016375   Thumb Code    16  ff.o(i.st_clust)
    i.sum_sfn                                0x08016384   Section        0  ff.o(i.sum_sfn)
    sum_sfn                                  0x08016385   Thumb Code    26  ff.o(i.sum_sfn)
    i.swap_u16                               0x0801639e   Section        0  arp.o(i.swap_u16)
    swap_u16                                 0x0801639f   Thumb Code    10  arp.o(i.swap_u16)
    i.swap_u16                               0x080163a8   Section        0  dns.o(i.swap_u16)
    swap_u16                                 0x080163a9   Thumb Code    10  dns.o(i.swap_u16)
    i.swap_u16                               0x080163b2   Section        0  ipv4.o(i.swap_u16)
    swap_u16                                 0x080163b3   Thumb Code    10  ipv4.o(i.swap_u16)
    i.swap_u16                               0x080163bc   Section        0  tcp_in.o(i.swap_u16)
    swap_u16                                 0x080163bd   Thumb Code    10  tcp_in.o(i.swap_u16)
    i.swap_u16                               0x080163c6   Section        0  tcp_out.o(i.swap_u16)
    swap_u16                                 0x080163c7   Thumb Code    10  tcp_out.o(i.swap_u16)
    i.swap_u16                               0x080163d0   Section        0  udp.o(i.swap_u16)
    swap_u16                                 0x080163d1   Thumb Code    10  udp.o(i.swap_u16)
    i.swap_u16                               0x080163da   Section        0  tftp.o(i.swap_u16)
    swap_u16                                 0x080163db   Thumb Code    10  tftp.o(i.swap_u16)
    i.swap_u32                               0x080163e4   Section        0  tcp_in.o(i.swap_u32)
    swap_u32                                 0x080163e5   Thumb Code    24  tcp_in.o(i.swap_u32)
    i.swap_u32                               0x080163fc   Section        0  tcp_out.o(i.swap_u32)
    swap_u32                                 0x080163fd   Thumb Code    24  tcp_out.o(i.swap_u32)
    i.swap_u32                               0x08016414   Section        0  ntp.o(i.swap_u32)
    swap_u32                                 0x08016415   Thumb Code    24  ntp.o(i.swap_u32)
    i.sync_fs                                0x0801642c   Section        0  ff.o(i.sync_fs)
    sync_fs                                  0x0801642d   Thumb Code   180  ff.o(i.sync_fs)
    i.sync_window                            0x080164e0   Section        0  ff.o(i.sync_window)
    sync_window                              0x080164e1   Thumb Code    82  ff.o(i.sync_window)
    i.sys_intlocker_lock                     0x08016532   Section        0  sys_plat.o(i.sys_intlocker_lock)
    i.sys_intlocker_unlock                   0x08016536   Section        0  sys_plat.o(i.sys_intlocker_unlock)
    i.sys_mutex_create                       0x0801653a   Section        0  sys_plat.o(i.sys_mutex_create)
    i.sys_mutex_free                         0x0801653e   Section        0  sys_plat.o(i.sys_mutex_free)
    i.sys_mutex_lock                         0x08016542   Section        0  sys_plat.o(i.sys_mutex_lock)
    i.sys_mutex_unlock                       0x08016548   Section        0  sys_plat.o(i.sys_mutex_unlock)
    i.sys_sem_create                         0x0801654c   Section        0  sys_plat.o(i.sys_sem_create)
    i.sys_sem_free                           0x08016554   Section        0  sys_plat.o(i.sys_sem_free)
    i.sys_sem_notify                         0x08016558   Section        0  sys_plat.o(i.sys_sem_notify)
    i.sys_sem_wait                           0x0801655c   Section        0  sys_plat.o(i.sys_sem_wait)
    i.sys_sleep                              0x0801657e   Section        0  sys_plat.o(i.sys_sleep)
    i.sys_thread_create                      0x08016582   Section        0  sys_plat.o(i.sys_thread_create)
    i.sys_thread_exit                        0x080165aa   Section        0  sys_plat.o(i.sys_thread_exit)
    i.sys_thread_self                        0x080165ae   Section        0  sys_plat.o(i.sys_thread_self)
    i.sys_time_curr                          0x080165b2   Section        0  sys_plat.o(i.sys_time_curr)
    i.sys_time_goes                          0x080165be   Section        0  sys_plat.o(i.sys_time_goes)
    i.task_insert_os                         0x080165d8   Section        0  os_core.o(i.task_insert_os)
    i.tcp_ack_process                        0x080165ec   Section        0  tcp_out.o(i.tcp_ack_process)
    i.tcp_begin_rto                          0x080166f4   Section        0  tcp_out.o(i.tcp_begin_rto)
    tcp_begin_rto                            0x080166f5   Thumb Code    92  tcp_out.o(i.tcp_begin_rto)
    i.tcp_buf_init                           0x08016784   Section        0  tcp_buf.o(i.tcp_buf_init)
    i.tcp_buf_read_rcv                       0x08016792   Section        0  tcp_buf.o(i.tcp_buf_read_rcv)
    i.tcp_buf_read_send                      0x080167cc   Section        0  tcp_buf.o(i.tcp_buf_read_send)
    i.tcp_buf_remove                         0x080168b4   Section        0  tcp_buf.o(i.tcp_buf_remove)
    i.tcp_buf_write_rcv                      0x080168d6   Section        0  tcp_buf.o(i.tcp_buf_write_rcv)
    i.tcp_buf_write_send                     0x08016930   Section        0  tcp_buf.o(i.tcp_buf_write_send)
    i.tcp_cal_rto                            0x0801695c   Section        0  tcp_out.o(i.tcp_cal_rto)
    i.tcp_cal_snd_win                        0x08016a78   Section        0  tcp_out.o(i.tcp_cal_snd_win)
    i.tcp_close_wait_in                      0x08016aac   Section        0  tcp_state.o(i.tcp_close_wait_in)
    i.tcp_closed_in                          0x08016bc4   Section        0  tcp_state.o(i.tcp_closed_in)
    i.tcp_closing_in                         0x08016c38   Section        0  tcp_state.o(i.tcp_closing_in)
    i.tcp_data_in                            0x08016d6c   Section        0  tcp_in.o(i.tcp_data_in)
    i.tcp_echo_server_start                  0x08016e60   Section        0  tcp_echo_server.o(i.tcp_echo_server_start)
    i.tcp_echo_server_thread                 0x08016ec0   Section        0  tcp_echo_server.o(i.tcp_echo_server_thread)
    tcp_echo_server_thread                   0x08016ec1   Thumb Code   202  tcp_echo_server.o(i.tcp_echo_server_thread)
    i.tcp_established_in                     0x08017020   Section        0  tcp_state.o(i.tcp_established_in)
    i.tcp_fin_wait_1_in                      0x08017158   Section        0  tcp_state.o(i.tcp_fin_wait_1_in)
    i.tcp_fin_wait_2_in                      0x080172a0   Section        0  tcp_state.o(i.tcp_fin_wait_2_in)
    i.tcp_hdr_size                           0x080173d0   Section        0  tcp_in.o(i.tcp_hdr_size)
    tcp_hdr_size                             0x080173d1   Thumb Code     8  tcp_in.o(i.tcp_hdr_size)
    i.tcp_in                                 0x080173d8   Section        0  tcp_in.o(i.tcp_in)
    i.tcp_last_ack_in                        0x08017694   Section        0  tcp_state.o(i.tcp_last_ack_in)
    i.tcp_listen_in                          0x080177b8   Section        0  tcp_state.o(i.tcp_listen_in)
    i.tcp_ostate_idle_in                     0x080178f4   Section        0  tcp_out.o(i.tcp_ostate_idle_in)
    tcp_ostate_idle_in                       0x080178f5   Thumb Code    60  tcp_out.o(i.tcp_ostate_idle_in)
    i.tcp_ostate_name                        0x08017930   Section        0  tcp_out.o(i.tcp_ostate_name)
    i.tcp_ostate_persist_in                  0x0801794c   Section        0  tcp_out.o(i.tcp_ostate_persist_in)
    tcp_ostate_persist_in                    0x0801794d   Thumb Code    78  tcp_out.o(i.tcp_ostate_persist_in)
    i.tcp_ostate_rexmit_in                   0x0801799c   Section        0  tcp_out.o(i.tcp_ostate_rexmit_in)
    tcp_ostate_rexmit_in                     0x0801799d   Thumb Code   172  tcp_out.o(i.tcp_ostate_rexmit_in)
    i.tcp_ostate_sending_in                  0x08017a90   Section        0  tcp_out.o(i.tcp_ostate_sending_in)
    tcp_ostate_sending_in                    0x08017a91   Thumb Code   158  tcp_out.o(i.tcp_ostate_sending_in)
    i.tcp_out_event                          0x08017b30   Section        0  tcp_out.o(i.tcp_out_event)
    i.tcp_out_timer_tmo                      0x08017b9c   Section        0  tcp_out.o(i.tcp_out_timer_tmo)
    tcp_out_timer_tmo                        0x08017b9d   Thumb Code   452  tcp_out.o(i.tcp_out_timer_tmo)
    i.tcp_read_options                       0x08017dec   Section        0  tcp_state.o(i.tcp_read_options)
    i.tcp_retransmit                         0x08017e38   Section        0  tcp_out.o(i.tcp_retransmit)
    i.tcp_seg_init                           0x08017fd4   Section        0  tcp_in.o(i.tcp_seg_init)
    i.tcp_send_ack                           0x08018024   Section        0  tcp_out.o(i.tcp_send_ack)
    i.tcp_send_fin                           0x080180e0   Section        0  tcp_out.o(i.tcp_send_fin)
    i.tcp_send_keepalive                     0x080180f4   Section        0  tcp_out.o(i.tcp_send_keepalive)
    i.tcp_send_reset                         0x0801819c   Section        0  tcp_out.o(i.tcp_send_reset)
    i.tcp_send_reset_for_tcp                 0x08018284   Section        0  tcp_out.o(i.tcp_send_reset_for_tcp)
    i.tcp_send_syn                           0x08018330   Section        0  tcp_out.o(i.tcp_send_syn)
    i.tcp_send_win_update                    0x08018344   Section        0  tcp_out.o(i.tcp_send_win_update)
    i.tcp_seq_acceptable                     0x080183ec   Section        0  tcp_in.o(i.tcp_seq_acceptable)
    tcp_seq_acceptable                       0x080183ed   Thumb Code   128  tcp_in.o(i.tcp_seq_acceptable)
    i.tcp_set_hdr_size                       0x0801846c   Section        0  tcp_out.o(i.tcp_set_hdr_size)
    tcp_set_hdr_size                         0x0801846d   Thumb Code    18  tcp_out.o(i.tcp_set_hdr_size)
    i.tcp_set_ostate                         0x08018480   Section        0  tcp_out.o(i.tcp_set_ostate)
    i.tcp_set_state                          0x08018544   Section        0  tcp_state.o(i.tcp_set_state)
    i.tcp_snd_done                           0x0801854a   Section        0  tcp_state.o(i.tcp_snd_done)
    tcp_snd_done                             0x0801854b   Thumb Code    12  tcp_state.o(i.tcp_snd_done)
    i.tcp_state_name                         0x08018558   Section        0  tcp_state.o(i.tcp_state_name)
    i.tcp_syn_recvd_in                       0x0801856c   Section        0  tcp_state.o(i.tcp_syn_recvd_in)
    i.tcp_syn_sent_in                        0x080186d8   Section        0  tcp_state.o(i.tcp_syn_sent_in)
    i.tcp_time_wait                          0x08018838   Section        0  tcp_state.o(i.tcp_time_wait)
    i.tcp_time_wait_in                       0x08018888   Section        0  tcp_state.o(i.tcp_time_wait_in)
    i.tcp_timewait_tmo                       0x0801899c   Section        0  tcp_state.o(i.tcp_timewait_tmo)
    i.tcp_transmit                           0x080189ec   Section        0  tcp_out.o(i.tcp_transmit)
    i.tcp_transmit_most                      0x08018b80   Section        0  tcp_out.o(i.tcp_transmit_most)
    tcp_transmit_most                        0x08018b81   Thumb Code    76  tcp_out.o(i.tcp_transmit_most)
    i.tcp_write_sndbuf                       0x08018bcc   Section        0  tcp_out.o(i.tcp_write_sndbuf)
    i.tftp_close                             0x08018bf8   Section        0  tftp_client.o(i.tftp_close)
    tftp_close                               0x08018bf9   Thumb Code     8  tftp_client.o(i.tftp_close)
    i.tftp_error_msg                         0x08018c04   Section        0  tftp.o(i.tftp_error_msg)
    i.tftp_get                               0x08018c18   Section        0  tftp_client.o(i.tftp_get)
    i.tftp_open                              0x08018c64   Section        0  tftp_client.o(i.tftp_open)
    tftp_open                                0x08018c65   Thumb Code   120  tftp_client.o(i.tftp_open)
    i.tftp_parse_oack                        0x08018d04   Section        0  tftp.o(i.tftp_parse_oack)
    i.tftp_put                               0x08018e24   Section        0  tftp_client.o(i.tftp_put)
    i.tftp_resend                            0x08018e70   Section        0  tftp.o(i.tftp_resend)
    i.tftp_send_ack                          0x08018eb4   Section        0  tftp.o(i.tftp_send_ack)
    i.tftp_send_data                         0x08018f18   Section        0  tftp.o(i.tftp_send_data)
    i.tftp_send_error                        0x08018f84   Section        0  tftp.o(i.tftp_send_error)
    i.tftp_send_oack                         0x08019000   Section        0  tftp.o(i.tftp_send_oack)
    i.tftp_send_packet                       0x08019074   Section        0  tftp.o(i.tftp_send_packet)
    i.tftp_send_request                      0x080190b8   Section        0  tftp.o(i.tftp_send_request)
    i.tftp_server_thread                     0x08019194   Section        0  tftp_server.o(i.tftp_server_thread)
    tftp_server_thread                       0x08019195   Thumb Code   122  tftp_server.o(i.tftp_server_thread)
    i.tftp_start                             0x0801926c   Section        0  tftp_client.o(i.tftp_start)
    i.tftp_wait_packet                       0x0801946c   Section        0  tftp.o(i.tftp_wait_packet)
    i.tftp_working_thread                    0x080195ac   Section        0  tftp_server.o(i.tftp_working_thread)
    tftp_working_thread                      0x080195ad   Thumb Code   184  tftp_server.o(i.tftp_working_thread)
    i.tftpd_start                            0x080196a4   Section        0  tftp_server.o(i.tftpd_start)
    i.tools_init                             0x08019734   Section        0  tools.o(i.tools_init)
    i.uart_init                              0x080197c4   Section        0  usart.o(i.uart_init)
    i.udp_bind                               0x08019880   Section        0  udp.o(i.udp_bind)
    i.udp_close                              0x08019964   Section        0  udp.o(i.udp_close)
    i.udp_connect                            0x080199a4   Section        0  udp.o(i.udp_connect)
    i.udp_create                             0x080199b0   Section        0  udp.o(i.udp_create)
    i.udp_echo_server                        0x08019aa8   Section        0  udp_echo_server.o(i.udp_echo_server)
    udp_echo_server                          0x08019aa9   Thumb Code   198  udp_echo_server.o(i.udp_echo_server)
    i.udp_echo_server_start                  0x08019be4   Section        0  udp_echo_server.o(i.udp_echo_server_start)
    i.udp_find                               0x08019c3c   Section        0  udp.o(i.udp_find)
    udp_find                                 0x08019c3d   Thumb Code   102  udp.o(i.udp_find)
    i.udp_in                                 0x08019ca8   Section        0  udp.o(i.udp_in)
    i.udp_init                               0x08019ed4   Section        0  udp.o(i.udp_init)
    i.udp_out                                0x08019f58   Section        0  udp.o(i.udp_out)
    i.udp_recvfrom                           0x0801a098   Section        0  udp.o(i.udp_recvfrom)
    i.udp_sendto                             0x0801a1b8   Section        0  udp.o(i.udp_sendto)
    i.unlock_fs                              0x0801a328   Section        0  ff.o(i.unlock_fs)
    unlock_fs                                0x0801a329   Thumb Code    28  ff.o(i.unlock_fs)
    i.usart_read                             0x0801a344   Section        0  usart.o(i.usart_read)
    i.usart_write                            0x0801a35c   Section        0  usart.o(i.usart_write)
    i.valid_request                          0x0801a37c   Section        0  httpd.o(i.valid_request)
    valid_request                            0x0801a37d   Thumb Code   132  httpd.o(i.valid_request)
    i.validate                               0x0801a44c   Section        0  ff.o(i.validate)
    validate                                 0x0801a44d   Thumb Code    58  ff.o(i.validate)
    i.wait_for_req                           0x0801a488   Section        0  tftp_server.o(i.wait_for_req)
    wait_for_req                             0x0801a489   Thumb Code   362  tftp_server.o(i.wait_for_req)
    i.work_thread                            0x0801a678   Section        0  exmsg.o(i.work_thread)
    work_thread                              0x0801a679   Thumb Code   128  exmsg.o(i.work_thread)
    i.write_option                           0x0801a744   Section        0  tftp.o(i.write_option)
    write_option                             0x0801a745   Thumb Code    96  tftp.o(i.write_option)
    i.write_sync_option                      0x0801a7c8   Section        0  tcp_out.o(i.write_sync_option)
    write_sync_option                        0x0801a7c9   Thumb Code   106  tcp_out.o(i.write_sync_option)
    i.x_accept                               0x0801a854   Section        0  socket.o(i.x_accept)
    i.x_bind                                 0x0801a960   Section        0  socket.o(i.x_bind)
    i.x_close                                0x0801aa24   Section        0  socket.o(i.x_close)
    i.x_connect                              0x0801aabc   Section        0  socket.o(i.x_connect)
    i.x_gethostbyname_r                      0x0801abf8   Section        0  socket.o(i.x_gethostbyname_r)
    i.x_inet_addr                            0x0801ae20   Section        0  netapi.o(i.x_inet_addr)
    i.x_inet_ntoa                            0x0801ae38   Section        0  netapi.o(i.x_inet_ntoa)
    i.x_inet_ntop                            0x0801ae6c   Section        0  netapi.o(i.x_inet_ntop)
    i.x_listen                               0x0801aebc   Section        0  socket.o(i.x_listen)
    i.x_read                                 0x0801af1c   Section        0  socket.o(i.x_read)
    i.x_recv                                 0x0801af24   Section        0  socket.o(i.x_recv)
    i.x_recvfrom                             0x0801b008   Section        0  socket.o(i.x_recvfrom)
    i.x_send                                 0x0801b138   Section        0  socket.o(i.x_send)
    i.x_sendto                               0x0801b200   Section        0  socket.o(i.x_sendto)
    i.x_setsockopt                           0x0801b338   Section        0  socket.o(i.x_setsockopt)
    i.x_socket                               0x0801b3d4   Section        0  socket.o(i.x_socket)
    i.x_write                                0x0801b448   Section        0  socket.o(i.x_write)
    locale$$code                             0x0801b450   Section       44  lc_ctype_c.o(locale$$code)
    locale$$code                             0x0801b47c   Section       44  lc_numeric_c.o(locale$$code)
    x$fpl$d2f                                0x0801b4a8   Section       98  d2f.o(x$fpl$d2f)
    x$fpl$dcheck1                            0x0801b50c   Section       16  dcheck1.o(x$fpl$dcheck1)
    x$fpl$dcmpinf                            0x0801b51c   Section       24  dcmpi.o(x$fpl$dcmpinf)
    x$fpl$deqf                               0x0801b534   Section      120  deqf.o(x$fpl$deqf)
    x$fpl$dfixu                              0x0801b5ac   Section       90  dfixu.o(x$fpl$dfixu)
    x$fpl$dfltu                              0x0801b606   Section       38  dflt_clz.o(x$fpl$dfltu)
    x$fpl$dleqf                              0x0801b62c   Section      120  dleqf.o(x$fpl$dleqf)
    x$fpl$dmul                               0x0801b6a4   Section      340  dmul.o(x$fpl$dmul)
    x$fpl$dnaninf                            0x0801b7f8   Section      156  dnaninf.o(x$fpl$dnaninf)
    x$fpl$dretinf                            0x0801b894   Section       12  dretinf.o(x$fpl$dretinf)
    x$fpl$drleqf                             0x0801b8a0   Section      108  drleqf.o(x$fpl$drleqf)
    x$fpl$fretinf                            0x0801b90c   Section       10  fretinf.o(x$fpl$fretinf)
    x$fpl$printf1                            0x0801b916   Section        4  printf1.o(x$fpl$printf1)
    x$fpl$printf2                            0x0801b91a   Section        4  printf2.o(x$fpl$printf2)
    x$fpl$retnan                             0x0801b91e   Section      100  retnan.o(x$fpl$retnan)
    x$fpl$scalbn                             0x0801b982   Section       92  scalbn.o(x$fpl$scalbn)
    x$fpl$scanf1                             0x0801b9de   Section        4  scanf1.o(x$fpl$scanf1)
    x$fpl$scanf2                             0x0801b9e2   Section        8  scanf2.o(x$fpl$scanf2)
    x$fpl$trapveneer                         0x0801b9ea   Section       48  trapv.o(x$fpl$trapveneer)
    .constdata                               0x0801ba1a   Section      256  os_core.o(.constdata)
    x$fpl$usenofp                            0x0801ba1a   Section        0  usenofp.o(x$fpl$usenofp)
    map_table                                0x0801ba1a   Data         256  os_core.o(.constdata)
    .constdata                               0x0801bb1a   Section       12  os_plat.o(.constdata)
    .constdata                               0x0801bb26   Section      156  arp.o(.constdata)
    empty_hwaddr                             0x0801bb26   Data           6  arp.o(.constdata)
    __FUNCTION__                             0x0801bb2c   Data           7  arp.o(.constdata)
    __FUNCTION__                             0x0801bb33   Data          16  arp.o(.constdata)
    __FUNCTION__                             0x0801bb43   Data          15  arp.o(.constdata)
    __FUNCTION__                             0x0801bb52   Data          12  arp.o(.constdata)
    __FUNCTION__                             0x0801bb5e   Data          13  arp.o(.constdata)
    __FUNCTION__                             0x0801bb6b   Data          22  arp.o(.constdata)
    __FUNCTION__                             0x0801bb81   Data          14  arp.o(.constdata)
    __FUNCTION__                             0x0801bb8f   Data           9  arp.o(.constdata)
    __FUNCTION__                             0x0801bb98   Data          20  arp.o(.constdata)
    __FUNCTION__                             0x0801bbac   Data          10  arp.o(.constdata)
    __FUNCTION__                             0x0801bbb6   Data          12  arp.o(.constdata)
    .constdata                               0x0801bbc2   Section      114  dns.o(.constdata)
    __FUNCTION__                             0x0801bbc2   Data           7  dns.o(.constdata)
    __FUNCTION__                             0x0801bbc9   Data          16  dns.o(.constdata)
    __FUNCTION__                             0x0801bbd9   Data          15  dns.o(.constdata)
    __FUNCTION__                             0x0801bbe8   Data          18  dns.o(.constdata)
    __FUNCTION__                             0x0801bbfa   Data          23  dns.o(.constdata)
    __FUNCTION__                             0x0801bc11   Data          15  dns.o(.constdata)
    __FUNCTION__                             0x0801bc20   Data          11  dns.o(.constdata)
    __FUNCTION__                             0x0801bc2b   Data           9  dns.o(.constdata)
    .constdata                               0x0801bc34   Section       71  ether.o(.constdata)
    broadcast_addr                           0x0801bc34   Data           6  ether.o(.constdata)
    __FUNCTION__                             0x0801bc3a   Data          10  ether.o(.constdata)
    __FUNCTION__                             0x0801bc44   Data           9  ether.o(.constdata)
    __FUNCTION__                             0x0801bc4d   Data          14  ether.o(.constdata)
    link_layer                               0x0801bc5c   Data          20  ether.o(.constdata)
    __FUNCTION__                             0x0801bc70   Data          11  ether.o(.constdata)
    .constdata                               0x0801bc7b   Section       74  exmsg.o(.constdata)
    __FUNCTION__                             0x0801bc7b   Data           8  exmsg.o(.constdata)
    __FUNCTION__                             0x0801bc83   Data          15  exmsg.o(.constdata)
    __FUNCTION__                             0x0801bc92   Data          12  exmsg.o(.constdata)
    __FUNCTION__                             0x0801bc9e   Data          16  exmsg.o(.constdata)
    __FUNCTION__                             0x0801bcae   Data          11  exmsg.o(.constdata)
    __FUNCTION__                             0x0801bcb9   Data          12  exmsg.o(.constdata)
    .constdata                               0x0801bcc5   Section       10  fixq.o(.constdata)
    __FUNCTION__                             0x0801bcc5   Data          10  fixq.o(.constdata)
    .constdata                               0x0801bccf   Section       51  icmpv4.o(.constdata)
    __FUNCTION__                             0x0801bccf   Data          19  icmpv4.o(.constdata)
    __FUNCTION__                             0x0801bce2   Data          10  icmpv4.o(.constdata)
    __FUNCTION__                             0x0801bcec   Data          10  icmpv4.o(.constdata)
    __FUNCTION__                             0x0801bcf6   Data          12  icmpv4.o(.constdata)
    .constdata                               0x0801bd02   Section      122  ipv4.o(.constdata)
    __FUNCTION__                             0x0801bd02   Data           7  ipv4.o(.constdata)
    __FUNCTION__                             0x0801bd09   Data           8  ipv4.o(.constdata)
    __FUNCTION__                             0x0801bd11   Data          10  ipv4.o(.constdata)
    __FUNCTION__                             0x0801bd1b   Data          12  ipv4.o(.constdata)
    __FUNCTION__                             0x0801bd27   Data          10  ipv4.o(.constdata)
    __FUNCTION__                             0x0801bd31   Data          13  ipv4.o(.constdata)
    __FUNCTION__                             0x0801bd3e   Data          11  ipv4.o(.constdata)
    __FUNCTION__                             0x0801bd49   Data          12  ipv4.o(.constdata)
    __FUNCTION__                             0x0801bd55   Data           9  ipv4.o(.constdata)
    __FUNCTION__                             0x0801bd5e   Data          10  ipv4.o(.constdata)
    __FUNCTION__                             0x0801bd68   Data          10  ipv4.o(.constdata)
    __FUNCTION__                             0x0801bd72   Data          10  ipv4.o(.constdata)
    .constdata                               0x0801bd7c   Section       32  loop.o(.constdata)
    loop_driver                              0x0801bd7c   Data          12  loop.o(.constdata)
    __FUNCTION__                             0x0801bd88   Data          10  loop.o(.constdata)
    __FUNCTION__                             0x0801bd92   Data          10  loop.o(.constdata)
    .constdata                               0x0801bd9c   Section       12  mblock.o(.constdata)
    __FUNCTION__                             0x0801bd9c   Data          12  mblock.o(.constdata)
    .constdata                               0x0801bda8   Section       19  net.o(.constdata)
    __FUNCTION__                             0x0801bda8   Data           9  net.o(.constdata)
    __FUNCTION__                             0x0801bdb1   Data          10  net.o(.constdata)
    .constdata                               0x0801bdbb   Section      155  netif.o(.constdata)
    __FUNCTION__                             0x0801bdbb   Data          11  netif.o(.constdata)
    __FUNCTION__                             0x0801bdc6   Data          21  netif.o(.constdata)
    __FUNCTION__                             0x0801bddb   Data          11  netif.o(.constdata)
    __FUNCTION__                             0x0801bde6   Data          17  netif.o(.constdata)
    __FUNCTION__                             0x0801bdf7   Data          19  netif.o(.constdata)
    __FUNCTION__                             0x0801be0a   Data          12  netif.o(.constdata)
    __FUNCTION__                             0x0801be16   Data          13  netif.o(.constdata)
    __FUNCTION__                             0x0801be23   Data          14  netif.o(.constdata)
    __FUNCTION__                             0x0801be31   Data          13  netif.o(.constdata)
    __FUNCTION__                             0x0801be3e   Data          14  netif.o(.constdata)
    __FUNCTION__                             0x0801be4c   Data          10  netif.o(.constdata)
    .constdata                               0x0801be56   Section      205  pktbuf.o(.constdata)
    __FUNCTION__                             0x0801be56   Data          20  pktbuf.o(.constdata)
    __FUNCTION__                             0x0801be6a   Data          13  pktbuf.o(.constdata)
    __FUNCTION__                             0x0801be77   Data          18  pktbuf.o(.constdata)
    __FUNCTION__                             0x0801be89   Data          21  pktbuf.o(.constdata)
    __FUNCTION__                             0x0801be9e   Data          14  pktbuf.o(.constdata)
    __FUNCTION__                             0x0801beac   Data          12  pktbuf.o(.constdata)
    __FUNCTION__                             0x0801beb8   Data          16  pktbuf.o(.constdata)
    __FUNCTION__                             0x0801bec8   Data          12  pktbuf.o(.constdata)
    __FUNCTION__                             0x0801bed4   Data          13  pktbuf.o(.constdata)
    __FUNCTION__                             0x0801bee1   Data          12  pktbuf.o(.constdata)
    __FUNCTION__                             0x0801beed   Data          12  pktbuf.o(.constdata)
    __FUNCTION__                             0x0801bef9   Data          12  pktbuf.o(.constdata)
    __FUNCTION__                             0x0801bf05   Data          12  pktbuf.o(.constdata)
    __FUNCTION__                             0x0801bf11   Data          18  pktbuf.o(.constdata)
    .constdata                               0x0801bf24   Section       96  raw.o(.constdata)
    __FUNCTION__                             0x0801bf24   Data           7  raw.o(.constdata)
    __FUNCTION__                             0x0801bf2b   Data          11  raw.o(.constdata)
    __FUNCTION__                             0x0801bf36   Data          13  raw.o(.constdata)
    raw_ops                                  0x0801bf44   Data          44  raw.o(.constdata)
    __FUNCTION__                             0x0801bf70   Data          11  raw.o(.constdata)
    __FUNCTION__                             0x0801bf7b   Data           9  raw.o(.constdata)
    .constdata                               0x0801bf84   Section      303  sock.o(.constdata)
    sock_tbl                                 0x0801bf84   Data          32  sock.o(.constdata)
    __FUNCTION__                             0x0801bfa4   Data          19  sock.o(.constdata)
    __FUNCTION__                             0x0801bfb7   Data          18  sock.o(.constdata)
    __FUNCTION__                             0x0801bfc9   Data          20  sock.o(.constdata)
    __FUNCTION__                             0x0801bfdd   Data          20  sock.o(.constdata)
    __FUNCTION__                             0x0801bff1   Data          10  sock.o(.constdata)
    __FUNCTION__                             0x0801bffb   Data          17  sock.o(.constdata)
    __FUNCTION__                             0x0801c00c   Data          19  sock.o(.constdata)
    __FUNCTION__                             0x0801c01f   Data          21  sock.o(.constdata)
    __FUNCTION__                             0x0801c034   Data          12  sock.o(.constdata)
    __FUNCTION__                             0x0801c040   Data          23  sock.o(.constdata)
    __FUNCTION__                             0x0801c057   Data          10  sock.o(.constdata)
    __FUNCTION__                             0x0801c061   Data          17  sock.o(.constdata)
    __FUNCTION__                             0x0801c072   Data          10  sock.o(.constdata)
    __FUNCTION__                             0x0801c07c   Data          17  sock.o(.constdata)
    __FUNCTION__                             0x0801c08d   Data          19  sock.o(.constdata)
    __FUNCTION__                             0x0801c0a0   Data          19  sock.o(.constdata)
    .constdata                               0x0801c0b3   Section      117  socket.o(.constdata)
    __FUNCTION__                             0x0801c0b3   Data           7  socket.o(.constdata)
    __FUNCTION__                             0x0801c0ba   Data           7  socket.o(.constdata)
    __FUNCTION__                             0x0801c0c1   Data           7  socket.o(.constdata)
    __FUNCTION__                             0x0801c0c8   Data           8  socket.o(.constdata)
    __FUNCTION__                             0x0801c0d0   Data           9  socket.o(.constdata)
    __FUNCTION__                             0x0801c0d9   Data          10  socket.o(.constdata)
    __FUNCTION__                             0x0801c0e3   Data           9  socket.o(.constdata)
    __FUNCTION__                             0x0801c0ec   Data          11  socket.o(.constdata)
    __FUNCTION__                             0x0801c0f7   Data          13  socket.o(.constdata)
    __FUNCTION__                             0x0801c104   Data          18  socket.o(.constdata)
    __FUNCTION__                             0x0801c116   Data           9  socket.o(.constdata)
    __FUNCTION__                             0x0801c11f   Data           9  socket.o(.constdata)
    .constdata                               0x0801c128   Section       18  tcp_buf.o(.constdata)
    __FUNCTION__                             0x0801c128   Data          18  tcp_buf.o(.constdata)
    .constdata                               0x0801c13c   Section       88  tcp_in.o(.constdata)
    __FUNCTION__                             0x0801c13c   Data           7  tcp_in.o(.constdata)
    __FUNCTION__                             0x0801c143   Data          20  tcp_in.o(.constdata)
    __FUNCTION__                             0x0801c157   Data          12  tcp_in.o(.constdata)
    tcp_state_proc                           0x0801c164   Data          48  tcp_in.o(.constdata)
    .constdata                               0x0801c194   Section      254  tcp_out.o(.constdata)
    __FUNCTION__                             0x0801c194   Data           9  tcp_out.o(.constdata)
    __FUNCTION__                             0x0801c19d   Data          15  tcp_out.o(.constdata)
    __FUNCTION__                             0x0801c1ac   Data          20  tcp_out.o(.constdata)
    __FUNCTION__                             0x0801c1c0   Data          13  tcp_out.o(.constdata)
    __FUNCTION__                             0x0801c1cd   Data          19  tcp_out.o(.constdata)
    __FUNCTION__                             0x0801c1e0   Data          23  tcp_out.o(.constdata)
    __FUNCTION__                             0x0801c1f7   Data          18  tcp_out.o(.constdata)
    __FUNCTION__                             0x0801c209   Data          15  tcp_out.o(.constdata)
    __FUNCTION__                             0x0801c218   Data          13  tcp_out.o(.constdata)
    __FUNCTION__                             0x0801c225   Data          15  tcp_out.o(.constdata)
    __FUNCTION__                             0x0801c234   Data          14  tcp_out.o(.constdata)
    __FUNCTION__                             0x0801c242   Data          12  tcp_out.o(.constdata)
    __FUNCTION__                             0x0801c24e   Data          18  tcp_out.o(.constdata)
    __FUNCTION__                             0x0801c260   Data          15  tcp_out.o(.constdata)
    __FUNCTION__                             0x0801c26f   Data          21  tcp_out.o(.constdata)
    __FUNCTION__                             0x0801c284   Data          14  tcp_out.o(.constdata)
    .constdata                               0x0801c292   Section      199  tcp_state.o(.constdata)
    __FUNCTION__                             0x0801c292   Data          17  tcp_state.o(.constdata)
    __FUNCTION__                             0x0801c2a3   Data          14  tcp_state.o(.constdata)
    __FUNCTION__                             0x0801c2b1   Data          16  tcp_state.o(.constdata)
    __FUNCTION__                             0x0801c2c1   Data          19  tcp_state.o(.constdata)
    __FUNCTION__                             0x0801c2d4   Data          18  tcp_state.o(.constdata)
    __FUNCTION__                             0x0801c2e6   Data          16  tcp_state.o(.constdata)
    __FUNCTION__                             0x0801c2f6   Data          18  tcp_state.o(.constdata)
    __FUNCTION__                             0x0801c308   Data          18  tcp_state.o(.constdata)
    __FUNCTION__                             0x0801c31a   Data          15  tcp_state.o(.constdata)
    __FUNCTION__                             0x0801c329   Data          17  tcp_state.o(.constdata)
    __FUNCTION__                             0x0801c33a   Data          14  tcp_state.o(.constdata)
    __FUNCTION__                             0x0801c348   Data          17  tcp_state.o(.constdata)
    .constdata                               0x0801c359   Section       66  timer.o(.constdata)
    __FUNCTION__                             0x0801c359   Data          14  timer.o(.constdata)
    __FUNCTION__                             0x0801c367   Data          15  timer.o(.constdata)
    __FUNCTION__                             0x0801c376   Data          17  timer.o(.constdata)
    __FUNCTION__                             0x0801c387   Data          20  timer.o(.constdata)
    .constdata                               0x0801c39b   Section       11  tools.o(.constdata)
    __FUNCTION__                             0x0801c39b   Data          11  tools.o(.constdata)
    .constdata                               0x0801c3a8   Section      122  udp.o(.constdata)
    __FUNCTION__                             0x0801c3a8   Data           7  udp.o(.constdata)
    __FUNCTION__                             0x0801c3af   Data           8  udp.o(.constdata)
    __FUNCTION__                             0x0801c3b7   Data           9  udp.o(.constdata)
    __FUNCTION__                             0x0801c3c0   Data          11  udp.o(.constdata)
    __FUNCTION__                             0x0801c3cb   Data          13  udp.o(.constdata)
    udp_ops                                  0x0801c3d8   Data          44  udp.o(.constdata)
    __FUNCTION__                             0x0801c404   Data          11  udp.o(.constdata)
    __FUNCTION__                             0x0801c40f   Data           9  udp.o(.constdata)
    __FUNCTION__                             0x0801c418   Data          10  udp.o(.constdata)
    .constdata                               0x0801c422   Section       14  net_plat.o(.constdata)
    __FUNCTION__                             0x0801c422   Data          14  net_plat.o(.constdata)
    .constdata                               0x0801c430   Section      148  netif_disc.o(.constdata)
    netdev0_ip                               0x0801c430   Data          13  netif_disc.o(.constdata)
    netdev0_gw                               0x0801c43d   Data          13  netif_disc.o(.constdata)
    friend0_ip                               0x0801c44a   Data          13  netif_disc.o(.constdata)
    netdev0_phy_ip                           0x0801c457   Data          13  netif_disc.o(.constdata)
    netdev0_mask                             0x0801c464   Data          14  netif_disc.o(.constdata)
    netdev0_hwaddr                           0x0801c472   Data           6  netif_disc.o(.constdata)
    netdev1_ip                               0x0801c478   Data          11  netif_disc.o(.constdata)
    netdev1_gw                               0x0801c483   Data           9  netif_disc.o(.constdata)
    netdev1_phy_ip                           0x0801c48c   Data          14  netif_disc.o(.constdata)
    friend1_ip                               0x0801c49a   Data           9  netif_disc.o(.constdata)
    netdev1_mask                             0x0801c4a3   Data          14  netif_disc.o(.constdata)
    netdev1_hwaddr                           0x0801c4b1   Data           6  netif_disc.o(.constdata)
    .constdata                               0x0801c4c4   Section       13  test_net.o(.constdata)
    friend0_ip                               0x0801c4c4   Data          13  test_net.o(.constdata)
    .constdata                               0x0801c4d1   Section        6  test_net.o(.constdata)
    netdev0_hwaddr                           0x0801c4d1   Data           6  test_net.o(.constdata)
    .constdata                               0x0801c4d8   Section      660  httpd.o(.constdata)
    mime_tbl                                 0x0801c4d8   Data          64  httpd.o(.constdata)
    property_info_tbl                        0x0801c518   Data          16  httpd.o(.constdata)
    response                                 0x0801c528   Data         153  httpd.o(.constdata)
    response                                 0x0801c5c1   Data         137  httpd.o(.constdata)
    response                                 0x0801c64a   Data         150  httpd.o(.constdata)
    response                                 0x0801c6e0   Data         140  httpd.o(.constdata)
    .constdata                               0x0801c76c   Section       12  ntp.o(.constdata)
    .constdata                               0x0801c778   Section       58  ff.o(.constdata)
    LfnOfs                                   0x0801c778   Data          13  ff.o(.constdata)
    vst                                      0x0801c786   Data          22  ff.o(.constdata)
    cst                                      0x0801c79c   Data          22  ff.o(.constdata)
    .constdata                               0x0801c7b2   Section    175304  cc936.o(.constdata)
    uni2oem                                  0x0801c7b2   Data       87172  cc936.o(.constdata)
    oem2uni                                  0x08031c36   Data       87172  cc936.o(.constdata)
    tbl_lower                                0x080470ba   Data         480  cc936.o(.constdata)
    tbl_upper                                0x0804729a   Data         480  cc936.o(.constdata)
    .constdata                               0x0804747c   Section       24  eventrecorder.o(.constdata)
    __tagsym$$used                           0x0804747c   Number         0  eventrecorder.o(.constdata)
    .constdata                               0x08047494   Section       40  _printf_hex_int_ll_ptr.o(.constdata)
    uc_hextab                                0x08047494   Data          20  _printf_hex_int_ll_ptr.o(.constdata)
    lc_hextab                                0x080474a8   Data          20  _printf_hex_int_ll_ptr.o(.constdata)
    .constdata                               0x080474bc   Section       17  __printf_flags_ss_wp.o(.constdata)
    maptable                                 0x080474bc   Data          17  __printf_flags_ss_wp.o(.constdata)
    .constdata                               0x080474d0   Section        8  _printf_wctomb.o(.constdata)
    initial_mbstate                          0x080474d0   Data           8  _printf_wctomb.o(.constdata)
    .constdata                               0x080474d8   Section       38  _printf_fp_hex.o(.constdata)
    lc_hextab                                0x080474d8   Data          19  _printf_fp_hex.o(.constdata)
    uc_hextab                                0x080474eb   Data          19  _printf_fp_hex.o(.constdata)
    .constdata                               0x080474fe   Section       12  _monlen.o(.constdata)
    .constdata                               0x0804750c   Section      148  bigflt0.o(.constdata)
    tenpwrs_x                                0x0804750c   Data          60  bigflt0.o(.constdata)
    tenpwrs_i                                0x08047548   Data          64  bigflt0.o(.constdata)
    .conststring                             0x080475a0   Section       43  dbg.o(.conststring)
    .conststring                             0x080475cc   Section       93  pktbuf.o(.conststring)
    .conststring                             0x0804762c   Section      104  tcp_out.o(.conststring)
    .conststring                             0x08047694   Section      133  tcp_state.o(.conststring)
    .conststring                             0x0804771c   Section      199  tftp.o(.conststring)
    .conststring                             0x080477e4   Section      201  httpd.o(.conststring)
    .conststring                             0x080478b0   Section       45  ntp.o(.conststring)
    c$$dinf                                  0x08047920   Section        8  fpconst.o(c$$dinf)
    locale$$data                             0x08047928   Section      272  lc_ctype_c.o(locale$$data)
    __lcctype_c_name                         0x0804792c   Data           2  lc_ctype_c.o(locale$$data)
    __lcctype_c_start                        0x08047934   Data           0  lc_ctype_c.o(locale$$data)
    locale$$data                             0x08047a38   Section       28  lc_numeric_c.o(locale$$data)
    __lcctype_c_end                          0x08047a38   Data           0  lc_ctype_c.o(locale$$data)
    __lcnum_c_name                           0x08047a3c   Data           2  lc_numeric_c.o(locale$$data)
    __lcnum_c_start                          0x08047a44   Data           0  lc_numeric_c.o(locale$$data)
    __lcnum_c_point                          0x08047a50   Data           0  lc_numeric_c.o(locale$$data)
    __lcnum_c_thousands                      0x08047a52   Data           0  lc_numeric_c.o(locale$$data)
    __lcnum_c_grouping                       0x08047a53   Data           0  lc_numeric_c.o(locale$$data)
    __lcnum_c_end                            0x08047a54   Data           0  lc_numeric_c.o(locale$$data)
    HEAP                                     0x10000000   Section    61440  startup_stm32f40_41xxx.o(HEAP)
    Heap_Mem                                 0x10000000   Data       61440  startup_stm32f40_41xxx.o(HEAP)
    STACK                                    0x1000f000   Section     4096  startup_stm32f40_41xxx.o(STACK)
    Stack_Mem                                0x1000f000   Data        4096  startup_stm32f40_41xxx.o(STACK)
    __initial_sp                             0x10010000   Data           0  startup_stm32f40_41xxx.o(STACK)
    i.keepalive_start_timer                  0x20000154   Section        0  tcp.o(i.keepalive_start_timer)
    keepalive_start_timer                    0x20000155   Thumb Code    72  tcp.o(i.keepalive_start_timer)
    i.tcp_abort                              0x200001dc   Section        0  tcp.o(i.tcp_abort)
    i.tcp_accept                             0x20000210   Section        0  tcp.o(i.tcp_accept)
    i.tcp_alloc                              0x20000288   Section        0  tcp.o(i.tcp_alloc)
    tcp_alloc                                0x20000289   Thumb Code   324  tcp.o(i.tcp_alloc)
    i.tcp_alloc_port                         0x2000044c   Section        0  tcp.o(i.tcp_alloc_port)
    i.tcp_backlog_count                      0x200004a0   Section        0  tcp.o(i.tcp_backlog_count)
    i.tcp_bind                               0x200004cc   Section        0  tcp.o(i.tcp_bind)
    i.tcp_clear_parent                       0x200006b8   Section        0  tcp.o(i.tcp_clear_parent)
    i.tcp_close                              0x200006e4   Section        0  tcp.o(i.tcp_close)
    i.tcp_conn_exist                         0x20000838   Section        0  tcp.o(i.tcp_conn_exist)
    i.tcp_connect                            0x2000088c   Section        0  tcp.o(i.tcp_connect)
    i.tcp_create                             0x20000a50   Section        0  tcp.o(i.tcp_create)
    i.tcp_create_child                       0x20000ab0   Section        0  tcp.o(i.tcp_create_child)
    i.tcp_destory                            0x20000b74   Section        0  tcp.o(i.tcp_destory)
    i.tcp_find                               0x20000b84   Section        0  tcp.o(i.tcp_find)
    i.tcp_free                               0x20000c00   Section        0  tcp.o(i.tcp_free)
    i.tcp_free_tmo                           0x20000cb4   Section        0  tcp.o(i.tcp_free_tmo)
    tcp_free_tmo                             0x20000cb5   Thumb Code     6  tcp.o(i.tcp_free_tmo)
    i.tcp_get_free                           0x20000cbc   Section        0  tcp.o(i.tcp_get_free)
    tcp_get_free                             0x20000cbd   Thumb Code    78  tcp.o(i.tcp_get_free)
    i.tcp_get_iss                            0x20000d10   Section        0  tcp.o(i.tcp_get_iss)
    tcp_get_iss                              0x20000d11   Thumb Code    24  tcp.o(i.tcp_get_iss)
    i.tcp_init                               0x20000d2c   Section        0  tcp.o(i.tcp_init)
    i.tcp_init_connect                       0x20000db0   Section        0  tcp.o(i.tcp_init_connect)
    tcp_init_connect                         0x20000db1   Thumb Code   112  tcp.o(i.tcp_init_connect)
    i.tcp_insert                             0x20000e20   Section        0  tcp.o(i.tcp_insert)
    i.tcp_keepalive_restart                  0x20000ea0   Section        0  tcp.o(i.tcp_keepalive_restart)
    i.tcp_keepalive_start                    0x20000ec0   Section        0  tcp.o(i.tcp_keepalive_start)
    i.tcp_keepalive_tmo                      0x20000f30   Section        0  tcp.o(i.tcp_keepalive_tmo)
    tcp_keepalive_tmo                        0x20000f31   Thumb Code   118  tcp.o(i.tcp_keepalive_tmo)
    i.tcp_kill_all_timers                    0x2000100c   Section        0  tcp.o(i.tcp_kill_all_timers)
    i.tcp_listen                             0x20001028   Section        0  tcp.o(i.tcp_listen)
    i.tcp_rcv_window                         0x200010d4   Section        0  tcp.o(i.tcp_rcv_window)
    i.tcp_recv                               0x200010f8   Section        0  tcp.o(i.tcp_recv)
    i.tcp_send                               0x20001238   Section        0  tcp.o(i.tcp_send)
